S00E00004932435F5247422E68657886
S113000000300020290A0000590A0000650A000097
S1130010650A0000650A0000650A0000650A000020
S1130020650A0000650A0000650A0000650A000010
S1130030650A0000650A0000650A0000650A000000
S1130040650A0000650A0000650A0000650A0000F0
S1130050650A0000650A0000650A0000650A0000E0
S1130060C10D0000650A0000650A0000650A000071
S1130070650A0000650A0000650A0000650A0000C0
S1130080650A0000650A0000650A0000B118000056
S1130090650A0000650A0000650A0000650A0000A0
S11300A0650A0000650A0000650A0000650A000090
S11300B0650A0000650A0000650A0000650A000080
S1130410002934D00123002210B488422CD30124B3
S11304202407A14204D2814202D209011B01F8E748
S1130430E400A14204D2814202D249005B00F8E701
S1130440884201D3401A1A434C08A04202D3001B2D
S11304505C0822438C08A04202D3001B9C08224360
S1130460CC08A04202D3001BDC082243002803D09E
S11304701B0901D00909E3E7101C10BC70470028D0
S113048001D00020C04307B4024802A140180290E2
S113049003BDC046D90000000029F0D003B5FFF722
S11304A0B9FF0EBC4243891A1847C046002941D0FF
S11304B010B4041C4C40A44601230022002900D59A
S11304C04942002800D5404288422CD30124240705
S11304D0A14204D2814202D209011B01F8E7E400DF
S11304E0A14204D2814202D249005B00F8E788426B
S11304F001D3401A1A434C08A04202D3001B5C08E3
S113050022438C08A04202D3001B9C082243CC083F
S1130510A04202D3001BDC082243002803D01B099D
S113052001D00909E3E7101C6446002C00D54042C1
S113053010BC7047002806D003DB0020C0434008ED
S113054001E08020000607B4024802A1401802908E
S113055003BDC046190000000029EBD003B5FFF726
S1130560A7FF0EBC4243891A1847C0467047C046CD
S113057080B584B000AF78607B68FB60FB680122C3
S11305801A70BD4604B080BD80B584B000AF7860F9
S11305907B68FB60FB6801225A70BD4604B080BDD5
S11305A080B582B000AF7860BD4602B080BDC04661
S11305B080B582B000AF7860BD4602B080BDC04651
S11305C080B582B000AF7860BD4602B080BDC04641
S11305D080B500AFBD4680BD80B586B000AFF86081
S11305E0B960111C1A1CFB1D1970BB1D1A70BB6865
S11305F000221A70FA68FB1D101C191C012200232A
S113060000F0C8FDC046BB681B78DBB2002BFAD0F3
S1130610BB681B78DBB2002B01D1002327E0BB6849
S113062000225A70BB1D1B789BB2F9683A6A081CF9
S1130630111C1A1C012300F079FEC046BB685B78CC
S1130640DBB2002BFAD0FA683B1C1733101C191CC0
S113065000F038FF3B1C17331B78012BF3D1BB6828
S11306605B78DBB2002B01D1002300E00123181CCE
S1130670BD4606B080BDC046F0B58FB000AF78620D
S11306803962111C181C3A1C1F320B1C13703A1CC3
S11306901E32031C13706B461E1C3A1C3732102387
S11306A013703B1C37331B78013B3B633B1C3733D4
S11306B01B783B6100237B613A69530F7A69D2004E
S11306C0FA60FA681A43FA603B69DB003B1C373373
S11306D01B781C1C00231D1C630FEA007A607A68D7
S11306E01A437A60E3003B1C37331B780733073324
S11306F0DB08DB006A46D21A95466B460733DB08F3
S1130700DB00FB62FB6A3A1C1F3212781A70FB6A28
S11307100133191C3A6D3B1C1E331B78081C111C39
S11307201A1C01F093F93B6A00221A70FA6A3B1C06
S11307301E331B789BB201339BB2796A081C111CCF
S11307401A1C012300F026FDC0463B6A1B78DBB26D
S1130750002BFAD07A6A3B1C2B33101C191C00F0B6
S1130760B1FE3B1C2B331B78012BF3D13B6A1B7866
S1130770DBB2002B01D1002300E00123B546181C95
S1130780BD460FB0F0BDC04690B585B002AF00F0D5
S113079029FA8A4B181C01F00FF9894B181C01F037
S11307A00BF9864B181C01F007F90A2001F0F0F848
S11307B0844B181C01F000F9834B181C01F0FCF861
S11307C0824B181C01F0F8F80A2001F0E1F83B1DF7
S11307D0181C00F053FC021C7D4B1A60002000F032
S11307E0ADFF021C7B4B1A60002000F011FF021CBD
S11307F0794B1A60794B181C01F0DEF8784B181C01
S113080001F0DAF8774B181C01F0AEF8704B1A6857
S11308103B1DF91C0091101C191C2A220123FFF70F
S1130820DBFE031C1A1CBB1D51424A411A80BB1D2E
S11308301B88002B13D1FB1C03221A70644B1A680B
S11308403B1DF91C0091101C191C2A220123FFF7DF
S113085013FF031C1A1CBB1D51424A411A80BB1DC5
S11308601B88002B1ED1FB1C00221A70584B1A68DF
S11308703B1DF91C0091101C191C2A220123FFF7AF
S1130880ABFE031C1A1CBB1D51424A411A80BB1DFE
S11308901B88002B06D1FB1C1B78032B02D0BB1D2D
S11308A001221A80BB1D1B88002B04D14E4B181C3F
S11308B001F082F803E04D4B181C01F07DF8BB1DDC
S11308C01B88002B03D14A4B181C01F075F80A2031
S11308D001F05EF8394B181C01F06EF8454B181CFA
S11308E001F06AF8354B181C01F066F8BB1D1B8833
S11308F0002B62D100E0C046354B1A683B1D391C01
S11309000091101C191C01220323FFF765FE031C30
S11309101A1CBB1D51424A411A80BB1D1B88002B67
S1130920E9D12C4B1C683B1C1B785BB2181C0A21B8
S1130930FFF7BCFD031CDBB25BB2D9175B184B405D
S1130940FA229200111C99400B1C201C00211A1C35
S113095000F076FF1F4B1C683B1C5B785BB2181CD5
S11309600A21FFF7A3FD031CDBB25BB2DA179B1865
S11309705340FA229200111C99400B1C201C0121A7
S11309801A1C00F05DFF144B1C683B1C9B785BB287
S1130990181C0A21FFF78AFD031CDBB25BB2DA17CD
S11309A09B185340FA229200111C99400B1C201CE6
S11309B000211A1C00F08AFE9DE7FEE7CC2400000B
S11309C008250000442500005C250000982500004F
S11309D0CC000020540100204C010020E025000040
S11309E0F82500002C2600005C2600006426000088
S11309F06C260000A826000080B582B000AF7860A5
S1130A00FEE7C04680B500AF054A064BD31A054A37
S1130A10101C00211A1C01F022F8BD4680BDC046FE
S1130A201C020020CC00002001F040FD00F020F862
S1130A30FFF7E8FF01F016FD01F0B0FC01F044FD02
S1130A40044B0020191CFFF79FFE031C181C00F028
S1130A50E1FFC046D000002080B500AFFFF7B8FD2D
S1130A60BD4680BD80B500AFFFBEBD4680BDC0465B
S1130A7080B500AF4D4A4E494E4BD1504E4A882363
S1130A805B010021D1504C4A4B494C4BCB58D821E7
S1130A9089011943494BD150474A494B4949D150DF
S1130AA0454A4549484BCB58802149021943464B96
S1130AB0D150414B404A1268111C444A0A401A6002
S1130AC03D4A3D49404BCB58191C414B0B408021BA
S1130AD0490419433C4BD1503E4B3E4A926C111C85
S1130AE03D4A0A409A643B4B3A4AD26C111C3A4A3A
S1130AF00A40DA64394B89221A70394B24225A701D
S1130B00374B9A221A70364B354AD278D1B21F220B
S1130B100A40D2B2DA70C046314B9B79DBB21A1C60
S1130B2010231340F8D1C0462D4B9B79DBB21A1C1D
S1130B300C231340082BF7D1284B89221A70284B19
S1130B409A221A70264B24225A70254B01221A71BC
S1130B50234B40225A71C046214B9B79DBB21A1CAD
S1130B600C231340082BF7D1C0461D4B9B79DBB2F5
S1130B701A1C40231340F8D0184B89221A70184BC2
S1130B801A221A70164B24225A70154B01221A711C
S1130B90134B40225A71C046114B9B79DBB21A1C8D
S1130BA00C2313400C2BF7D1BD4680BD00E000E0C0
S1130BB000000000080D0000007004403810000020
S1130BC0441000000000011004100000FFFFF3FFB8
S1130BD0FFFFFFFC00900440FFF8FFFE00500640BA
S1130BE00040064080B500AF324B324A1269111CF6
S1130BF0314A0A40E021C9000A431A612F4B2F4AA7
S1130C005279D2B21F218A43D2B25A712B4B2B4A4A
S1130C101279D2B207218A43D2B21A71284B284AD8
S1130C201278D2B2D2B273218A43D2B250210A438B
S1130C30D2B2D2B21A70224B214A5278D2B2D2B274
S1130C4063218A43D2B240210A43D2B2D2B25A704B
S1130C501B4B1B4A9278D2B219218A43D2B29A70A2
S1130C60184B00221A70184A1749184BCB58191CF4
S1130C70174B0B408021C9041943144BD1500D4B21
S1130C800C4A126D111C0C4A0A40E021C9000A43A7
S1130C901A65104A0F49C1239B00CB58191C0E4BEF
S1130CA01940C1239B00D150002000F025FC62B6FE
S1130CB0BD4680BD00900440FFF8FFFE00F00740F1
S1130CC000D0074000E0074000700440041000001A
S1130CD0FFFFFFF300E100E0FFFF00FF80B586B0F7
S1130CE000AFF860B9607A6000237B6111E0C04610
S1130CF00D4B1B79DBB21A1C20231340F8D0BA68C1
S1130D007B69D318084AD279D2B21A707B6901334D
S1130D107B617B681A687B699A42E8D80023181CB7
S1130D20BD4606B080BDC04600A0064080B586B072
S1130D3000AFF860B9607A6000237B6121E0BA6893
S1130D407B69D3181B780A2B0AD1C046164B1B7932
S1130D50DBB2DBB25BB2002BF8DA134B0D22DA7193
S1130D60C046114B1B79DBB2DBB25BB2002BF8DA65
S1130D700D4BB9687A698A181278DA717B69013384
S1130D807B617B681A687B699A42D8D8C046064B57
S1130D901B79DBB2DBB25BB2002BF8DA0023181C40
S1130DA0BD4606B080BDC04600A0064080B582B0F6
S1130DB000AF78600023181CBD4602B080BDC04659
S1130DC090B583B000AFAB4B1B683B60BB1D0022EA
S1130DD01A80A94BDB78DCB2A74BA74AD278D2B2EF
S1130DE0D2B212218A43D1B2E2B20A43D2B2D2B20F
S1130DF0DA70A14B9B78DBB21A1C2023134000D17C
S1130E0001E19D4B9B78DBB21A1C1023134000D1E7
S1130E10B8E0221C01231340DBB2002B2AD0964BEE
S1130E20954A9278D2B220218A43D2B29A70924BD8
S1130E30914A9278D2B210218A43D2B29A703B6816
S1130E4000229A813B680022DA803B681B780122E9
S1130E509343DAB23B681A703B681B78062213434B
S1130E60DAB23B681A70BB1DBA1D128808210A4306
S1130E701A80EAE03B681B781A1C0223134000D155
S1130E8074E03B689B89002B0ED03B689B89013B37
S1130E909AB23B689A81784A3B681B691978117148
S1130EA05A1C3B681A61D0E03B68DB88002B3CD0BD
S1130EB03B681B781A1C042313401FD03B68DB8853
S1130EC0012B08D16C4B6C4A9278D2B208210A43A8
S1130ED0D2B29A7007E0684B674A9278D2B208217E
S1130EE08A43D2B29A70644B634A9278D2B2102188
S1130EF08A43D2B29A70604B1B79A6E05E4B5E4A7D
S1130F009278D2B204210A43D2B29A705A4B3A6808
S1130F10527901210A43D2B21A713B681B78042228
S1130F201343DAB23B681A708FE03B681B780122E6
S1130F309343DAB23B681A703B685B78012B0FD19C
S1130F404D4B4D4A9278D2B220218A43D2B29A7044
S1130F50494B494A9278D2B210218A43D2B29A704C
S1130F603B685B69181CFFF703FB6EE0424B3A6871
S1130F7012791A713B681B7802221343DAB23B6878
S1130F801A7062E03B68DB88013B9AB23B68DA8006
S1130F903B68DB88002B0CD03B68DB88012B1FD11E
S1130FA0354B354A9278D2B208210A43D2B29A70AC
S1130FB016E03B681B7801229343DAB23B681A704F
S1130FC02D4B2D4A9278D2B220218A43D2B29A7004
S1130FD0294B294A9278D2B208218A43D2B29A7014
S1130FE03B689B68244A1279D2B21A705A1C3B6837
S1130FF09A603B68DB88002B27D13B685B69181C2F
S1131000FFF7C2FA21E0221C102313401DD03B68D5
S113101000229A813B680022DA803B6801225A70E0
S11310203B681B7801229343DAB23B681A70124B77
S1131030114A9278D2B210218A43D2B29A70BB1D5F
S1131040BA1D128804210A431A80BB1D1B88002B79
S11310500CD03B685A88BB1D1B8813439AB23B686B
S11310605A803B685B69181CFFF79AFABD4603B0C7
S113107090BDC046F00000200060064080B584B0FA
S113108000AF78603A4BFB60FB687A685A61394B71
S1131090FA681A60FB6820221A70FB683A221A71F7
S11310A0FB6801225A70FB680022DA80FB68002288
S11310B09A81FB6800225A802F4A2F492F4BCB5824
S11310C0402119432D4BD1502D4B00229A702C4BAB
S11310D00222DA702B4B2B4A526E111C2A4A0A4008
S11310E0A021C9000A435A66264B264A126E111CD7
S11310F0254A0A40A021C9000A431A66234A234903
S1131100C2239B00CB58FF218B4380211943C22368
S11311109B00D1501D4B1D4A1268802149000A438F
S11311201A60174B00225A71154B00229A71144B06
S113113008221A72124B25225A70114B104A9278C7
S1131140D2B2D2B2802149420A43D2B2D2B29A7008
S11311500B4B0B4A9278D2B240210A43D2B29A7016
S11311600B4BFA689A60FB68181CBD4604B080BD3E
S1131170D8000020F000002000700440341000006B
S11311800060064000D00440FFF8FFFE00E100E0EC
S11311900C01002080B586B000AFF860B960111C66
S11311A01A1CBB1D19807B1D1A70FB687B61BB1D5B
S11311B01B88002B01D10023AEE07B695B78012BF7
S11311C014D1574BDB78DBB21A1C202313400BD10C
S11311D07B691B781A1C01231340DBB2002B03D15B
S11311E07B699B89002B0FD0082395E07B691B78D2
S11311F01A1C01231340DBB2002B03D17B699B89AA
S1131200002B01D0082387E0464B1B78DBB2013367
S1131210DBB2444A191C1170012B04D1424BEFF389
S1131220108072B618707B691B7801221343DAB2FE
S11312307B691A707B69BA681A617B69BA1D128866
S11312409A817B697A1D12785A70354B344A9278A8
S1131250D2B2D2B210210A43D2B2D2B29A70304B77
S11312609B78DBB21A1C2023134008D02C4B2C4A49
S11312709278D2B204210A43D2B29A7009E0284B80
S1131280274A9278D2B2D2B220210A43D2B2D2B241
S11312909A707B691B781A1C202313400BD07B693E
S11312A01B7806221343DAB27B691A701C4B7A69E5
S11312B012791A7121E07B691B781A1C10231340E0
S11312C00BD07B691B7806229343DAB27B691A70D0
S11312D0134B7A6952791A710FE07B691B781A1CD7
S11312E00823134009D07B691B7802221343DAB226
S11312F07B691A700A4B00221A710A4B1B78DBB205
S1131300013BDBB2074A191C1170002B03D1064BB9
S1131310187880F310880023181CBD4606B080BDE1
S113132000600640D40000205801002080B586B03B
S113133000AFF860B960111C1A1CBB1D19807B1D1D
S11313401A70FB687B61BB1D1B88002B01D1002335
S1131350AEE07B1D1B78002B01D18123A8E07B69C3
S11313601B781A1C0823134001D00923A0E07B69D1
S11313705B78012B14D1504BDB78DBB21A1C202391
S113138013400BD17B691B781A1C01231340DBB279
S1131390002B03D17B69DB88002B0FD0082387E067
S11313A07B691B781A1C01231340DBB2002B03D189
S11313B07B69DB88002B01D0082379E03F4B1B7845
S11313C0DBB20133DBB23D4A191C1170012B04D18D
S11313D03B4BEFF3108072B618707B691B780122C7
S11313E01343DAB27B691A707B69BA689A607B69C5
S11313F0BA1D1288DA807B697A1D12785A702E4BD6
S11314002D4A9278D2B2D2B210210A43D2B2D2B2C9
S11314109A70294B9B78DBB21A1C2023134008D006
S1131420254B254A9278D2B204210A43D2B29A704B
S113143009E0214B204A9278D2B2D2B220210A4349
S1131440D2B2D2B29A707B691B781A1C2023134043
S11314500ED07B691B7806221343DAB27B691A70BB
S1131460154B7A69127901210A43D2B21A7110E03C
S11314707B691B781A1C102313400AD07B691B78E4
S113148006229343DAB27B691A700B4B7A6952795C
S11314901A710A4B1B78DBB2013BDBB2074A191CF9
S11314A01170002B03D1064B187880F310880023A9
S11314B0181CBD4606B080BD00600640D400002064
S11314C05801002080B584B000AF786039607B6833
S11314D0FB60084BDB78DBB21A1C2023134001D1DC
S11314E0012300E000233A6813700023181CBD4652
S11314F004B080BD0060064080B584B000AF786061
S11315003C4BFB60FB6800225A80FB6800221A8176
S1131510FB6800225A60FB6800225A81FB680022A3
S11315201A82FB680022DA60FB687A685A61324AE0
S11315303149324BCB588021C90019432F4BD1502C
S11315402F4B2F4A5268111C2E4A0A4080218900D1
S11315500A435A602A4B2A4A9268111C294A0A40B3
S1131560802189000A439A60274B274AD278D2B255
S113157008218A43D2B2DA70234B234AD278D2B2FA
S113158004218A43D2B2DA70FB6800221A801E4B0F
S113159000229A701C4B00229A711B4B00229A72F3
S11315A0194B00225A71184B174A1278D2B21F21D4
S11315B08A43D2B21A70144B4E225A70124B124AFA
S11315C0D278D2B2D2B208210A43D2B2D2B2DA70FD
S11315D00D4B0D4AD278D2B2D2B204210A43D2B210
S11315E0D2B2DA70094BFA68DA60FB68181CBD469F
S11315F004B080BDF40000200070044034100000EA
S113160000900440FFF8FFFE00A006400C010020FB
S113161080B584B000AF7860234BFB60FB687A68C8
S11316205A60224A2149224BCB588021490419434C
S11316301F4BD1501F4B00221A601E4B00225A60D0
S11316401C4B0022DA601B4B00225A61194B00220A
S1131650DA61184B00225A62164B0022DA62154BEB
S113166000225A63134B144A9A60124B2C225A617B
S1131670104B124A9A61124B114A5268111C114ABA
S11316800A408021C9000A435A60FB6808221A6094
S1131690084B09221A600C4BFA681A60FB68181C84
S11316A0BD4604B080BDC0461C010020007004404B
S11316B03C10000000800340FFFF0000AAAA0000C5
S11316C000C00440FFF8FFFE0C01002080B584B088
S11316D000AFF8607A603B1C0B330A1C1A703B1C89
S11316E00B331B78002B01D082231BE03B1C0B33F4
S11316F01B780E4AD35C002B01D0092312E00C495D
S11317003B1C0B331B780B4AD35C7A6892B20133CF
S1131710DB00CB189A607A68074B9A4201D9982368
S113172000E00023181CBD4604B080BDE82600007C
S113173000800340E4260000FFFF000080B584B071
S113174000AF7860324BFB60FB687A689A60314B7B
S1131750FA681A60304A3049304BCB588021C904AA
S113176019432E4BD1502E4B00221A602C4B0022D1
S11317705A602B4B0022DA60294B00225A61284B15
S1131780284A9A60264B6C22DA60254B00221A61A3
S1131790234B2C225A61224B234A9A61234B234A1E
S11317A0926C111C224A0A40C02189000A439A649F
S11317B01E4B1E4AD26C111C1D4A0A40C0218900CE
S11317C00A43DA64FB681B4A1A60FB6808225A6001
S11317D0194A1949C4239B00CB581B021B0A8021B8
S11317E009061943C4239B00D150134B124A1268B3
S11317F0802109030A431A60094B49221A600F4BDE
S1131800FA685A60FB68181CBD4604B080BDC04627
S11318102401002030010020007004403C1000002E
S113182000A00340FFFF00005555000000A0044045
S1131830FFF8FFFE0101000000E100E00C010020C0
S113184080B584B000AFF8607A603B1C0B330A1C8F
S11318501A703B1C0B331B78012B01D982231BE02C
S11318603B1C0B331B780E4AD35C002B01D009239D
S113187012E00C493B1C0B331B780B4AD35C7A688F
S113188092B20133DB00CB189A607A68074B9A4214
S113189001D9982300E00023181CBD4604B080BD84
S11318A0F026000000A00340EC260000FFFF00002B
S11318B080B582B000AF294B1B683B6000237B607E
S11318C0274B1B681A1C8023134004D07B6880229A
S11318D0520013437B60224A224B1B780133DB0006
S11318E0D3185B681A1C8023134003D07B68012241
S11318F013437B603B681A687B6813407B607A689B
S113190080235B0013400AD0154B154A12688021CE
S11319100A431A603B689B68181CFEF749FE7A6804
S113192001231340DBB2002B15D00D490D4B1B785E
S1131930181C0B4A0B4B1B780133DB00D3185B6874
S113194080221A43431CDB00CB185A603B689B6817
S1131950181CFEF735FEBD4602B080BD30010020E4
S113196000A00340EC2600000FB41FB506AB04CB67
S11319700021009104480549039300F047F905B09C
S113198008BC04B01847C0464722000044000020A9
S113199008B508498B6E5A1E8A66002B05D04B6E1B
S11319A0C0B2187001334B6602E0443100F04AFBC8
S11319B008BDC0460000002070B5154C051C261C4F
S11319C044360EE0A36E5A1EA266002B04D0636E4A
S11319D018700133636604E0311C00F033FB431CD0
S11319E00FD0287801350028ECD10BE0636E0A2073
S11319F018700133636604E0211C44310A2000F0AE
S1131A0021FB70BDA36E5A1EA266002BEED1F3E734
S1131A100000002038B5051C00F03AFD00F0E2FC9F
S1131A20084C2368002B02D0984700232360064CFF
S1131A302368002B02D0984700232360281CFEF75C
S1131A40DBFF38BD340100203801002010B500232D
S1131A5002E0CC5CC45401339342FAD110BD10B5FA
S1131A60041C00F0FFFB201C10BD0000F0B589B081
S1131A701F1C0EAB1B780C1C04930FAB1E78013C8F
S1131A80002301900391079202902370984217D18A
S1131A90119A9A4214D1049B002B01D06F2E32D09C
S1131AA0692E02D0642E00D0AAE0022F02D1039C3A
S1131AB0023CA3E0012F00D0A2E0039C023C98E08A
S1131AC0692E0FD004D8582E19D0642E21D109E0E4
S1131AD0752E04D0782E12D06F2E1AD115E000275F
S1131AE000971BE0019A002A13DA80231B069A420E
S1131AF012D0524201230192029200930EE0002779
S1131B00009710250BE0119F00E00027009708259F
S1131B1005E00021009101E0012200920A25002342
S1131B20069301E006901C1C0298291CFEF7B4FCE5
S1131B3002980591291CFEF76BFC0599029009296E
S1131B4002D80A1C303205E0059A3732782E01D1CA
S1131B50059A573206980299631ED2B21A70013060
S1131B600029DFD1082D09D10499002906D0302A93
S1131B7004D00698A31E30221A700230079A022A53
S1131B8010D10099002901D1002F02D0109A013AF6
S1131B90109210991191102D04D1049A002A01D0A9
S1131BA002391191039A0024D11A119A8918164AFC
S1131BB0914225DC302202E0013B1A700130119978
S1131BC01C1C8842F8DB102D0AD1019A002A07D088
S1131BD0049B002B04D0631E1E70023C3023237030
S1131BE00099002902D0013C2D2308E0012F02D1E5
S1131BF0013C2B2303E0022F02D1013C202323705C
S1131C00201C09B0F0BDC046FD010000F0B5AD4C8C
S1131C100027A5441C1CAC4B0B916B4420210A905B
S1131C20197009920897EBE10998252100F077FBD8
S1131C300490002810D1099800F080FB089F021C32
S1131C403F18002800D1E4E10B9809990A9DA847A0
S1131C50002800D0DDE1DAE1049D09982D1A0795EA
S1131C6007D02A1C0B9809990A9DA847002800D17F
S1131C70CDE1049845782B1C252D0AD1002602308D
S1131C80012309900696321C311CB446371C059377
S1131C90A6E0049A0021012501320F1C05952B2B87
S1131CA000D1BDE104DC202B08D0232B11D109E0A5
S1131CB02D2B00D1B2E1302B0BD105E0012F00D048
S1131CC0B0E1B3E10121B1E1059D002D00D0ABE10C
S1131CD0ACE12A2B03D0002506950A2612E0251D27
S1131CE024680694002C03DA6042002306900593CE
S1131CF0501C53782C1C0AE0069B73435D1906950F
S1131D00537801321D1C303D101C092DF4D96F4A43
S1131D10069D954206DD002601300990FF25321C00
S1131D20B4465DE02E2B1CD143782A2B04D0421CF0
S1131D300A20002684460CE026680434F343DB0FB3
S1131D409C46837802300EE063465E4353787619EE
S1131D5001321D1C303D101C092DF5D90125AC465E
S1131D6001E00026B446682B00D162E103226C2B0B
S1131D7000D15FE10022DDB26E2B2FD00ADC632B91
S1131D801BD002DC582B28D110E0642B0ED0692B19
S1131D9023D10BE0732B13D004DC6F2B06D0702BF4
S1131DA01BD110E0752B01D0782B16D16346002B84
S1131DB00ED0059B022B11D10CE06346002B0CD1F5
S1131DC0002A0AD10AE0782508260322012105E029
S1131DD0012603E00123059300E0FF25013009906B
S1131DE00898079BC01808906E2D75D010D8632DE5
S1131DF000D184E006D8252D00D186E0582D00D0EE
S1131E0089E022E0642D0FD0692D00D083E00BE03F
S1131E10732D36D003D86F2D00D07CE015E0752DDE
S1131E2013D0782D77D110E0231D07932068032A5F
S1131E3006D0022A01D100B202E0012A00D140B248
S1131E4000910699019502910FE0231D07932068E4
S1131E50032A06D0022A01D180B202E0012A00D16D
S1131E60C0B2069A0091019502928DA9059A3B1C75
S1131E700396FFF7FBFD041E4DD0154F6F443F1B27
S1131E8059E0231D24680793002C00D1114C00292C
S1131E9007D060462778013400284CD0B74249DC8B
S1131EA049E06246201C002A07D0321C00F02AFABE
S1131EB0371C00283FD0071B3DE000F03FFA071C09
S1131EC039E0C046C4FDFFFF36020000FD010000FA
S1131ED033020000F4260000251D07952368022A1A
S1131EE005D0032A08D0002A00D088E004E0684620
S1131EF02021085A188082E0089D1D607FE0226836
S1131F00201D0DAB07901A7002E00DAB1D700794F5
S1131F101C1C01270FE0049800F010FA089F041E0F
S1131F2006D00B980499221C0A9DA84700286ED05D
S1131F303F196EE0371C05983E1C00283FD0302323
S1131F40022800D020233D4A6A44137022782D2AA7
S1131F5004D02B2A02D00497202A0CD10497302BCA
S1131F6009D10B98211C01220A9B984700284ED0C6
S1131F70781E013404900599022911D1412D01D014
S1131F80612D0DD1049D012D41DD0B98211C0222F0
S1131F900A9DA84700283AD0049D0234023D0495C6
S1131FA03E1C08E025490B98694401220A9DA84774
S1131FB000282CD00136069DAE42F3DB049F002F8F
S1131FC006D00B98211C3A1C0A9DA84700281ED055
S1131FD0059D002D10D109E025700B98211C0122CC
S1131FE00A9B9847002812D0013602E0144C2025A1
S1131FF06C4406988642EFDB089DAD190895079C52
S1132000099D2B78002B00D00EE6089F01E00127E4
S11320107F42381C8F239B009D44F0BD002504E0C3
S1132020012703E0022701E00225059553780132D8
S113203035E60222437801309DE6C04636020000B0
S11320403702000038B5CB790022051C0C1C4A620B
S113205093423BD00B7B934238D14B7A934207D1C6
S11320604B799A0704D501234B72081C00F070F9D0
S1132070637A012B22D1A379022B05D0A369226AAA
S1132080D21AE3699A4205D1201C002100F06AF9B2
S1132090002813D1636A013B6362236A1D70013314
S11320A02362A379022B13D00A2D01D0002B0AD16D
S11320B0201C002100F056F9002804D001232373CA
S11320C00023636202E00023636201E001256D42A4
S11320D0281C38BDF0B50D1C554387B0061C039170
S11320E01C1C281E00D1ACE01B7B0020834200D0C6
S11320F0A7E0E079002800D1A3E0E26900939542CB
S11321000BD8237A01210091002B06D0A379022B4E
S113211003D0013B5A425A410092637A002B07D103
S11321206379990704D501236372201C00F010F928
S1132130637A012B04D0012300202373606280E0C2
S113214069460978236AA2690291002904D19F1A79
S1132150791E8F41002F48D0E169D31A5B1863625E
S11321600027636A0593AB4200D90595059A002AB6
S11321700ED0A379012B0BD1301C0A2100F0B4F846
S11321800190002806D0031C01339B1B059301E03A
S113219000220192059A002A0CD0311C206AFFF714
S11321A055FC059B226AF618D2182262626AED1A5F
S11321B0D31A6362019B002B05D1636A002B02D002
S11321C0A379002B0AD1201C002100F0CBF80028B1
S11321D004D0012300252373656206E0059BFF18E4
S11321E0002D02D002990029BBD1002D20D0009AE5
S11321F0002A1DD1E169A369E56175190191A66100
S11322002562201C05A9009300F0ACF8002804D036
S1132210012323730023636201E0059BFF18019BE4
S1132220009AE361A261201C00F092F8002363622B
S1132230A379022B01D000236362381C0399FEF7B3
S1132240E7F807B0F0BD38B5041C231C081C0121B5
S1132250151CFFF73FFF451B6B425D416D422C404F
S1132260201C38BD30B5C9B2031C1F2A35D94442DD
S113227003232340041C002B07D0D21A1D1C013D4C
S113228021700134002DFAD1C418002905D00D069F
S1132290080428430B02014319435009231C002856
S11322A00ED0051C013D196059609960D96019610F
S11322B059619961D9612033002DF3D14301E318A9
S11322C0D006400F07D0041C1D1C013C02C5002C85
S11322D0FBD180001B1803200240002A03D0197090
S11322E0013A0133F9E730BD10B58018C9B2831A39
S11322F004E0013A9C5C01388C4202D0002AF8D1F7
S1132300101C10BD10B5C9B2821804E00478431C37
S11323108C4203D0181C9042F8D1002010BD00B5A7
S1132320C9B202E08B4208D0101C0378421C002B77
S1132330F8D14B4259414942084000BD00B5031C45
S11323401A1C0133591E09780029F9D1101A00BD4D
S11323508369826A03624369C1691A408A1A4262C4
S11323600363704738B50D1C036A8169041C5B1A4A
S11323700FD0221C436224320068E36B9847002D7F
S113238001D0636A2B60002807D16269636AD3189D
S11323906361201CFFF7DCFF002038BD38B50B4C0F
S11323A00B4D01E008CC9847AC42FBD1094C0A4DD7
S11323B001E008CC9847AC42FBD1084C084D01E041
S11323C008CC9847AC42FBD138BDC046F826000083
S11323D0F8260000F8260000F8260000F826000081
S11323E0FC26000038B5084C084D01E008CC98479D
S11323F0AC42FBD1064C074D02E0043C23689847ED
S1132400AC42FAD138BDC046F8260000F8260000D8
S1132410FC260000FC26000030B5002A20D08842AB
S11324201ED003240123214207D1204205D1944226
S113243003D220C9043A20C010E0194209D118423D
S113244007D1934205D20D88023A05800231023049
S113245004E00D78013A057001310130002AE2D11F
S113246030BD000010B5094C002C0ED004E06068AB
S1132470A268FFF7D1FF0C3421680029F7D1636803
S1132480002BF4D1A368002BF1D110BDC8270000A4
S113249010B5054B1C6803E0A0686368984724687E
S11324A0002CF9D110BDC04648010020054B181C72
S11324B0002805D0854681B00020C043009001B0BB
S11324C0F746704700300020F74670472A2A2A2A28
S11324D02A2A2A2A2A2A2A2A2A2A2A2A2A2A2A2A58
S11324E02A2A2A2A2A2A2A2A2A2A2A2A2A2A2A2A48
S11324F02A2A2A2A2A2A2A2A2A2A2A2A2A2A2A2A38
S11325002A2A2A2A2A0000002A2A2A2044454D4F32
S11325102070726F6A65637420666F7220746865D8
S11325202049324320636F6D706F6E656E74202D89
S113253020626567696E2020202020202020202032
S11325402000000050726F6A6563742064657363D1
S113255072697074696F6E3A00000000493243205A
S11325606578616D706C65206F6620636F6D6D7545
S11325706E69636174696F6E207769746820657829
S11325807465726E616C20616363656C65726F6DF6
S1132590657465722E00000050574D2069732075D4
S11325A073656420666F722064696D6D696E67205F
S11325B074686520524742204C454420696E20646B
S11325C06570656E64656E6365206F6E2074696CFA
S11325D074206F662074686520626F6172642E00D7
S11325E02B2B2B20537465702030202D20626567BF
S11325F0696E202B2B2B0000446573637269707421
S1132600696F6E3A205365747570206163746976DE
S113261065206D6F646520616E642066617374204B
S113262072656164206D6F64652E00003129204954
S11326306E697469616C697A6174696F6E206F6622
S1132640204D4D41383435315120616363656C65EB
S1132650726F6D657465722E2E2E20005041535397
S113266045442E004641494C45442E00322920540D
S1132670696C7420796F75722046726565646F6D3C
S113268020426F61726420746F206368616E6765B5
S11326902074686520524742204C454420636F6C87
S11326A06F72732E000000002A2A2A2044454D4FE1
S11326B02070726F6A65637420666F722074686537
S11326C02049324320636F6D706F6E656E74202DE8
S11326D020656E642020202020202020202020201F
S11326E020000000010000000000000000010000C4
S10B26F00000000000000000DE
S10726F8710A00005F
S11326FC00000000000101020000000000000000C6
S113270C00000000000000009901002040000000BF
S113271C99010020000000000000000000000000EF
S113272C0000000000000000DD0C00002D0D000076
S113273CAD0D0000010000000002010200000000C9
S113274C00000000000000000000000059010020FF
S113275C40000000590100200000000000000000AF
S113276C000000000000000000000000DD0C000070
S113277C2D0D0000AD0D000002000000000200024F
S113278C0000000000000000000000000000000039
S113279CD901002040000000D901002000000000F5
S11327AC0000000000000000000000000000000019
S10F27BCDD0C00002D0D0000AD0D000030
S11327C8FC26000000000020CC000000C827000000
S11327D800F0FF1F000000000000000000000000DF
S10727E800000000E9
S9030A29C9
