S012000046726565646F6D5F5045782E6865784C
S113000000300020D9420000ED0A0000F90A000087
S1130010050B0000110B00001D0B0000290B000054
S1130020350B0000410B00004D0B0000E5350000CE
S1130030590B0000650B00000D3600005120000034
S1130040710B00007D0B0000890B0000950B000074
S1130050A10B0000AD0B0000B90B0000C50B0000A4
S1130060D10B0000DD0B0000E90B0000F50B0000D4
S1130070850A0000010C00000D0C0000190C0000A2
S1130080250C0000310C00003D0C0000490C000060
S1130090550C0000610C00006D0C0000790C000090
S11300A0850C0000910C00009D0C0000A90C0000C0
S11300B0891F0000B50C0000C10C0000CD0C00002D
S1130410002934D00123002210B488422CD30124B3
S11304202407A14204D2814202D209011B01F8E748
S1130430E400A14204D2814202D249005B00F8E701
S1130440884201D3401A1A434C08A04202D3001B2D
S11304505C0822438C08A04202D3001B9C08224360
S1130460CC08A04202D3001BDC082243002803D09E
S11304701B0901D00909E3E7101C10BC70470028D0
S113048001D00020C04307B4024802A140180290E2
S113049003BDC046D90000000029F0D003B5FFF722
S11304A0B9FF0EBC4243891A1847C046002941D0FF
S11304B010B4041C4C40A44601230022002900D59A
S11304C04942002800D5404288422CD30124240705
S11304D0A14204D2814202D209011B01F8E7E400DF
S11304E0A14204D2814202D249005B00F8E788426B
S11304F001D3401A1A434C08A04202D3001B5C08E3
S113050022438C08A04202D3001B9C082243CC083F
S1130510A04202D3001BDC082243002803D01B099D
S113052001D00909E3E7101C6446002C00D54042C1
S113053010BC7047002806D003DB0020C0434008ED
S113054001E08020000607B4024802A1401802908E
S113055003BDC046190000000029EBD003B5FFF726
S1130560A7FF0EBC4243891A1847C0467047C046CD
S113057080B582B000AF786001F060FC642003F0C5
S113058031F9F9E780B582B000AF786001F074FC0E
S1130590692003F027F9F9E780B582B000AF7860ED
S11305A001F082FCD02003F01DF9F9E780B586B094
S11305B004AFBB1D00221A800DE001F03FFC01F0E6
S11305C05BFC01F071FCFA2002F0CAFDBB1DBA1DF0
S11305D0128801321A80BB1D1B88032BEDD900F051
S11305E0A9F8204A204B002100910021019100210B
S11305F0029100210391101C191CC822002303F04E
S113060027F8031C012B00D0FEE7184A184B0021E1
S11306100091002101910021029100210391101CFD
S1130620191CC822002303F013F8031C012B00D06B
S1130630FEE7104A104B0021009100210191002196
S1130640029100210391101C191CC822002302F0FE
S1130650FFFF031C012B00D0FEE703F0EDF8BD46BD
S113066002B080BD710500009C4B000085050000B0
S1130670A44B000099050000AC4B000080B500AF0E
S1130680BD4680BD80B582B000AF7860396050202F
S113069080F31188FEE7C04680B500AF01F034FE58
S11306A0BD4680BD80B500AFBD4680BD80B500AFFE
S11306B0502080F31188FEE780B500AF00F0CEFB38
S11306C0FFF774FF03F0B8F8FEE7C04680B584B0C6
S11306D000AFF860B9607A600023181CBD4604B00E
S11306E080BDC04680B58AB000AF78603B1C08333B
S11306F000221A7001F09CFA01F06EF9021C0B49F9
S11307000B4B081C111C1A1C01F00AF901F064F9C6
S1130710021C391C0831064B081C202101F064F925
S1130720052003F05FF801F0A7FBEFE7B44B0000EE
S1130730CD06000080B584B004AF0B490B4A0C4BC6
S113074001200090002001900020029000200390DE
S1130750081C111C1A1C002302F07AFF031C012B35
S113076000D0FEE7BD4680BDE5060000BC4B00009E
S11307702602000080B584B000AF7860182002F033
S113078007FD031CFB60FB6800225A80FB68002203
S11307901A81FB6800225A60FB6800225A81FB68B8
S11307A000221A82FB680022DA60FB687A685A61C8
S11307B0424BFA681A60424A4149424BCB58802165
S11307C0C90019433F4BD1503F4B3F4A5268111C5B
S11307D03E4A0A40802189000A435A603A4B3A4A09
S11307E09268111C394A0A40802189000A439A60A0
S11307F0374A3749C3239B00CB58FF218B438021C1
S11308001943C3239B00D150314B314A12688021D4
S113081049010A431A602F4B2E4AD278D2B20821DA
S11308208A43D2B2DA702B4B2A4AD278D2B204214C
S11308308A43D2B2DA70FB6800221A80254B002268
S11308409A70244B00229A71224B00229A72214BF7
S113085000225A711F4B1F4A1278D2B21F218A43B9
S1130860D2B21A701B4B1B225A701A4B194AD278F7
S1130870D2B2D2B208210A43D2B2D2B2DA70154B44
S1130880144AD278D2B2D2B204210A43D2B2D2B23A
S1130890DA70104B0F4AD278D2B220210A43D2B276
S11308A0DA700C4B0B4A9279D2B29A710A4BFA68FD
S11308B01A61FB68181CBD4604B080BD10000020FE
S11308C0007004403410000000900440FFF8FFFE64
S11308D000E100E000A006402000002080B586B0C2
S11308E000AFF860B960BB1D1A80FB687B61BB1D5B
S11308F01B88002B01D1842314E07B691B89002B06
S113090001D008230EE002F025FE7B69BA685A6024
S11309107B69BA1D12881A817B6900225A8002F011
S113092027FE0023181CBD4606B080BD80B586B0E6
S113093000AFF860B960BB1D1A80FB687B61BB1D0A
S11309401B88002B01D1842329E07B691B8A002B9F
S113095001D0082323E002F0FDFD7B69BA68DA6068
S11309607B69BA1D12881A827B6900225A817B69CD
S11309701B88012213439AB27B691A800A4B0A4AE4
S1130980D278D2B2802149420A43D2B2DA70064BFD
S1130990054A9279D2B29A7102F0EAFD0023181C3A
S11309A0BD4606B080BDC04600A0064090B583B0E9
S11309B000AF7860124BDB79DBB21C1C7B681B89AF
S11309C0002B1AD07B685B68E2B21A705A1C7B68F1
S11309D05A607B685B8801339AB27B685A807B6873
S11309E05A887B681B899A4207D17B6800221A8146
S11309F07B685B69181C01F039F9BD4603B090BDF2
S1130A0000A0064080B582B000AF78607B685A8948
S1130A107B681B8A9A421CD2194A7B68DB68197866
S1130A20D1715A1C7B68DA607B685B8901339AB2A6
S1130A307B685A817B685A897B681B8A9A421CD1DD
S1130A407B6800221A827B685B69181C01F026F916
S1130A5013E00B4B0A4AD278D1B27F220A40D2B2B9
S1130A60DA70074B064A9279D2B29A717B681B8876
S1130A70012293439AB27B681A80BD4602B080BDBE
S1130A8000A0064090B583B000AF164B1B687B6096
S1130A90154B1B79DBB21C1C221C0F23134006D000
S1130AA0114BDB792023221C9A43131C9CB2221C79
S1130AB02023134003D07B68181CFFF777FF7B6863
S1130AC01B881A1C01231340DBB2002B07D0221C05
S1130AD08023134003D07B68181CFFF793FFBD46A7
S1130AE003B090BD1000002000A0064080B500AF08
S1130AF0FFF7C4FDBD4680BD80B500AFFFBEBD4657
S1130B0080BDC04680B500AFFFBEBD4680BDC046B7
S1130B1080B500AFFFBEBD4680BDC04680B500AF06
S1130B20FFBEBD4680BDC04680B500AFFFBEBD461A
S1130B3080BDC04680B500AFFFBEBD4680BDC04687
S1130B4080B500AFFFBEBD4680BDC04680B500AFD6
S1130B50FFBEBD4680BDC04680B500AFFFBEBD46EA
S1130B6080BDC04680B500AFFFBEBD4680BDC04657
S1130B7080B500AFFFBEBD4680BDC04680B500AFA6
S1130B80FFBEBD4680BDC04680B500AFFFBEBD46BA
S1130B9080BDC04680B500AFFFBEBD4680BDC04627
S1130BA080B500AFFFBEBD4680BDC04680B500AF76
S1130BB0FFBEBD4680BDC04680B500AFFFBEBD468A
S1130BC080BDC04680B500AFFFBEBD4680BDC046F7
S1130BD080B500AFFFBEBD4680BDC04680B500AF46
S1130BE0FFBEBD4680BDC04680B500AFFFBEBD465A
S1130BF080BDC04680B500AFFFBEBD4680BDC046C7
S1130C0080B500AFFFBEBD4680BDC04680B500AF15
S1130C10FFBEBD4680BDC04680B500AFFFBEBD4629
S1130C2080BDC04680B500AFFFBEBD4680BDC04696
S1130C3080B500AFFFBEBD4680BDC04680B500AFE5
S1130C40FFBEBD4680BDC04680B500AFFFBEBD46F9
S1130C5080BDC04680B500AFFFBEBD4680BDC04666
S1130C6080B500AFFFBEBD4680BDC04680B500AFB5
S1130C70FFBEBD4680BDC04680B500AFFFBEBD46C9
S1130C8080BDC04680B500AFFFBEBD4680BDC04636
S1130C9080B500AFFFBEBD4680BDC04680B500AF85
S1130CA0FFBEBD4680BDC04680B500AFFFBEBD4699
S1130CB080BDC04680B500AFFFBEBD4680BDC04606
S1130CC080B500AFFFBEBD4680BDC04680B500AF55
S1130CD0FFBEBD4680BDC04680B500AF524A5349F1
S1130CE0534BD150534A88235B010021D150514AC0
S1130CF05049514BCB58B021490119434E4BD15067
S1130D004C4A4C494C4BCB58012119434A4BD150C6
S1130D10484A4A4B8021C905D150464A4549484B67
S1130D20CB58802149021943454BD150414B414A8C
S1130D301268111C434A0A401A603E4A3D49404B1E
S1130D40CB58191C404B0B408021490419433C4BA0
S1130D50D1503E4B3D4A926C111C3D4A0A409A6464
S1130D603A4B3A4AD26C111C394A0A40DA64394B7C
S1130D7080221A70384B24225A70374B9A221A70E8
S1130D80354B354AD278D1B21F220A40D2B2DA703A
S1130D90C046314B9B79DBB21A1C10231340F8D1A7
S1130DA0C0462D4B9B79DBB21A1C0C231340082B35
S1130DB0F7D1284B80221A70274B9A221A70264B9F
S1130DC024225A70244B01221A71234B41225A7156
S1130DD0C046214B9B79DBB21A1C0C231340082B11
S1130DE0F7D1C0461C4B9B79DBB21A1C402313403D
S1130DF0F8D0184B80221A70174B1A221A70164B0F
S1130E0024225A70144B01221A71134B41225A7135
S1130E10C046114B9B79DBB21A1C0C2313400C2BDC
S1130E20F7D1BD4680BDC04600E000E000000000F0
S1130E30080D000000700440381000004410000049
S1130E4004100000FFFFF3FFFFFFFFFC00900440CD
S1130E50FFF8FFFE005006400040064080B500AF9A
S1130E60354B354A1269111C344A0A40E021C90045
S1130E700A431A61324B324A5279D2B21F218A4351
S1130E80D2B25A712E4B2E4A1279D2B207218A431A
S1130E90D2B21A712B4B2B4A1278D2B2D2B273212E
S1130EA08A43D2B250210A43D2B2D2B21A70254B2D
S1130EB0244A5278D2B2D2B263218A43D2B24021B8
S1130EC00A43D2B2D2B25A701E4B1E4A9278D2B2A0
S1130ED019218A43D2B29A701B4B00221A701B4A02
S1130EE01A491B4BCB58191C1A4B0B408021C904BF
S1130EF01943174BD150104B0F4A126D111C0F4A56
S1130F000A40E021C9000A431A65134A1249C12361
S1130F109B00CB58191C114B1940C1239B00D15085
S1130F2000F096FF00F0B2FF00F0C6FF01F066FB90
S1130F3001F076F9BD4680BD00900440FFF8FFFE45
S1130F4000F0074000D0074000E007400070044074
S1130F5004100000FFFFFFF300E100E0FFFF00FFCB
S1130F6002F022FB80B582B000AF7860034B1B68AF
S1130F705A1C024B1A60BD4602B080BD9C21002061
S1130F8080B586B002AF78600A1CBB1C1A803B1C7B
S1130F900C33181C01F0F6FA031C01D01B2337E0B4
S1130FA0BB1C1A883B1C0C33DB7879680220009048
S1130FB0081C111C1A1C302301F0EAFDBB1C1B8801
S1130FC07A68101C191C2E2201F080FBBB1C1A88A5
S1130FD03B1C0C339B78796802200090081C111C80
S1130FE01A1C302301F0D4FDBB1C1B887A68101C2A
S1130FF0191C2E2201F06AFBBB1C1A883B1C0C3303
S11310001B887968081C111C1A1C01F0A5FD00231B
S1131010181CBD4604B080BD80B586B002AF7860B0
S11310200A1CBB1C1A803B1C0C33181C01F0C6F9AB
S1131030031C01D01B2354E0BB1C1A883B1C0C333B
S11310401B7879681BB202200090081C111C1A1C22
S1131050302301F0C1FDBB1C1B887A68101C191CCD
S11310603A2201F033FBBB1C1A883B1C0C335B781F
S113107079681BB202200090081C111C1A1C302332
S113108001F0AAFDBB1C1B887A68101C191C3A22AB
S113109001F01CFBBB1C1A883B1C0C339B78796841
S11310A01BB202200090081C111C1A1C302301F0F2
S11310B093FDBB1C1B887A68101C191C2C2201F0A0
S11310C005FBBB1C1A883B1C0C33DB7879681BB20C
S11310D002200090081C111C1A1C302301F07CFD16
S11310E00023181CBD4604B080BDC04680B582B044
S11310F000AF7860396007E07B681A787B68013359
S11311007B603B68101C98477B681B78002BF3D1ED
S1131110BD4602B080BDC04680B58CB000AF7860DB
S113112039603B1C2F3300221A707B6804337B62C6
S11311307B6A1B78202B40D1381C2430391C2E317B
S11311403A1C2D323B1C2A3301F01CFE031C1BD11C
S11311503B1C2A3319883B1C2D331A783B1C2E3335
S11311601B78081C111C1A1C01F092F9031C24D0D2
S11311703B689B682D4A101C191CFFF7B7FF3B1CEA
S11311802F331B221A7018E03B689B68284A101CF6
S1131190191CFFF7ABFF3B689B687A68101C191C8D
S11311A0FFF7A4FF3B689B68224A101C191CFFF739
S11311B09DFF3B1C2F331B221A703B1C2F331B78C3
S11311C0002B2BD13A1C0C321B4B101C17211A1C60
S11311D001F026FA3B1C0C33181C1721FFF7D0FE34
S11311E0031C0BD03B689B68144A101C191CFFF7A6
S11311F07DFF3B1C2F331B221A700FE03A1C0C326C
S11312000C4B101C17211A1C01F02EFA3B685B686A
S11312103A1C0C32101C191CFFF768FF3B1C2F33BF
S11312201B78181CBD460CB080BDC046C44B0000E2
S1131230DC4B0000044C0000084C0000144C00007F
S113124090B58FB002AF786039603B1C2F33002219
S11312501A707B6804337B627B6A1B78202B43D132
S1131260381C2430391C2E313A1C2D323B1C2C33B3
S11312703C1C2B34009401F003FE031C1BD13B1CCB
S11312802E3318783B1C2D3319783B1C2C331A78D9
S11312903B1C2B331B7800F0D7FF031C24D03B6886
S11312A09B682D4A101C191CFFF720FF3B1C2F3391
S11312B01B221A7018E03B689B68284A101C191CF2
S11312C0FFF714FF3B689B687A68101C191CFFF732
S11312D00DFF3B689B68224A101C191CFFF706FF90
S11312E03B1C2F331B221A703B1C2F331B78002B03
S11312F02BD13A1C0C321B4B101C18211A1C01F068
S11313008FF93B1C0C33181C1821FFF785FE031CB6
S11313100BD03B689B68144A101C191CFFF7E6FEAF
S11313203B1C2F331B221A700FE03A1C0C320C4B5F
S1131330101C18211A1C01F097F93B685B683A1CD1
S11313400C32101C191CFFF7D1FE3B1C2F331B78E9
S1131350181CBD460DB090BD344C0000544C000028
S1131360044C0000784C0000844C000080B584B02C
S113137000AFF860B9607A60FA68544B101C191C0D
S113138002F0F9FF031C07D0FA68514B101C191C1A
S113139002F0F1FF031C52D17B685B684D4A101CBC
S11313A0191CFFF7A3FE7B685B684B4A101C191CD1
S11313B0FFF79CFE7B685B68484A101C191CFFF70A
S11313C095FE7B685B68444A101C191CFFF78EFE6F
S11313D07B685B683F4A101C191CFFF787FE7B681B
S11313E05B683D4A101C191CFFF780FE7B685B6834
S11313F03B493C4A081C111C1A1C00F0B1FB7B68D9
S11314005B683949394A081C111C1A1C00F0A8FBF6
S11314107B685B683649374A081C111C1A1C00F0AB
S11314209FFB7B685B683449344A081C111C1A1CF6
S113143000F096FBBB6801221A70002341E0FA68B1
S11314402F4B101C191C02F096FF031C07D0FA68DE
S11314502C4B101C191C02F08EFF031C08D1BB6816
S113146001221A707B68181C00F0A2F8031C28E003
S1131470FA68254B101C191C042202F094FF031C6B
S11314800AD1BB6801221A70FA687B68101C191C07
S1131490FFF742FE031C14E0FA681C4B101C191CD5
S11314A0042202F080FF031C0AD1BB6801221A70D7
S11314B0FA687B68101C191CFFF7C2FE031C00E0CD
S11314C00023181CBD4604B080BDC046A44C0000D7
S11314D0AC4C0000B84C0000044C0000F84C000078
S11314E00C4D0000144D0000304D0000404D000034
S11314F0644D00007C4D0000BC4D0000D04D000048
S1131500104E0000184E0000284E0000304E00001F
S113151080B582B000AF78607B685B68034A101CBA
S1131520191CFFF7E3FDBD4602B080BD384E000034
S113153080B586B000AFF860B9607A607B68DB681C
S11315409847031C2FD000E0C0463B1C17330022F1
S11315501A707B681B683A1C1732101C98473B1C96
S113156017331A78FB681A703B1C17331B78002B4F
S113157013D0FB680133FB60BB68013BBB603B1CC1
S113158017331B780D2B09D03B1C17331B780A2B00
S113159004D0BB68012BD7D800E0C046FB6800220A
S11315A01A70012300E00023181CBD4606B080BD5C
S11315B080B58AB000AF78603B1C273300221A70D4
S11315C07B685B68A64A101C191CFFF78FFD7B68BB
S11315D05B68A44A101C191CFFF788FD7B685B68D4
S11315E09F4A101C191CFFF781FD7B685B689E4AAB
S11315F0101C191CFFF77AFD7B685B689B4A101C62
S1131600191CFFF773FD7B685B68954A101C191C55
S1131610FFF76CFD02F0E0F9021C131C9B009B1801
S1131620DB003B623B6A181C01F0B2FD031CFB614A
S1131630FB69002B10D0FA693B6A101C191C02F0DC
S1131640D5F97B685B68FA69101C191CFFF74EFD1D
S1131650FB69181C01F048FE7B685B68804A101C1B
S1131660191CFFF743FD7B685B68814A101C191C39
S1131670FFF73CFD7B685B68794A101C191CFFF777
S113168035FD02F0A9F9021C131C9B009B18DB001A
S11316903B623B6A181C01F07BFD031CFB61FB6988
S11316A0002B10D0FA693B6A101C191C02F00EFAC8
S11316B07B685B68FA69101C191CFFF717FDFB694E
S11316C0181C01F011FE7B685B686A496A4A081CB1
S11316D0111C1A1C00F058FA3B1C0C33181C102166
S11316E0642201F0B7F87B685B683A1C0C32101C6A
S11316F0191CFFF7FBFC7B685B68604A101C191C13
S1131700FFF7F4FC3B1C0C33181C10210A2201F0D7
S1131710A1F87B685B683A1C0C32101C191CFFF79B
S1131720E5FC7B685B68564A101C191CFFF7DEFC5D
S11317307B685B685349504A081C111C1A1C00F052
S113174023FA01F00DFE031C3A1C0C32101C10216C
S11317501A1C01F081FA7B685B683A1C0C32101C7D
S1131760191CFFF7C3FC7B685B68474A101C191CF3
S1131770FFF7BCFC7B685B684449454A081C111CA4
S11317801A1C00F001FA7B685B68424A101C191CA1
S1131790FFF7ACFC7B685B683F4A101C191CFFF721
S11317A0A5FC7B685B68304A101C191CFFF79EFC83
S11317B07B685B683949304A081C111C1A1C00F00C
S11317C0E3F93B1C0C3300221A703B1C0C33181C2D
S11317D01021FFF7D5FB031C0BD07B689B68304AB4
S11317E0101C191CFFF782FC3B1C27331B221A70A8
S11317F007E07B685B683A1C0C32101C191CFFF76D
S113180075FC3A1C0C32234B101C10211A1C00F0DE
S113181007FF3B1C0C33181C1021FFF7FDFB031CB6
S113182007D07B689B681F4A101C191CFFF75EFCDD
S113183007E07B685B683A1C0C32101C191CFFF72C
S113184055FC7B685B68084A101C191CFFF74EFCAA
S11318503B1C27331B78181CBD460AB080BDC0460C
S1131860B84C0000404E0000044C0000544E0000F0
S1131870804E0000B44E0000C04E0000C44E000074
S1131880CC4E0000D44E0000E04E0000EC4E0000B0
S1131890F84E0000044F0000084F0000144F0000F1
S11318A01C4F00003C4F000080B582B000AF786050
S11318B039603B689B68154A101C191CFFF716FC1D
S11318C03B689B687A68101C191CFFF70FFC3B6887
S11318D09B680F4A101C191CFFF708FC3B689B68A7
S11318E00C4A101C191CFFF701FC3B689B680A4A50
S11318F0101C191CFFF7FAFB3B689B68074A101C75
S1131900191CFFF7F3FBBD4602B080BD5C4F00001D
S1131910044C00007C4F0000A44C0000884F0000E1
S113192080B586B000AFF860B9607A603B1C1733AD
S113193000221A70FB681B78002B01D1002346E0BB
S11319403B1C153300221A70FB681A783B1C1633B3
S1131950233A51424A411A703B1C16331B78002B20
S113196002D0FB680133FB60F9683A1C1532BB688E
S1131970081C111C1A1CFFF7F9FC031C01D01B23C3
S113198025E07B68002B07D0F868391C1531BA684C
S11319907B689847031C04D13B1C15331B78002B30
S11319A009D1FA68BB68101C191CFFF77DFF3B1CAA
S11319B017331B221A703B1C16331B78002B03D1E0
S11319C0BB68181CFFF7A4FD3B1C17331B78181CBD
S11319D0BD4606B080BDC04680B500AF014B181CA3
S11319E0BD4680BDD84F000090B587B000AFF86009
S11319F0B9607A603B603B1C173300221A70FB68A5
S1131A00181C02F0C6FC031C3B61FA683B69D11840
S1131A10BA683B69D21A7B68081C111C1A1CFFF7B0
S1131A2087FD031C54D0FB68181C02F0B2FC031C95
S1131A303B613B69002B01D11B234CE03B69012B2B
S1131A400AD1FB681B780D2B03D0FB681B780D2B88
S1131A5002D1FB6800221A70BB685A1E3B699A4285
S1131A6013D83C1C1734F9687A683B68081C111CAD
S1131A701A1CFFF755FF031C2370FB6800221A7021
S1131A803B1C173304221A7022E03B69013BFA68BD
S1131A90D3181B780A2B06D03B69013BFA68D3188C
S1131AA01B780D2B14D13B69013BFA68D318002233
S1131AB01A703C1C1734F9687A683B68081C111CBE
S1131AC01A1CFFF72DFF031C2370FB6800221A70F9
S1131AD03B1C17331B78181CBD4607B090BDC0468D
S1131AE080B584B000AFF860B960111C1A1CFB1DEE
S1131AF01970BB1D1A700CE0FB681A78FB6801337F
S1131B00FB60BB69101C9847BB1DBA1D1278013AD3
S1131B101A70FB681B78002B0CD0BB1D1B78002BA4
S1131B20EAD107E0BB6920209847BB1DBA1D127893
S1131B30013A1A70BB1D1B78002BF3D1FB1D1A78D8
S1131B40BB69101C9847BB6920209847BA68BB69D9
S1131B50101C191CFFF7CAFABD4604B080BDC0466C
S1131B6080B586B002AFF860B9607A60FA68BB6885
S1131B7079680091101C191C3B221A23FFF7B0FF4F
S1131B80BD4604B080BDC04680B586B002AFF860E3
S1131B90B9607A60FA68BB6879680091101C191CF6
S1131BA03A220D23FFF79CFFBD4604B080BDC0461A
S1131BB080B582B000AF78607B68181C00F0C6FA6C
S1131BC0BD4602B080BDC04680B582B000AF021CE5
S1131BD0FB1D1A700B4B00221A70C0460A4B1A6880
S1131BE0FB1D101C191C0122FEF7A0FE031CF5D1DD
S1131BF0C046044B1B78DBB2002BFAD0BD4602B0C2
S1131C0080BDC0461D0000201800002080B582B0B1
S1131C1000AF00F0FBFA031C1A1CFB1D511E8A4185
S1131C201A70FB1D1B78181CBD4602B080BDC0464F
S1131C3080B500AF0020FEF79DFD021C094B1A6021
S1131C4000F0EEFA084B00221A70C046054B1A68E1
S1131C50054B101C191C0122FEF740FE031CF5D194
S1131C60BD4680BD180000201C00002080B582B055
S1131C7000AF7860074B1B78181C00F005FA064B80
S1131C801A68044B101C191C0122FEF727FEBD46DE
S1131C9002B080BD1C0000201800002080B582B076
S1131CA000AF7860024B01221A70BD4602B080BDBD
S1131CB01D00002080B500AFBD4680BD80B500AFDB
S1131CC0BD4680BD80B584B000AF7860042001F0CB
S1131CD05FFA031CFB60FB687A681A60144B144AB1
S1131CE01268111C134A0A401A60114B104A5269B7
S1131CF0C02109030A435A610F4B0F4A926C111C0D
S1131D000E4A0A40802149000A439A640A4B0A4A4F
S1131D10D26C111C094A0A40802149000A43DA6442
S1131D20074BFA681A60FB68181CBD4604B080BDF6
S1131D3040F00F40FFFFF3FF00A00440FFF8FFFE58
S1131D402000002080B582B000AF78603960044B79
S1131D503968C02212030A405A60BD4602B080BDF1
S1131D6040F00FF880B582B000AF78603960044B62
S1131D703968C02212030A40DA60BD4602B080BD51
S1131D8040F00FF880B584B000AF7860042001F013
S1131D90FFF9031CFB60FB687A681A600E4B0E4A5D
S1131DA0126802218A431A600B4B0B4A52690221C2
S1131DB00A435A61094B094A5268111C084A0A40ED
S1131DC0802149000A435A60064BFA685A60FB684E
S1131DD0181CBD4604B080BDC0F00F4000C00440D4
S1131DE0FFF8FFFE2000002080B582B000AF7860CD
S1131DF03960044B396802220A405A60BD4602B079
S1131E0080BDC046C0F00FF880B582B000AF7860E6
S1131E103960044B396802220A40DA60BD4602B0D8
S1131E2080BDC046C0F00FF880B500AF8023DB0250
S1131E300020191CFFF786FFBD4680BD80B500AFAA
S1131E408023DB020020191CFFF78CFFBD4680BDF8
S1131E5080B500AF0020FFF735FFFFF7E5FFBD4673
S1131E6080BDC04680B500AF80231B030020191C31
S1131E70FFF768FFBD4680BD80B500AF80231B031C
S1131E800020191CFFF76EFFBD4680BD80B500AF72
S1131E90FFF7E8FFBD4680BD80B500AF00200221FA
S1131EA0FFF7A2FFBD4680BD80B500AF0020022130
S1131EB0FFF7AAFFBD4680BD80B500AF0020FFF745
S1131EC061FFFFF7E9FFBD4680BDC04680B584B021
S1131ED000AF7860042001F05BF9031CFB60FB6831
S1131EE07A681A60184BFA681A60184A1749184B2E
S1131EF0CB5801211943164BD150164B80221A603E
S1131F00144B00229A60134B63225A60124A1249FE
S1131F10C7239B00CB58FF218B4380211943C72340
S1131F209B00D1500C4B0C4A1268802149050A438E
S1131F301A60084B41221A60084BFA689A60FB68E1
S1131F40181CBD4604B080BD34000020007004405D
S1131F50381000000000044000E100E020000020F0
S1131F6080B582B000AF7860064B064A12688121C2
S1131F708A4301210A431A600023181CBD4602B09B
S1131F8080BDC0460000044080B582B000AF084B5D
S1131F901B687B60074B074A126880210A431A605A
S1131FA07B681B68181CFEF7DDFFBD4602B080BDD0
S1131FB0340000200000044080B584B000AF786095
S1131FC0042001F0E5F8031CFB60FB687A681A60E2
S1131FD0114BFA681A60114B00221A600F4B104A19
S1131FE05A600E4B00229A600E4A0E49D2231B01FE
S1131FF0CB581B021B0A802189051943D2231B01DC
S1132000D150064B07221A60074BFA68DA60FB6866
S1132010181CBD4604B080BD3800002010E000E06C
S11320203F0D030000E000E02000002080B582B0F6
S113203000AF7860054B054A126801210A431A6013
S11320400023181CBD4602B080BDC04610E000E06D
S113205080B582B000AF094B1B687B60084B084A0F
S11320601268111C074A0A401A607B681B68181C16
S1132070FEF776FFBD4602B080BDC04638000020A2
S113208010E000E0FFFFFEFF80B584B000AF021C4B
S1132090FB1D1A703B1C0F3300221A70264B1B7851
S11320A0DBB20133DBB2244A191C1170012B04D1B9
S11320B0224BEFF3108072B61870214B1B78202B43
S11320C004D13B1C0F330B221A7018E01D4B1B78F4
S11320D01D4AF91D0978D154194B1B780133DAB222
S11320E0174B1A70174B1B780133DAB2154B1A7061
S11320F0144B1B78202B02D1124B00221A700E4B6A
S11321001B78DBB2013BDBB20B4A191C1170002BAC
S113211003D10A4B187880F310883B1C0F331B78CB
S11321200B2B01D1FFF7C6FD3B1C0F331B78181C8A
S1132130BD4604B080BDC046140000209821002094
S11321405E0000205C0000203C00002080B584B0CC
S113215000AF78603B1C0F3300221A70264B1B78AB
S1132160DBB20133DBB2244A191C1170012B04D1F8
S1132170224BEFF3108072B61870214B1B78002BA2
S113218004D13B1C0F330A221A7018E01D4B1B7834
S11321901D4AD25C7B681A70194B1B78013BDAB27A
S11321A0174B1A70174B1B780133DAB2154B1A70A0
S11321B0144B1B78202B02D1124B00221A700E4BA9
S11321C01B78DBB2013BDBB20B4A191C1170002BEC
S11321D003D10A4B187880F310883B1C0F331B780B
S11321E00A2B01D1FFF76AFD3B1C0F331B78181C27
S11321F0BD4604B080BDC0461400002098210020D4
S11322005E0000205D0000203C00002080B500AF8F
S1132210024B1B78181CBD4680BDC0465E000020E2
S113222080B500AF054B00221A70054B00221A70CE
S1132230044B00221A70BD4680BDC0465C000020DD
S11322405D0000205E00002090B583B000AF041C48
S1132250081C111C1A1CFB1D1C70BB1D18707B1D57
S113226019703B1D1A703B1D1B78632B0BD87B1D0B
S11322701B783B2B07D8BB1D1B783B2B03D8FB1DBE
S11322801B78172B01D9022330E01A4B1B78DBB2E1
S11322900133DBB2174A191C1170012B04D1164B00
S11322A0EFF3108072B61870FB1D1B78134A5A4363
S11322B0BB1D1B7812494B43D2187B1D1B7864212C
S11322C04B43D2183B1D1B78D2180E4B1A60094B96
S11322D01B78DBB2013BDBB2064A191C1170002BE0
S11322E003D1054B187880F310880023181CBD46D1
S11322F003B090BD1400002098210020407E05000A
S1132300701700006400002080B582B000AF234B3A
S11323101B685A1C214B1A60204B1A68204B9A42A6
S113232038D91E4B1B681F495A181C4B1A601E4B88
S11323301B780133DAB21C4B1A701C4B1B881A1C15
S11323400323134002D01A4B7B6001E0194B7B60DE
S11323507B68013B7B60184B1B787A68D3181A782A
S1132360114B1B789A4215D20F4B01221A70124B53
S11323701B780133DAB2104B1A700F4B1B780C2BFD
S113238008D90D4B01221A70084B1B8801339AB2ED
S1132390064B1A80BD4602B080BDC04664000020D2
S11323A0FFD58300002A7CFF5F000020620000202C
S11323B0E84F0000F44F00006000002080B584B0B6
S11323C000AF78602F4B1B78DBB20133DBB22D4AB0
S11323D0191C1170012B04D12B4BEFF3108072B632
S11323E018702A4B1B68FB60264B1B78DBB2013B41
S11323F0DBB2244A191C1170002B03D1224B18782C
S113240080F31088FB68181C6421FEF745F80B1C48
S1132410DAB27B68DA70FB68181C6421FDF7F8FFF8
S1132420031CFB60FB68181C3C21FEF735F80B1CF1
S1132430DAB27B689A70FB68181C3C21FDF7E8FF50
S1132440031C1A1C3B1C0A331A803B1C0A331B88CE
S1132450181C3C21FEF720F80B1C9BB2DAB27B68F7
S11324605A703B1C0A331B88181C3C21FDF7D0FF13
S1132470031C9BB2DAB27B681A700023181CBD4699
S113248004B080BD140000209821002064000020C6
S113249080B584B000AFBB1D18807B1D19703B1D37
S11324A01A70BB1D1A882E4B9A4214D9BB1D1A8868
S11324B02C4B9A420FD87B1D1B780C2B0BD87B1D01
S11324C01B78002B07D03B1D1B781F2B03D83B1D0B
S11324D01B78002B01D102233EE0BB1D1A88032385
S11324E0134001D0204B00E0204BFB607B1D1B7888
S11324F0013BFA68D3181B783A1D12789A4201D925
S1132500022329E01A4B1B78DBB20133DBB2184AF1
S1132510191C1170012B04D1164BEFF3108072B605
S11325201870154B3A1D12781A70144B7A1D1278D4
S11325301A70134BBA1D12881A800D4B1B78DBB22C
S1132540013BDBB20A4A191C1170002B03D1094B61
S1132550187880F310880023181CBD4604B080BD91
S1132560CD07000033080000E84F0000F44F0000DE
S113257014000020982100205F000020600000204B
S11325806200002080B582B000AF7860164B1B78E3
S1132590DBB20133DBB2144A191C1170012B04D1D4
S11325A0124BEFF3108072B61870114B1A887B68C7
S11325B01A80104B1A787B689A700F4B1A787B68D4
S11325C0DA70094B1B78DBB2013BDBB2064A191CFB
S11325D01170002B03D1054B187880F31088002369
S11325E0181CBD4602B080BD1400002098210020B4
S11325F062000020600000205F00002080B500AF72
S1132600112033211F220023FFF71EFE034B181C49
S113261007211622FFF73CFFBD4680BDDC07000002
S113262080B584B000AFF860B9607A60BB68013BE4
S1132630BB600CE07B681A78FB681A70FB68013396
S1132640FB607B6801337B60BB68013BBB60BB689C
S1132650002B03D07B681B78002BEBD1FB68002296
S11326601A70BD4604B080BD80B584B000AFF86078
S1132670B9607A60BB68013BBB6005E0FB6801336D
S1132680FB60BB68013BBB60BB68002B11D0FB68DF
S11326901B78002BF2D10CE07B681A78FB681A7067
S11326A0FB680133FB607B6801337B60BB68013BE3
S11326B0BB60BB68002B03D07B681B78002BEBD17D
S11326C0FB6800221A70BD4604B080BD80B584B09A
S11326D000AFF860B960FB1D1A70BB68013BBB60BA
S11326E005E0FB680133FB60BB68013BBB60BB6872
S11326F0002B03D0FB681B78002BF2D1BB68002BA6
S113270006D0FB68FA1D12781A70FB680133FB606F
S1132710FB6800221A70BD4604B080BD90B589B034
S113272000AFF860B960BB1D1A80FB68BB613B1C3D
S11327301F3300221A70BB68013BBB60BB1D1B88A2
S1132740002B38D1BB68002B35D03B1C1F331B78C2
S1132750BA69D31830221A703B1C1F333A1C1F323B
S1132760127801321A70BB68013BBB6023E03B1C4A
S11327701F331B78BA69D418BB1D1B88181C0A2187
S1132780FDF78AFE0B1C9BB2DBB23033DBB2237045
S11327903B1C1F333A1C1F32127801321A70BB687B
S11327A0013BBB60BC1DBB1D1B88181C0A21FDF727
S11327B02FFE031C2380BB1D1B88002B02D0BB688B
S11327C0002BD4D13B1C1E3300221A702EE03B1C7C
S11327D01E331B78BA69D2183B1C173312781A704F
S11327E03B1C1E331B78BA69D3183A1C1F3211786C
S11327F03A1C1E3212788A1A013AB9698A18127878
S11328001A703B1C1F331A783B1C1E331B78D31AD7
S1132810013BBA69D3183A1C173212781A703B1C60
S11328201E333A1C1E32127801321A703B1C1F33BD
S11328301B785B08DBB23A1C1E3212789A42C6D36C
S11328403B1C1F331B78BA69D31800221A70BD468B
S113285009B090BD90B589B000AFF860B960BB1DF8
S11328601A80FB68BB613B1C1F3300221A703B1C9F
S11328701733BA1D1288D20B1A70BB68013BBB60B8
S11328803B1C17331B78002B05D0BB1D1B885B42F8
S11328909AB2BB1D1A80BB1D00229B5E002B3AD14D
S11328A0BB68002B37D03B1C1F331B78BA69D31885
S11328B030221A703B1C1F333A1C1F32127801322B
S11328C01A70BB68013BBB6025E03B1C1F331B78BF
S11328D0BA69D418BB1D00229B5E181C0A21FDF79F
S11328E03BFE0B1C9BB2DBB23033DBB223703B1CD0
S11328F01F333A1C1F32127801321A70BB68013B35
S1132900BB60BC1DBB1D00229B5E181C0A21FDF789
S1132910CDFD031C2380BB1D00229B5E002B02DD2A
S1132920BB68002BD1D13B1C17331B78002B13D071
S1132930BB68002B10D03B1C1F331B78BA69D3181B
S11329402D221A703B1C1F333A1C1F32127801329D
S11329501A70BB68013BBB603B1C1E3300221A701B
S11329602EE03B1C1E331B78BA69D2183B1C16336D
S113297012781A703B1C1E331B78BA69D3183A1CA0
S11329801F3211783A1C1E3212788A1A013AB96938
S11329908A1812781A703B1C1F331A783B1C1E339A
S11329A01B78D31A013BBA69D3183A1C1632127831
S11329B01A703B1C1E333A1C1E32127801321A70F4
S11329C03B1C1F331B785B08DBB23A1C1E321278A7
S11329D09A42C6D33B1C1F331B78BA69D318002212
S11329E01A70BD4609B090BD80B584B000AF786060
S11329F0FB1C1970BB1C1A703B1C0E3300221A708E
S1132A0006E03B1C0E333A1C0E32127801321A7067
S1132A103B1C0E331B785BB27A68D3181B78002BEF
S1132A20EFD13B1C0F33BA1C12781A703A1C0F32C8
S1132A303B1C0E33127852B21B785BB29A4241D0DF
S1132A403A1C0F323B1C0E33127852B21B785BB225
S1132A509A4237DD1BE03B1C0F331B785BB27A686C
S1132A60D3183A1C0E32127852B279688A18127846
S1132A701A703B1C0F333A1C0F321278013A1A7049
S1132A803B1C0E333A1C0E321278013A1A703B1C6E
S1132A900E331B787F2BDED90FE03B1C0F331B78E2
S1132AA05BB27A68D318FA1C12781A703B1C0F3385
S1132AB03A1C0F321278013A1A703B1C0F331B7800
S1132AC07F2BEAD9BD4604B080BDC04680B584B032
S1132AD000AFF860B960111C1A1CBB1D19807B1D66
S1132AE01A70F968BA68BB1D00201B5E081C111C13
S1132AF01A1CFFF7AFFEF9687B1D1A783B1C1833CC
S1132B001B78081C111C1A1CFFF76EFFBD4604B08D
S1132B1080BDC04680B584B000AFF860B960111CB8
S1132B201A1CBB1D19807B1D1A70F968BA68BB1D7D
S1132B301B88081C111C1A1CFFF7F0FDF9687B1D8B
S1132B401A783B1C18331B78081C111C1A1CFFF73D
S1132B504BFFBD4604B080BD80B586B000AFF860C1
S1132B60B960BB1D1A803A1C1032BB1D1B88101C97
S1132B7006211A1CFFF7D2FDF968BA683B1C103312
S1132B80081C111C1A1CFFF76FFDBD4606B080BD62
S1132B9090B589B002AFF860B960111C1A1CBB1D56
S1132BA019807B1D1A70381C1030B968BB1D1A8837
S1132BB07B1D1B783C1C283424780094FFF7AAFF63
S1132BC0F968BA683B1C1033081C111C1A1CFFF767
S1132BD04BFDBD4607B090BD90B589B002AFF8601B
S1132BE0B960111C1A1CBB1D19807B1D1A70381C7E
S1132BF01030B968BB1D00241A5F7B1D1B783C1C78
S1132C00283424780094FFF761FFF968BA683B1C04
S1132C101033081C111C1A1CFFF726FDBD4607B013
S1132C2090BDC04680B588B000AFF860B9607A60E6
S1132C303A1C14327B68101C0B211A1C00F00CF88F
S1132C40F968BA683B1C1433081C111C1A1CFFF7E2
S1132C500BFDBD4608B080BD90B589B000AFF860EB
S1132C60B9607A60FB68BB613B1C1F3300221A7099
S1132C70BB68013BBB607B68002B34D1BB68002B75
S1132C8031D03B1C1F331B78BA69D31830221A7019
S1132C903B1C1F333A1C1F32127801321A70BB6876
S1132CA0013BBB601FE03B1C1F331B78BA69D4187F
S1132CB07B68181C0A21FDF7EFFB0B1CDBB23033D9
S1132CC0DBB223703B1C1F333A1C1F3212780132D3
S1132CD01A70BB68013BBB607B68181C0A21FDF7B6
S1132CE097FB031C7B607B68002B02D0BB68002B26
S1132CF0D9D13B1C1E3300221A702EE03B1C1E331C
S1132D001B78BA69D2183B1C173312781A703B1C13
S1132D101E331B78BA69D3183A1C1F3211783A1C37
S1132D201E3212788A1A013AB9698A1812781A700E
S1132D303B1C1F331A783B1C1E331B78D31A013BF0
S1132D40BA69D3183A1C173212781A703B1C1E3316
S1132D503A1C1E32127801321A703B1C1F331B7846
S1132D605B08DBB23A1C1E3212789A42C6D33B1C73
S1132D701F331B78BA69D31800221A70BD4609B0F4
S1132D8090BDC04680B586B000AFF860B9607A6087
S1132D903B60FB681B687B6102E07B6901337B61FC
S1132DA07B691B78202BF8D03A1C1432BB68101CAA
S1132DB0191C00F059F9031C51D1BB681B78002B76
S1132DC04DD0BB681B781F2B49D87B691B782E2BF1
S1132DD003D07B691B782D2B41D17B6901337B6147
S1132DE03A1C14327B68101C191C00F03DF9031CBA
S1132DF035D17B681B78002B31D07B681B780C2B7A
S1132E002DD87B691B782E2B03D07B691B782D2B47
S1132E1025D17B6901337B613A1C14323B68101C59
S1132E20191C00F0D3F8031C19D13B681B88002B34
S1132E3015D03B681A88114B9A4210D83B681B88FE
S1132E40632B07D83B681B88FA22D2009B189AB2DE
S1132E503B681A807A69FB681A60002309E0BB6842
S1132E6000221A707B6800221A703B6800221A80C4
S1132E701B23181CBD4606B080BDC046B80B00001D
S1132E8080B586B000AFF860B9607A603B60BB681B
S1132E9000221A707B6800221A703B6800221A70A4
S1132EA03B6A00221A70FB681B687B6102E07B6945
S1132EB001337B617B691B78202BF8D03A1C1432D8
S1132EC0BB68101C191C00F0CFF8031C00D077E07D
S1132ED0BB681B78182B00D972E07B691B783A2BEE
S1132EE000D06DE07B6901337B613A1C14327B684E
S1132EF0101C191C00F0B8F8031C61D17B681B7806
S1132F003C2B5DD87B691B783A2B59D17B69013303
S1132F107B613A1C14323B68101C191C00F0A4F8A5
S1132F20031C4DD13B681B783C2B49D87B691B782B
S1132F302C2B43D17B6901337B617B691B782F2B5D
S1132F403AD97B691B78392B36D87B6901331B78D6
S1132F502F2B1ED97B6901331B78392B19D87B6938
S1132F601B78303BDBB21A1C9200D3185B00DAB238
S1132F707B6901331B78D318DBB2303BDAB23B6A8E
S1132F801A707B6901337B617B6901337B610023A8
S1132F9017E07B691B78303BDBB21A1C9200D31814
S1132FA05B00DAB23B6A1A707B6901337B617A6930
S1132FB0FB681A60002304E01B2302E0002300E006
S1132FC01B23181CBD4606B080BDC04680B584B026
S1132FD000AF786039603B1C0F3306221A707B689F
S1132FE01B68BB6002E0BB680133BB60BB681B7835
S1132FF0202BF8D03B6800221A8018E03B681B881D
S11330001A1C9200D3185B009AB2BB681B78D318C1
S11330109BB2303B9AB23B681A803B1C0F333A1C7C
S11330200F321278013A1A70BB680133BB60BB6877
S11330301B782F2B08D9BB681B78392B04D83B1C71
S11330400F331B78002BD9D13B1C0F331B78002B7B
S113305001D1042303E07B68BA681A600023181CBA
S1133060BD4604B080BDC04680B584B000AF786072
S113307039603B1C0F3304221A707B681B68BB60E9
S113308002E0BB680133BB60BB681B78202BF8D01F
S11330903B6800221A7018E03B681B781A1C9200E7
S11330A0D3185B00DAB2BB681B78D318DBB2303BB1
S11330B0DAB23B681A703B1C0F333A1C0F32127899
S11330C0013A1A70BB680133BB60BB681B782F2BB5
S11330D008D9BB681B78392B04D83B1C0F331B78E9
S11330E0002BD9D13B1C0F331B78002B01D10423B7
S11330F003E07B68BA681A600023181CBD4604B05C
S113310080BDC04680B582B000AFFB1D00221A709E
S113311007E0C046FB1D1B78DBB20133DAB2FB1DAE
S11331201A70FB1D1B78DBB2632BF2D9BD4602B0CB
S113313080BDC04680B582B000AF021CBB1D1A80A2
S113314006E0FFF7DFFFBB1DBA1D1288643A1A8040
S1133150BB1D1B88642BF4D8BD4602B080BDC0469D
S113316080B582B000AF021CBB1D1A8009E0FA23AF
S11331709B00181CFFF7DEFFBB1DBA1D1288013A25
S11331801A80BB1D1B88002BF1D1BD4602B080BD47
S113319080B58AB000AF78600023FB6100F08CFB3F
S11331A04A4B1B68002B18D1494B4A4A1A60484BBA
S11331B000225A60484B802292015A60464B0022FA
S11331C01A60444B7B617B69802292015A607B695F
S11331D0414A1A603D4B01221A607B68002B0DD0D6
S11331E03E4B1B887A68D3187B607A6807231340A8
S11331F004D07B680722934308337B607B68002BF1
S113320058D07A68364B9A4254D8314B3B62304B93
S11332101B687B6204E07B6A3B627B6A1B687B629F
S11332207B6A5A687B689A4203D27B6A1B68002BCC
S1133230F1D17A6A284B9A423CD03B6A1A68274BF0
S11332401B88D318FB617B6A1A683B6A1A607B6A25
S11332505A687B68D21A214B1B885B009A4222D998
S11332607A6A7B68D3183B617B6A5A687B68D21A96
S11332703B695A607B6A7A685A603B695B68FB60A9
S1133280134BBB6102E0BB691B68BB61BB691B6874
S11332905A68FB689A42F6D3BB691A683B691A609C
S11332A0BB693A691A600F4B1A687B6A5B68D21A69
S11332B00C4B1A6000F00CFBFB69002B01D1FDF7ED
S11332C0F5F9FB69181CBD460AB080BD78200020C2
S11332D068200020680000207020002000500000BA
S11332E0FF1F00000000002080B586B000AF7860AA
S11332F07B683B617B68002B28D0164B1B885B42A4
S11333003A69D3183B613B69FB6000F0D5FAFB686E
S11333105B68BB60104B7B6102E07B691B687B616F
S11333207B691B685A68BB689A42F6D37B691A6842
S1133330FB681A607B69FA681A60FB685A68074B75
S11333401B68D218054B1A6000F0C2FABD4606B0DD
S113335080BDC0460050000068200020000000200E
S113336080B500AF024B1B68181CBD4680BDC0462B
S11333700000002080B582B000AF78607B681A1C22
S113338008327B685A607B68012252429A607B68EB
S11333901A1C08327B68DA607B681A1C08327B6866
S11333A01A617B6800221A60BD4602B080BDC04627
S11333B080B582B000AF78607B6800221A61BD4698
S11333C002B080BD80B584B000AF786039607B689E
S11333D05B68FB60FB685B681A1C3B685A607B682F
S11333E05A683B689A60FB685B683A689A60FB6855
S11333F03A685A607B683A685A603B687A681A612E
S11334007B681B685A1C7B681A60BD4604B080BD8B
S113341080B584B000AF786039603B681B68BB60DE
S1133420BB68013303D17B681B69FB600DE07B68DB
S11334300833FB6002E0FB685B68FB60FB685B6869
S11334401B681A1CBB689A42F5D9FB685B681A1C96
S11334503B685A603B685B683A689A603B68FA6804
S11334609A60FB683A685A603B687A681A617B68BC
S11334701B685A1C7B681A60BD4604B080BDC046F8
S113348080B584B000AF78607B685B687A689268C6
S11334909A607B689B687A6852685A607B681B698B
S11334A0FB60FB685A687B689A4203D17B689A6820
S11334B0FB685A607B6800221A61FB681B685A1E0D
S11334C0FB681A60BD4604B080BDC04680B584B0B8
S11334D000AFF860B9607A60FB68043BFB60FB688E
S11334E0802252041A60FB68043BFB60BA68FB68E4
S11334F01A60FB68043BFB60FB6800221A60FB68EF
S1133500143BFB607A68FB681A60FB68203BFB6035
S1133510FB68181CBD4604B080BDC04680B500AF32
S11335200A4B0A4A1268F02109040A431A60084B3C
S113353000221A600020FEF73FFD0020FEF776FD12
S113354000F044F80023181CBD4680BD20ED00E0C7
S11335500400002080B500AF502080F31188034B95
S11335601B685A1C014B1A60BD4680BD0400002034
S113357080B500AF064B1B685A1E054B1A60044BFE
S11335801B68002B02D1002080F31188BD4680BD4A
S11335900400002080B500AF024B802252051A605F
S11335A0BD4680BD04ED00E002B081BC81B4064B91
S11335B0802252051A60502080F3118800F0F6FA38
S11335C0002080F3118880BD04ED00E080B500AFD9
S11335D00020006880F3088862B600DFC046BD465C
S11335E080BDC046084B196808681030F0C8A04672
S11335F0A946B246BB4680F309882038F0C8714614
S11336000D2001430847C0467C200020EFF30980C9
S11336100E4B1A6820381060F0C044464D4656469A
S11336205F46F0C008B572B600F068FB62B60CBC29
S1133630116808681030F0C8A046A946B246BB46D7
S113364080F309882038F0C81847C0467C20002041
S113365090B58BB002AFF860B9603B60BB1D1A80B7
S1133660FB68002B03D1502080F31188FEE73B6BED
S1133670052B03D9502080F31188FEE7BB1D1A885F
S1133680BB6B101C191C00F077FC031CBB61BB69ED
S1133690002B00D180E0BB691A6BBB1D1B88013B6A
S11336A09B00D3187B617B69072293437B617A6912
S11336B00723134003D0502080F31188FEE7B86934
S11336C0B9683A6BFB6BBC1D2488009400F0A2FB24
S11336D07969FA683B68081C111C1A1CFFF7F6FE8E
S11336E0021CBB691A607B6B002B02D07B6BBA692E
S11336F01A60FFF72FFF344B1B685A1C324B1A60B9
S1133700324B1B68002B09D1304BBA691A602E4B1F
S11337101B68012B0FD100F0B7FB0CE02C4B1B688E
S1133720002B08D1294B1B68DA6A3B6B9A4202D8FA
S1133730264BBA691A60BB69DA6A264B1B689A423F
S113374003D9BB69DA6A234B1A60234B1A68BB6935
S11337501A64214B1B685A1C1F4B1A60BB69DA6A36
S11337601E4B1B689A4203D9BB69DA6A1B4B1A6069
S1133770BB69DA6A131C9B009B189B001A1C184B2C
S1133780D218BB690433101C191CFFF71BFE01235C
S1133790FB61FFF7EDFE02E001235B42FB61FB6985
S11337A0012B0BD10A4B1B68002B07D0074B1B685E
S11337B0DA6A3B6B9A4201D2FFF7ECFEFB69181CF4
S11337C0BD4609B090BDC046502100207C20002099
S11337D06021002058210020742100205C21002059
S11337E08020002080B584B000AF78600023FB60A7
S11337F07B68002B14D000F05FF80D4B1A687B68CF
S1133800D318BB600B4B1B680433181CFFF738FE3E
S1133810BB68181C00F07AFB00F05AF8031CFB602C
S1133820FB68002B01D1FFF7B5FEBD4604B080BD97
S1133830542100207C20002080B586B004AF194AB2
S1133840194B0021009100210191002102910021D6
S11338500391101C191CC8220023FFF7F9FE031C56
S11338607B607B68012B13D1502080F311880F4BB0
S113387001221A600E4B00221A600E4B00221A60BD
S11338800020FEF723FB0020FEF76AFBFFF746FE4D
S11338907B68002B03D1502080F31188FEE7BD46DE
S11338A002B080BDF13D0000B04F00006021002057
S11338B0542100209C21002080B500AF034B1B68DD
S11338C05A1C024B1A60BD4680BDC04664210020CC
S11338D090B583B000AF00237B60374B1B68002B8F
S11338E003D1502080F31188FEE7FFF733FE324BFB
S11338F01B685A1E304B1A602F4B1B68002B54D187
S11339002E4B1B68002B50D000233B6029E02C4B2E
S1133910DB68DB681C1C231C1833181CFFF7B0FD84
S1133920231D181CFFF7ACFDE26A264B1B689A4264
S113393002D9E26A234B1A60E26A131C9B009B18AB
S11339409B001A1C204BD218231D101C191CFFF7B6
S113395039FDE26A1D4B1B68DB6A9A4201D30123DD
S11339603B60174B1B68002BD1D1194B1B68002BF4
S11339700DD006E000F01AF9154B1B685A1E144BC3
S11339801A60134B1B68002BF4D101233B603B6886
S1133990012B03D00F4B1B68012B06D101237B6045
S11339A00C4B00221A60FFF7F5FDFFF7E1FD7B6881
S11339B0181CBD4603B090BD642100205021002096
S11339C0282100205C210020802000207C20002071
S11339D0682100206C21002080B500AF024B1B68D9
S11339E0181CBD4680BDC0465021002080B584B05F
S11339F000AF78603960FFF75FFF79683A682D4B54
S1133A00081C111C1A1CFEF70BFE2B4B1B68013300
S1133A10FB60FB68013BFB60FA68131C9B009B186E
S1133A209B001A1C254BD3181B68002B0FD0FA6877
S1133A30131C9B009B189B001A1C204BD3187968FD
S1133A403A68081C111C1A1C522300F0CDFAFB68BA
S1133A50002BDED11A4B1B681B68002B09D0184BB6
S1133A601B6879683A68081C111C1A1C422300F070
S1133A70BBFA144B1B681B68002B09D0114B1B6845
S1133A8079683A68081C111C1A1C422300F0ACFA2D
S1133A900D4B1B68002B08D079683A680A4B081C48
S1133AA0111C1A1C532300F09FFAFFF711FFBD46A7
S1133AB004B080BDB84F00005821002080200020B1
S1133AC020210020242100203C21002080B584B046
S1133AD000AF78603960FFF7EFFE2D4B1B68BB60C9
S1133AE0BB68181C6421FCF793FC031CBB60796859
S1133AF03A68284B081C111C1A1CFEF791FD264B32
S1133B001B680133FB60FB68013BFB60FA68131C14
S1133B109B009B189B001A1C204BD3181B68002B7E
S1133B200CD0FA68131C9B009B189B001A1C1B4B9F
S1133B30D21878683968BB6800F0F6FAFB68002B85
S1133B40E1D1174B1B681B68002B06D0144B1A6875
S1133B5078683968BB6800F0E7FA124B1B681B6889
S1133B60002B06D00F4B1A6878683968BB6800F0E0
S1133B70DBFA0D4B1B68002B05D0786839680A4ABC
S1133B80BB6800F0D1FAFFF7A3FEBD4604B080BDC8
S1133B909C210020B84F00005821002080200020E4
S1133BA020210020242100203C21002080B584B065
S1133BB000AF494B1B68002B00D07CE0474B1B68CF
S1133BC05A1C464B1A60454B1B68002B2AD1444BA8
S1133BD01B681B68002B03D0502080F31188FEE77C
S1133BE03F4B1B68FB603F4B1A683D4B1A603D4BD3
S1133BF0FA681A603C4B1B685A1C3B4B1A60384BE2
S1133C001B681B68002B04D1384B012252421A60F6
S1133C1008E0334B1B68DB68DB68BB60BB685A6831
S1133C20324B1A602D4B1A68304B1B689A4249D3A9
S1133C302B4B1B681B68002B04D12C4B01225242D6
S1133C401A603FE0264B1B68DB68DB68BB60BB681F
S1133C505B687B60214B1A687B689A4203D2234BD2
S1133C607A681A602EE0BB680433181CFFF708FC5E
S1133C70BB689B6A002B04D0BB681833181CFFF781
S1133C80FFFBBB68DA6A1A4B1B689A4203D9BB680C
S1133C90DA6A174B1A60BB68DA6A131C9B009B181C
S1133CA09B001A1C134BD218BB680433101C191C3C
S1133CB0FFF788FBBCE7104B1B685A1C0E4B1A60BD
S1133CC0FCF7EAFC0C4B1B68002B01D1FCF7E4FC6D
S1133CD0BD4604B080BDC0466421002054210020AC
S1133CE02021002024210020702100200800002031
S1133CF05C210020802000206821002080B582B053
S1133D0000AF344B1B68002B03D0334B01221A60E5
S1133D105DE0324B1B687B60314B1B68D96C314AC8
S1133D2012687868821A8A18DA642E4B7A681A60E4
S1133D302B4B1B681A682A4B1B681B6B9A4217D8BB
S1133D40274B1A68264B1B683433101C191CFCF7CC
S1133D5099FC0DE0244B1B68002B03D1502080F309
S1133D601188FEE7204B1B685A1E1F4B1A6000E0A7
S1133D70C0461D4B1A68131C9B009B189B001A1C01
S1133D801A4BD3181B68002BE4D0174B1A68131C6A
S1133D909B009B189B001A1C144BD3183B603B6878
S1133DA05B685B681A1C3B685A603B685A683B68EE
S1133DB008339A4205D13B685B685B681A1C3B6810
S1133DC05A603B685B68DB681A1C054B1A60BD4689
S1133DD002B080BD642100206C2100209C210020C1
S1133DE07C200020782100205C21002080200020FD
S1133DF080B582B000AF786000F084F8044B1B6893
S1133E00012B01D9FFF7C6FBFCF74CFCF4E7C046D5
S1133E108020002080B584B000AFF860B9607A607B
S1133E203B60FB681A1C3432BB68101C191C0C2242
S1133E3000F0CBFAFA683F230021D1547B68052BAC
S1133E4001D905237B60FB687A68DA62FB687A68CB
S1133E509A64FB680433181CFFF7AAFAFB6818334A
S1133E60181CFFF7A5FAFB68FA681A617B6806223A
S1133E70D21AFB689A61FB68FA685A62FB680022EE
S1133E80DA64BD4604B080BD80B582B000AF0023C3
S1133E907B600DE07A68131C9B009B189B001A1C26
S1133EA0114BD318181CFFF765FA7B6801337B604C
S1133EB07B68052BEED90D4B181CFFF75BFA0C4BF6
S1133EC0181CFFF757FA0B4B181CFFF753FA0A4B51
S1133ED0181CFFF74FFA094B044A1A60084B044AAE
S1133EE01A60BD4602B080BD80200020F82000206A
S1133EF00C210020282100203C210020202100202A
S1133F002421002080B500AFBD4680BD80B582B0BD
S1133F1000AF7860134B1B687A685A60124B1B68B9
S1133F207A689A4209D2114B1A680E4B1B68043303
S1133F30101C191CFFF76CFA10E00D4B1A68094BA2
S1133F401B680433101C191CFFF762FA094B1B6829
S1133F507A689A4202D2074B7A681A60BD4602B068
S1133F6080BDC0467C200020542100202421002054
S1133F70202100200800002080B584B000AF021C7E
S1133F803960BB1D1A805020FFF702F9031CFB6047
S1133F90FB68002B22D03B68002B07D1BB1D1B887C
S1133FA09B00181CFFF7F4F8021C00E03A68FB6859
S1133FB01A63FB681B6B002B06D1FB68181CFFF708
S1133FC093F90023FB6009E0FB681A6BBB1D1B8897
S1133FD09B00101CA5211A1C00F0B8F9FB68181CE2
S1133FE0BD4604B080BDC04690B58BB000AFF8604C
S1133FF0B9607A601A1CFB1C1A707B687B627B6A4E
S11340005B685B681A1C7B6A5A607B6A5A687B6AC5
S113401008339A4205D17B6A5B685B681A1C7B6A29
S11340205A607B6A5B68DB683B627B68FB61FB69A7
S11340305B685B681A1CFB695A60FB695A68FB6918
S113404008339A4205D1FB695B685B681A1CFB69FB
S11340505A60FB695B68DB68BB61BB691B6B3C1C1A
S11340601634181C00F020F9031C2380BB69343378
S1134070F968BA68081C111C1A1CFEF7F5FAF968ED
S1134080BA68274B081C111C1A1CFEF7EDFAFB1C1E
S11340901B78F968BA68081C111C1A1CFEF716FB79
S11340A0FA68BB68101C191C0922FEF70FFBBB69D8
S11340B0DB6AF968BA68081C111C1A1CFEF7B2FD09
S11340C0FA68BB68101C191C0922FEF7FFFA3B1C96
S11340D016331B88F968BA68081C111C1A1CFEF7F1
S11340E0A1FDFA68BB68101C191C0922FEF7EEFA40
S11340F0BB691B6CF968BA68081C111C1A1CFEF712
S113410091FDF968BA68074B081C111C1A1CFEF7CC
S1134110ABFABA693B6A9A4287D1BD460BB090BDEF
S1134120BC4F0000B84F000080B58AB000AFF86003
S1134130B9607A603B607B687B627B6A5B685B68C2
S11341401A1C7B6A5A607B6A5A687B6A08339A42F3
S113415005D17B6A5B685B681A1C7B6A5A607B6A60
S11341605B68DB683B627B68FB61FB695B685B687F
S11341701A1CFB695A60FB695A68FB6908339A4246
S113418005D1FB695B685B681A1CFB695A60FB69B3
S11341905B68DB68BB613B68002B75D0BB69DB6C7B
S11341A0002B11D1BB693433F968BA68081C111C9F
S11341B01A1CFEF759FAF968BA68374B081C111C27
S11341C01A1CFEF751FA5FE0BB69DB6C181C3968F6
S11341D0FCF71EF9031C7B617B69002B32D0BB69A1
S11341E03433F968BA68081C111C1A1CFEF73CFA2F
S11341F0F968BA68294B081C111C1A1CFEF734FA1A
S1134200BB69DB6CF968BA68081C111C1A1CFEF740
S113421009FDF968BA68214B081C111C1A1CFEF729
S113422023FAF968BA687B69081C111C1A1CFEF78A
S1134230F9FCF968BA681A4B081C111C1A1CFEF721
S113424013FA21E0BB693433F968BA68081C111CFD
S11342501A1CFEF709FAF968BA68104B081C111CFD
S11342601A1CFEF701FABB69DB6CF968BA68081C12
S1134270111C1A1CFEF7D6FCF968BA68094B081C15
S1134280111C1A1CFEF7F0F9BA693B6A9A4200D075
S113429069E7BD460AB080BDC04F0000BC4F0000B6
S11342A0CC4F0000D04F000090B583B000AF7860D1
S11342B0002404E07B6801337B60631C9CB27B6850
S11342C01B78A52BF6D0A3089CB2231C181CBD4652
S11342D003B090BDFEE7000000F050FCFCF7FCFCCE
S11342E009480A4A0021121A00F030F800F022FCB2
S11342F000F0BCFB00F050FC05490020FCF7DCF9A1
S113430000F008F8FEE700BF10000020A021002004
S11343107C21002038B5051C00F022FC00F0CAFB0B
S1134320084C2368002B02D0984700232360064CD6
S11343302368002B02D0984700232360281CFFF732
S1134340C9FF38BD802100208421002010B5041C41
S113435000F03CFB201C10BD00B5C9B202E08B424A
S113436008D0101C0378421C002BF8D14B42594151
S11343704942084000BD00B503E0002B07D00130DE
S1134380013103780A789342F7D0981A00E0181C98
S113439000BD00B5031C1A1C0133591E09780029FD
S11343A0F9D1101A00BD30B5002308E0C45CCD5C1F
S11343B0AC4201D0601B07E00133002C03D09342D0
S11343C0F4D1002000E0201C30BD30B5031C0EE009
S11343D00C78551E1C7001310133002C06D101E00C
S11343E01C700133013A002AFAD102E02A1C002A87
S11343F0EED130BDF0B589B01F1C0EAB1B780C1C80
S113440004930FAB1E78013C0023019003910792A3
S113441002902370984217D1119A9A4214D1049BA6
S1134420002B01D06F2E32D0692E02D0642E00D022
S1134430AAE0022F02D1039C023CA3E0012F00D08A
S1134440A2E0039C023C98E0692E0FD004D8582EB9
S113445019D0642E21D109E0752E04D0782E12D003
S11344606F2E1AD115E0002700971BE0019A002A4D
S113447013DA80231B069A4212D05242012301927E
S1134480029200930EE00027009710250BE0119F85
S113449000E000270097082505E00021009101E0D5
S11344A0012200920A250023069301E006901C1CB9
S11344B00298291CFBF7F0FF02980591291CFBF7D1
S11344C0A7FF05990290092902D80A1C303205E099
S11344D0059A3732782E01D1059A573206980299F7
S11344E0631ED2B21A7001300029DFD1082D09D120
S11344F00499002906D0302A04D00698A31E30223D
S11345001A700230079A022A10D10099002901D1A9
S1134510002F02D0109A013A109210991191102D87
S113452004D1049A002A01D002391191039A00247B
S1134530D11A119A8918164A914225DC302202E0D8
S1134540013B1A70013011991C1C8842F8DB102DB4
S11345500AD1019A002A07D0049B002B04D0631EC1
S11345601E70023C302323700099002902D0013CC4
S11345702D2308E0012F02D1013C2B2303E0022F5D
S113458002D1013C20232370201C09B0F0BDC04699
S1134590FD010000F0B5AD4C0027A5441C1CAC4B3C
S11345A00B916B4420210A90197009920897EBE152
S11345B009982521FFF7D0FE0490002810D109980E
S11345C0FFF7E7FE089F021C3F18002800D1E4E132
S11345D00B9809990A9DA847002800D0DDE1DAE18B
S11345E0049D09982D1A079507D02A1C0B98099940
S11345F00A9DA847002800D1CDE1049845782B1CDA
S1134600252D0AD100260230012309900696321C7A
S1134610311CB446371C0593A6E0049A00210125F9
S113462001320F1C05952B2B00D1BDE104DC202B9E
S113463008D0232B11D109E02D2B00D1B2E1302B6E
S11346400BD105E0012F00D0B0E1B3E10121B1E1CC
S1134650059D002D00D0ABE1ACE12A2B03D0002551
S113466006950A2612E0251D24680694002C03DA18
S11346706042002306900593501C53782C1C0AE0DA
S1134680069B73435D190695537801321D1C303D1A
S1134690101C092DF4D96F4A069D954206DD0026AB
S11346A001300990FF25321CB4465DE02E2B1CD14D
S11346B043782A2B04D0421C0A20002684460CE0AE
S11346C026680434F343DB0F9C46837802300EE003
S11346D063465E435378761901321D1C303D101C2D
S11346E0092DF5D90125AC4601E00026B446682B16
S11346F000D162E103226C2B00D15FE10022DDB224
S11347006E2B2FD00ADC632B1BD002DC582B28D154
S113471010E0642B0ED0692B23D10BE0732B13D044
S113472004DC6F2B06D0702B1BD110E0752B01D04D
S1134730782B16D16346002B0ED0059B022B11D18A
S11347400CE06346002B0CD1002A0AD10AE078253C
S113475008260322012105E0012603E00123059335
S113476000E0FF25013009900898079BC0180890C5
S11347706E2D75D010D8632D00D184E006D8252D78
S113478000D186E0582D00D089E022E0642D0FD0BE
S1134790692D00D083E00BE0732D36D003D86F2D44
S11347A000D07CE015E0752D13D0782D77D110E082
S11347B0231D07932068032A06D0022A01D100B2E0
S11347C002E0012A00D140B20091069901950291BC
S11347D00FE0231D07932068032A06D0022A01D183
S11347E080B202E0012A00D1C0B2069A009101957C
S11347F002928DA9059A3B1C0396FFF7FBFD041E4C
S11348004DD0154F6F443F1B59E0231D2468079377
S1134810002C00D1114C002907D0604627780134C0
S113482000284CD0B74249DC49E06246201C002AEB
S113483007D0321C00F00CF9371C00283FD0071BAE
S11348403DE0FFF7A6FD071C39E0C046C4FDFFFFAD
S113485036020000FD010000330200000250000097
S1134860251D07952368022A05D0032A08D0002AAB
S113487000D088E004E068462021085A188082E0CD
S1134880089D1D607FE02268201D0DAB07901A7003
S113489002E00DAB1D7007941C1C01270FE0049867
S11348A0FFF777FD089F041E06D00B980499221C7D
S11348B00A9DA84700286ED03F196EE0371C059862
S11348C03E1C00283FD03023022800D020233D4A3C
S11348D06A44137022782D2A04D02B2A02D004971C
S11348E0202A0CD10497302B09D10B98211C0122CA
S11348F00A9B984700284ED0781E013404900599ED
S1134900022911D1412D01D0612D0DD1049D012D1C
S113491041DD0B98211C02220A9DA84700283AD0A9
S1134920049D0234023D04953E1C08E025490B9881
S1134930694401220A9DA84700282CD00136069D0F
S1134940AE42F3DB049F002F06D00B98211C3A1CC7
S11349500A9DA84700281ED0059D002D10D109E00E
S113496025700B98211C01220A9B9847002812D01D
S1134970013602E0144C20256C4406988642EFDB95
S1134980089DAD190895079C099D2B78002B00D034
S11349900EE6089F01E001277F42381C8F239B000D
S11349A09D44F0BD002504E0012703E0022701E057
S11349B0022505955378013235E602224378013009
S11349C09DE6C046360200003702000030B5C9B289
S11349D0031C1F2A35D9444203232340041C002B03
S11349E007D0D21A1D1C013D21700134002DFAD1CB
S11349F0C418002905D00D06080428430B020143FE
S1134A0019435009231C00280ED0051C013D1960D0
S1134A1059609960D960196159619961D9612033EC
S1134A20002DF3D14301E318D006400F07D0041C36
S1134A301D1C013C02C5002CFBD180001B18032067
S1134A400240002A03D01970013A0133F9E730BD5E
S1134A5010B5C9B2821804E00478431C8C4203D018
S1134A60181C9042F8D1002010BD000038B50B4C42
S1134A700B4D01E008CC9847AC42FBD1094C0A4DE0
S1134A8001E008CC9847AC42FBD1084C084D01E04A
S1134A9008CC9847AC42FBD138BDC0460450000056
S1134AA004500000045000000450000004500000B2
S1134AB00850000038B5084C084D01E008CC984770
S1134AC0AC42FBD1064C074D02E0043C23689847F6
S1134AD0AC42FAD138BDC046045000000450000076
S1134AE0085000000850000030B5002A20D0884249
S1134AF01ED003240123214207D1204205D1944230
S1134B0003D220C9043A20C010E0194209D1184246
S1134B1007D1934205D20D88023A05800231023052
S1134B2004E00D78013A057001310130002AE2D128
S1134B3030BD000010B5094C002C0ED004E06068B4
S1134B40A268FFF7D1FF0C3421680029F7D163680C
S1134B50002BF4D1A368002BF1D110BD1450000038
S1134B6010B5054B1C6803E0A06863689847246887
S1134B70002CF9D110BDC04694210020054B181C0F
S1134B80002805D0854681B00020C043009001B0C4
S1134B90F746704700300020F74670475461736B46
S1134BA0310000005461736B320000005461736B78
S1134BB03300000068656C70000000005368656C89
S1134BC06C0000002A2A2A4661696C656420746FAF
S1134BD02073657420646174650D0A002A2A2A20F2
S1134BE06572726F72207768696C652072656164A2
S1134BF0696E6720636F6D6D616E6421202A2A2AB5
S1134C00000000000D0A0000535720646174652001
S1134C10000000002A2A2A4661696C656420746FCA
S1134C20206765742053572052544320646174658F
S1134C300D0A00002A2A2A4661696C656420746F93
S1134C4020736574205357205254432074696D6552
S1134C500D0A00002A2A2A206572726F7220776872
S1134C60696C652072656164696E6720636F6D6D40
S1134C70616E643A2000000053572074696D65200A
S1134C80000000002A2A2A4661696C656420746F5A
S1134C9020676574205357205254432074696D650E
S1134CA00D0A000068656C70000000007368656C94
S1134CB06C2068656C7000002D2D2D2D2D2D2D2D53
S1134CC02D2D2D2D2D2D2D2D2D2D2D2D2D2D2D2D10
S1134CD02D2D2D2D2D2D2D2D2D2D2D2D2D2D2D2D00
S1134CE02D2D2D2D2D2D2D2D2D2D2D2D2D2D2D2DF0
S1134CF02D2D2D2D2D2D000046726565646F6D20C0
S1134D00426F617264205368656C6C007368656CF3
S1134D106C00000047726F7570206F6620736865C1
S1134D206C6C20636F6D6D616E64730D0A0000001E
S1134D30202068656C707C73746174757300000066
S1134D405072696E742068656C70206F7220737481
S1134D506174757320696E666F726D6174696F6ECC
S1134D600D0A0000202074696D65205B68683A6D47
S1134D706D3A73735B2C7A5D5D000000536574209B
S1134D807468652063757272656E742074696D65EC
S1134D902E205072696E7473207468652063757276
S1134DA072656E742074696D65206966206E6F206B
S1134DB0617267756D656E740D0A00002020646170
S1134DC07465205B64642E6D6D2E797979795D004C
S1134DD0536574207468652063757272656E7420FF
S1134DE0646174652E205072696E747320746865F2
S1134DF02063757272656E742064617465206966DF
S1134E00206E6F20617267756D656E740D0A000007
S1134E1073746174757300007368656C6C207374CB
S1134E206174757300000000646174650000000023
S1134E3074696D6500000000434D443E200000008D
S1134E400D0A53595354454D205354415455530D51
S1134E500A0000005441534B204C4953543A0D0A64
S1134E604E616D65090953746174757309507269F3
S1134E706F09537461636B09544342230D0A0000A4
S1134E800D0A52544F532052554E2D54494D45202E
S1134E90535441544953544943533A0D0A4E616D96
S1134EA0650954696D6520286D7329092554696D58
S1134EB0650D0A0052544F53207469636B730000EC
S1134EC00000000020487A2C20000000206D730DA3
S1134ED00A00000046726565206865617000000084
S1134EE02062797465730D0A000000004669726DD2
S1134EF0776172650000000041756720313020320F
S1134F00303132002000000031343A34373A33393A
S1134F100000000053572052544300002A2A2A4616
S1134F2061696C656420746F206765742053572031
S1134F305254432064617465212000002A2A2A46C1
S1134F4061696C656420746F206765742053572011
S1134F505254432074696D65212000002A2A2A20B6
S1134F604661696C6564206F7220756E6B6E6F7735
S1134F706E20636F6D6D616E643A20002A2A2A20C8
S1134F80547970652000000020746F2067657420D8
S1134F9061206C697374206F6620617661696C614D
S1134FA0626C6520636F6D6D616E64730D0A000041
S1134FB049444C45000000000D0A000009090000A6
S1134FC0090930090930250D0A000000250D0A00E1
S1134FD009093C31250D0A00B11B0000C91B000062
S1134FE0C91B00000D1C00001F1C1F1E1F1E1F1FBD
S1134FF01E1F1E1F1F1D1F1E1F1E1F1F1E1F1E1FC5
S10750001000000098
S1075004D90C0000BF
S10F500800200000AAAAAAAAFFFFFFFFD4
S113501408500000000000200C00000014500000A0
S113502400F0FF1F0000000000000000000000006A
S10750340000000074
S90342D9E1
