S0160000626C696E6B795F66726565646F6D2E7372656344
S1130000F82F0020110400002D1600002D1600000A
S11300102D1600002D1600002D1600002D160000D0
S11300202D1600002D1600002D1600002D160000C0
S11300302D1600002D1600002D1600002D160000B0
S11300402D1600002D1600002D1600002D160000A0
S11300502D1600002D1600002D1600002D16000090
S11300602D1600002D1600002D1600002D16000080
S11300702D1600002D1600002D1600002D16000070
S11300802D1600002D1600002D1600002D16000060
S11300902D1600002D1600002D1600002D16000050
S11300A02D1600002D1600002D1600002D16000040
S11300B02D1600002D1600002D1600002D16000030
S11300C02D1600002D1600002D1600002D16000020
S11300D02D1600002D1600002D1600002D16000010
S11300E02D1600002D1600002D1600002D16000000
S11300F02D1600002D1600002D1600002D160000F0
S11301002D1600002D1600002D1600002D160000DF
S11301102D1600002D1600002D1600002D160000CF
S11301202D1600002D1600002D1600002D160000BF
S11301302D1600002D1600002D1600002D160000AF
S11301402D1600002D160000531600002D16000079
S11301502D1600002D1600002D1600002D1600008F
S11301602D1600002D1600002D1600002D1600007F
S11301702D1600002D1600002D1600002D1600006F
S11301802D1600002D1600002D1600002D1600005F
S11301902D1600002D1600002D1600003B16000041
S11301A02D1600002D1600002D1600002D1600003F
S11301B02D1600002D1600002D1600002D1600002F
S11301C02D1600002D1600002D1600002D1600001F
S11301D02D1600002D1600002D1600002D1600000F
S1130400FFFFFFFFFFFFFFFFFFFFFFFFFEFFFFFFF9
S113041000200021002200230024002500260027BC
S113042062B600F0A1FCFEE770B504000D001600F2
S11304303068012802D0022805D00BE02000C0B2A9
S11304407168884706E0B06821000170B068401CFC
S1130450B060FFE72868401C286070BDFFB584B019
S11304600020060004980500002028706D1C0698E2
S1130470002825D00598006801900198002803D130
S113048030202870761C3FE0019800283CD0019869
S1130490079900F063FA039001980399079A51436E
S11304A0401A0700002F03D5F8430700313700E056
S11304B0303703980190380028706D1C761CE3E7F0
S11304C00598006800900098002803D13020287017
S11304D0761C19E00098002816D00098079900F0BF
S11304E051FA029000980299079A5143401A040065
S11304F00A2C01D2303400E03734029800902000F6
S113050028706D1C761CE5E7300008B0F0BDF1B52D
S11305100F0015001E0000980400BC4206DA3200E9
S113052029003020FFF780FF641CF6E7F1BDF1B528
S11305300F0015001E0000980400BC4206DA3200C9
S113054029002020FFF770FF641CF6E7F1BDF3B526
S113055095B01700002000901698040020780690AB
S1130560002800D1DFE10698252813D006980A2830
S113057005D0159A69460698FFF756FF09E0159AC3
S113058069460D20FFF750FF159A69460A20FFF7C8
S11305904BFFC6E1002006000020049004980028C8
S11305A024D1641C2078202810D0232816D02B288E
S11305B008D02D2802D030280CD013E030000126BA
S11305C00643EBE7300002260643E7E73000042643
S11305D00643E3E7300008260643DFE73000102631
S11305E00643DBE7641E01200490D7E70020019056
S11305F0002004900498002811D1641C20780690EF
S11306003038092807D801980A2148430699401828
S113061030380190EEE7641E01200490EAE7641C80
S113062020782E280ED100200490049800280AD1A6
S1130630641C20783038092800D8F6E7641E0120AD
S11306400490F2E7641E641C20784C2806D06828C5
S113065002D06C2801D002E002E001E000E0641E58
S1130660641C20780690582872D0622800D1CCE00F
S1130670632800D116E1642813D0692811D06E28AC
S113068000D142E16F2800D1B4E0702800D1C7E066
S1130690732800D110E1752800D1CCE0782857D018
S11306A03AE1386809903F1D0A23012209A90CA8E0
S11306B0FFF7D4FE05000CA84019089009980028FB
S11306C003D52D2003906D1C0DE0B00703D52B201E
S11306D003906D1C07E0700703D5202003906D1C68
S11306E001E00020039000200590300712D5039804
S11306F0002804D0159A69460398FFF795FE012057
S11307000590159B6A4601992800FFF700FF0198A0
S1130710050011E0F0070FD4159B6A4601992800E3
S1130720FFF705FF0398002804D0159A694603983B
S1130730FFF77AFE012005900598002807D1039859
S1130740002804D0159A69460398FFF76DFE92E0DD
S1130750386802903F1D1023002202A90CA8FFF75D
S11307607DFE05000CA84019089000200590300774
S113077016D5F0060BD5159A69463020FFF754FEBE
S1130780159A69467820FFF74FFE01200590159BC6
S11307906A4601992800FFF7BAFE0198050018E09F
S11307A0F00716D4F00600D5AD1C159B6A460199D6
S11307B02800FFF7BCFEF0060BD5159A69463020D9
S11307C0FFF732FE159A69467820FFF72DFE0120C7
S11307D00590F0060DD5059800280AD1159A6946AA
S11307E03020FFF721FE159A69467820FFF71CFE9A
S11307F0AD1C40E0386802903F1D0823002202A986
S11308000CA8FFF72BFE05001FE0386802903F1D7F
S11308100223002202A90CA8FFF720FE050014E021
S1130820386802903F1D1023002202A90CA8FFF78C
S113083015FE050009E0386802903F1D0A230022D6
S113084002A90CA8FFF70AFE05000CA8401908909D
S1130850300708D5159B6A4601992800FFF757FE13
S11308600198050007E0F00705D4159B6A46019935
S11308702800FFF75CFE08980078002809D0159A34
S1130880694608980078FFF7CFFD0898401E089045
S1130890F1E7F00705D5159B6A4601992800FFF793
S11308A046FE3EE03868C0B20A903F1D159A69467C
S11308B00A98FFF7B9FD34E0386807903F1D0798A0
S11308C0002821D0079800F074F80500F00705D43B
S11308D0159B6A4601992800FFF729FE07980078BE
S11308E0002809D0159A694607980078FFF79CFDFF
S11308F00798401C0790F1E7F00705D5159B6A4659
S113090001992800FFF713FE0BE038680B903F1D98
S11309100B980099016004E0159A69460698FFF760
S113092083FD641C1AE6009817B0F0BD0EB47EB5C2
S11309300500012000900848019007A80600320035
S113094029006846FFF703FE0400200003B0039962
S113095070BC04B008470000791D0000CA0F00D025
S1130960494203105A400DD004B500D3404200F070
S113097009F8009AD20701D34942124200D54042F5
S113098004BD0000094210D088420BD30122002389
S113099000185B418B4200D35B1A5241F8D3190013
S11309A01000704701000020704708B500F028F8D7
S11309B008BD00B501000A000023002A01D100206F
S11309C008E010000200521C0078002801D05B1CD3
S11309D0F7E7180000BD38B4012100220368001DA8
S11309E0002B0BD00468001D0C4202D04D466D1E36
S11309F064192260241D1B1FF0D0FAE732BC704733
S1130A0070470000FEB583B0040069462C200D56E3
S1130A107E480078C0B280088007800F002807D184
S1130A207A480078C00603D578480078800601D556
S1130A30012070E1B948844201DB21206BE1684662
S1130A40007C002807D0B648844202DBB5488442C3
S1130A5001DB22205FE16846007B012802D368465F
S1130A6001210173694614200856012804DB6946F4
S1130A70142008561A2801DB41204CE16DB2182DD0
S1130A8002DB6DB2332D01DB422044E120006A46D3
S1130A9014215156FFF762FF02900298A24988423E
S1130AA003DB0298A149884201DB432033E12000A3
S1130AB06A4614215156FFF751FF6DB26843019005
S1130AC001989B49884203DB01989A49884201DBDB
S1130AD0452020E19848007807003800C3270740E4
S1130AE0964884420BDA6846007BC0006946097C5C
S1130AF08900014310200843384307000AE0684690
S1130B00007BC0006946097C89000143202008431A
S1130B1038430700884807708948844203DA6846E6
S1130B20002101701EE08748844203DA68460121EF
S1130B30017017E08448844203DA68460221017098
S1130B4010E08248844203DA68460321017009E018
S1130B507F48844203DA68460421017002E0684653
S1130B60052101707B4800780700BF07BF0F684666
S1130B700078C00038210140802008433843070032
S1130B80744807706846007C002811D000200600D5
S1130B90714836B2864205DA1C480078800701D4D1
S1130BA0761CF5E719480078800701D42320B2E0C9
S1130BB000200600FA20C00036B2864205DA134847
S1130BC00078C00601D5761CF4E710480078C0060A
S1130BD001D511209FE000200600FA20C00036B2A3
S1130BE0864209DA09480078C0B280088007800F7D
S1130BF0022801D0761CF0E704480078C0B28008CF
S1130C008007800F022803D01A2084E006400640A3
S1130C105248007820210143504801705048007820
S1130C2007003800E0270740694614200856401E94
S1130C30C006C00E3843070049480770474800788B
S1130C4007003800E027074028001838C106C90EFD
S1130C50402008433843070040480770002006003E
S1130C60FA20C00036B2864205DA3E480078800693
S1130C7001D4761CF4E73B480078800601D41620A2
S1130C8049E000200600FA20000136B2864205DA67
S1130C9034480078400601D4761CF4E731480078E3
S1130CA0400601D4442036E068462D490978C90637
S1130CB0C90E491C8170684628490978C906C90EBD
S1130CC018314170234800788006800E214908704D
S1130CD000200600FA20C00036B2864209DA214814
S1130CE00078C0B280088007800F032801D0761CEA
S1130CF0F0E71C480078C0B280088007800F032802
S1130D0001D01B2007E0200069468978FFF726FE02
S1130D1069464978484306B0F0BD00BF81F0FA0245
S1130D20C0C62D000148E80180841E0001093D0071
S1130D30006CDC0201E1F5050140064001127A0075
S1130D40D1121300A1252600414B4C008196980036
S1130D50012D310100400640204E000005400640B0
S1130D60044006400640064078480021016000F037
S1130D709FF900F0F7F976A0FFF7D8FD00F096FA96
S1130D8000F003F800F06EFBFEE710B57148006850
S1130D90000F4007400F002806D002280CD007D3CC
S1130DA0042811D00CD313E06BA0FFF7BFFD12E0B1
S1130DB06AA0FFF7BBFD0EE069A0FFF7B7FD0AE0EC
S1130DC068A0FFF7B3FD06E067A0FFF7AFFD02E000
S1130DD06648FFF7ABFD5F480068000E4007400F10
S1130DE0042802D0052804D007E061A0FFF79EFD87
S1130DF006E087A0FFF79AFD02E08648FFF796FD1C
S1130E00544800680007000F062807D01AD30828A2
S1130E100CD007D30A2811D00CD313E07E48FFF777
S1130E2085FD12E07D48FFF781FD0EE07C48FFF769
S1130E307DFD0AE07B48FFF779FD06E07A48FFF77D
S1130E4075FD02E07948FFF771FD42480068000D26
S1130E504007400F012803D17548FFF767FD02E002
S1130E607448FFF763FD3B480068000C4007400FDF
S1130E7000280BD0022811D00CD3042816D011D38B
S1130E8006281BD016D307281CD01FE06A48FFF79A
S1130E904DFD1EE06948FFF749FD1AE06848FFF779
S1130EA045FD16E06748FFF741FD12E06648FFF78D
S1130EB03DFD0EE06548FFF739FD0AE06448FFF7A1
S1130EC035FD06E06348FFF731FD02E06248FFF7B5
S1130ED02DFD0F200400A4B221006048FFF726FD79
S1130EE000F048F85E480068000E0007000F002874
S1130EF00CD001280ED0032810D0052812D00728C2
S1130F0014D0092816D00F2818D01BE05548FFF735
S1130F100DFD1AE05448FFF709FD16E05348FFF7AA
S1130F2005FD12E05248FFF701FD0EE05148FFF7BE
S1130F30FDFC0AE05048FFF7F9FC06E04D48FFF7D6
S1130F40F5FC02E04D48FFF7F1FC10BD00810440C0
S1130F500A0A0000248004400A4B30000A4B310086
S1130F600A4B32000A4B33000A4B3400241A0000A7
S1130F703400000080B5424803210170414800213B
S1130F80017041480021017040480021017040482F
S1130F90012101703F48802101703E48007800061D
S1130FA0FBD53D480078C0B200903C480378DBB2E2
S1130FB03B480278D2B23B480178C9B23A48FFF7BD
S1130FC0B5FC2F48032101702E48002101702E48E2
S1130FD0002101702D48042101702D480121017068
S1130FE02C48802101702B4800780006FBD52A4844
S1130FF00078C0B2009029480378DBB22848027810
S1131000D2B228480178C9B22848FFF78FFC01BD45
S113101035000000F8180000FC1D00000C1E000044
S11310201C1E00002C1E00003C1E000024190000A1
S1131030C01A000050190000B01C0000C41C0000BD
S1131040D81C0000EC1C0000001D0000141D000052
S1131050281D00003C1D0000F01B0000501D000076
S11310604C800440FC160000381700007417000080
S1131070B0170000EC170000281800000C1C00003A
S1131080070002400600024005000240040002403E
S11310900F00024000000240080002400900024024
S11310A00A0002400B0002404C1A00007C1B0000A6
S11310B0F0B583B02148224988420FD000200400B3
S11310C08220C000844209D2042060431B490422C8
S11310D062431B4B9A580A50641CF1E7174800F00E
S11310E037FA18491848194A0192019A121A140039
S11310F02200541E002A04D002780A70401C491CA5
S1131100F6E7134A134B0093009B9B1A1C00230021
S11311105C1E002B03D000231370521CF7E70E4B08
S11311200E4D0F4E771B3C0027007C1E002F04D071
S11311302F781F706D1C5B1CF6E7F7BD00F0FF1FD6
S1131140000000000000000000000000000000009B
S113115010F4FF1F24F4FF1F24F4FF1F00000000FD
S11311600000000000B583B042480068F8218901FE
S113117001434048016040480078000705D53E48D7
S11311800078082101433C48017000F067F83B48AF
S1131190802149020160012001901820009004235D
S11311A0012200213648FFF72DFC364908603548F6
S11311B00068FF2800DCFEE733480068802149020C
S11311C00143314801602F4800680221FFF7C6FB44
S11311D0FA218900FFF7C2FB2C49086029480068FE
S11311E0FA218900FFF7BAFB2949086028480068FA
S11311F022490968090F491CFFF7C4FB2549086007
S1131200244800681D490968090C4907490F491C0D
S1131210FFF7B8FB2049086000F010F81F48C02110
S1131220890001601E48C02189000160E122520248
S1131230194801681B4800F0B5F907BD80B51A4884
S11312408021490001601848006890210903014386
S1131250154801601E2000F07EF901BD1048A02150
S1131260C900016008480068402101430648016044
S1131270704700003880044002D007404480044096
S113128000127A0010F4FF1F0480044020F4FF1FB2
S113129014F4FF1F18F4FF1F1CF4FF1F10B00440C8
S11312A00CB0044000B006401090044080B557488C
S11312B00078800602D55648FFF738FB534800787B
S11312C0000702D55348FFF731FB50480078400728
S11312D002D55148FFF72AFB4C480078800702D515
S11312E04E48FFF723FB4E480078000602D54D48D0
S11312F0FFF71CFB4A480078400602D54A48FFF72E
S113130015FB47480078800602D54848FFF70EFBD6
S113131043480078400702D54548FFF707FB40489B
S11313200078000702D54348FFF700FB3C480078EB
S1131330800702D54048FFF7F9FA39480078C0071A
S11313404DD53E48FFF7F2FA3D480078C0B2400759
S1131350400F032802D13B48FFF7E8FA38480078E9
S1131360C0B24007400F042806D137480078400730
S113137002D13648FFF7DAFA31480078C0B24007A4
S1131380400F042809D130480078C0B24007400F0C
S1131390012802D12E48FFF7C9FA29480078C0B2C3
S11313A04007400F042809D127480078C0B24007FD
S11313B0400F022802D12748FFF7B8FA20480078E6
S11313C0C0B24007400F042809D11F480078C0B2BA
S11313D04007400F032802D11F48FFF7A7FA10481F
S11313E00078C0B2002810D108480078C0B20028A4
S11313F00BD10B480178C9B21848FFF797FA034894
S11314000178C9B21648FFF791FA01BD01F007400F
S11314109C1A00008C1D00009C1D00009C1B0000F9
S113142000F00740AC1D00009C1C0000281C0000BC
S11314305C1B0000B81B0000D41B0000CC1800008B
S113144001E007404C1E000002E00740BC1D000004
S1131450CC1D0000DC1D0000EC1D0000D4190000B0
S1131460FC1900002B48FFF761FA2B480068802123
S1131470C9000143284801602848802149000160CF
S1131480274800688021C902014325480160254896
S113149000688021C9020143224801601E48006897
S11314A08021C90001431C4801601F488021490074
S11314B001601B480068802109030143184801604A
S11314C01848006880210903014316480160124846
S11314D000688021490101430F48016013488021BD
S11314E0490001601248022101601248006802218B
S11314F001431048016010488021090301600F482E
S113150000F01EF806488021090301600B4800F032
S113151017F8F0E73C1B00003880044048A0044062
S113152044F00F4054F00F404CA0044004C0044069
S1131530C4F00F40D4F00F4048F00F4040420F0079
S113154000B500221100814201DA491CFBE700BD0D
S113155010490860704770B50400312C03DB0E4855
S1131560FFF7E4F915E00D48056801262000202165
S1131570FFF7F4F98E402E430848066008480568D2
S1131580012620002021FFF7E9F98E402E4304486C
S1131590066070BD08ED00E06418000080E200E021
S11315A000E100E0F8B504000D0016001D48844277
S11315B007D11D4800688021090101431A480160D0
S11315C006E019480068802149010143164801607A
S11315D0E078F3210140E1700020A070FA2080003F
S11315E0684310217143FFF7B9F907006846217871
S11315F0E0220A40027068460078390089B2090A7C
S1131600C906C90E0143217038006070E0780C21CE
S11316100143E170F1BD00B502791206FCD5C17138
S113162000BD000000B006403480044080B5274867
S113163001682748FFF77AF901BD80B5254800689D
S1131640802149040143234801602348FFF76EF9D0
S113165001BD80B52148FFF769F921480068009071
S11316601F480068C0070CD51E48FFF75FF91C48E7
S113167000684007400F1A4908601B4805210160B3
S113168021E01748006880070FD51848FFF74EF986
S1131690134800684007400F1149086012480521AB
S11316A001600F48102101600DE00D4800684007FB
S11316B006D50F48FFF73AF90E480021016002E011
S11316C00D48FFF733F901BD0000000004ED00E010
S11316D09C18000010900440E41A0000641D0000EF
S11316E014D003407C19000000D00340A819000066
S11316F0081B000008D00340401C0000466C6173C6
S1131700682073697A653A202038204B4220707231
S11317106F6772616D20666C6173682C20302E32A5
S113172035204B422070726F74656374696F6E204C
S1131730726567696F6E0000466C61736820736937
S11317407A653A20203136204B422070726F6772DE
S1131750616D20666C6173682C20302E35204B42FD
S11317602070726F74656374696F6E207265676947
S11317706F6E0900466C6173682073697A653A205C
S1131780203332204B422070726F6772616D206685
S11317906C6173682C2031204B422070726F746529
S11317A06374696F6E20726567696F6E090000006B
S11317B0466C6173682073697A653A202036342058
S11317C04B422070726F6772616D20666C61736842
S11317D02C2032204B422070726F74656374696FE1
S11317E06E20726567696F6E09000000466C617354
S11317F0682073697A653A2020313238204B4220C0
S113180070726F6772616D20666C6173682C20342E
S1131810204B422070726F74656374696F6E20721E
S11318206567696F6E090000466C617368207369AF
S11318307A653A2020323536204B422070726F6729
S113184072616D20666C6173682C2034204B4220D9
S113185070726F74656374696F6E20726567696F07
S11318606E0900000A4552522120496E76616C6966
S113187064204952512076616C75652070617373E0
S1131880656420746F20656E61626C652069727195
S11318902066756E6374696F6E210A000A2A2A2A0B
S11318A02A64656661756C745F69737220656E7411
S11318B065726564206F6E20766563746F7220258F
S11318C0642A2A2A2A2A0D0A0A0000005B6F75740A
S11318D05352535D57616B65757020626974207350
S11318E065742066726F6D206C6F7720706F7765FA
S11318F072206D6F646520000A556E7265636F67B0
S11319006E697A6564204B696E65746973207375BA
S1131910622D66616D696C79206465766963652EF4
S11319200A0000000A556E7265636F676E697A6516
S113193064204B696E65746973207061636B6167C1
S11319406520636F64652E20202020202000000085
S11319500A556E7265636F676E697A6564204B69B8
S11319606E657469732066616D696C792061747445
S11319707269627574652E0A000000005352544364
S11319802074696D6520696E76616C696420696E86
S11319907465727275707420656E74657265642EF8
S11319A02E2E0D0A00000000535254432074696D1A
S11319B065206F766572666C6F7720696E746572E8
S11319C07275707420656E74657265642E2E2E0DAA
S11319D00A0000005B6F75745352535D52434D5FB0
S11319E053525330206973205A45524F2020203DD2
S11319F0202523303258200D0A0000005B6F7574D7
S1131A005352535D52434D5F5352533120697320F7
S1131A105A45524F2020203D202523303258200D96
S1131A200A0000000A556E7265636F676E697A6515
S1131A3064204B696E657469732066616D696C79A5
S1131A40206465766963652E0A000000466C617344
S1131A506820706172616D65746572207665727359
S1131A60696F6E2025642E25642E25642E25640A54
S1131A700000000010B5074979441831064C7C4435
S1131A80163404E0081D0A68891888470100A14239
S1131A90F8D110BD98000000A400000053746F70CA
S1131AA0204D6F64652041636B6E6F776C6564676E
S1131AB065204572726F722052657365740A000066
S1131AC0204C6F7720506F776572204C696E6520CB
S1131AD07769746820436F72746578204D302B0ADF
S1131AE00A0000000A2A2A2A2A41626F72742062BC
S1131AF07574746F6E20696E746572727570742A71
S1131B002A2A2A0A0A0000005352544320616C61B5
S1131B10726D20696E7465727275707420656E746E
S1131B20657265642E2E2E0D0A000000ABEEFFFFD9
S1131B301400000010F4FF1F000000000A52756E2C
S1131B406E696E672074686520626C696E6B7920BB
S1131B5070726F6A6563742E0A0000004C6F7373B1
S1131B60206F662045787465726E616C20436C6FDB
S1131B70636B2052657365740A000000466C6173E0
S1131B80682076657273696F6E2049442025642E3F
S1131B9025642E25642E25640A000000436F7265B7
S1131BA0204C6F636B7570204576656E74205265AA
S1131BB07365740A000000004C6F7373206F662015
S1131BC04C6F636B20696E20504C4C2052657365DA
S1131BD0740A00004C6F772D766F6C746167652012
S1131BE04465746563742052657365740A0000006B
S1131BF00A556E7265636F676E697A656420535225
S1131C00414D2053697A652E0A0000004552522145
S1131C102120556E646566696E656420666C617327
S1131C20682073697A650A005761746368646F6732
S1131C3028434F50292052657365740A0000000040
S1131C404E6F2076616C696420466C616720776111
S1131C507320736574210A0000F009F8002801D08C
S1131C60FFF708FF0020FFF7FDFB00F002F801205A
S1131C70704780B500F002F801BD00000746384601
S1131C8000F002F8FBE70000C046C046024A11001B
S1131C901820ABBEFBE700BF260002004578746540
S1131CA0726E616C2050696E2052657365740A000F
S1131CB05352414D2053697A653A20302E35204BDA
S1131CC0420A00005352414D2053697A653A20205C
S1131CD031204B420A0000005352414D2053697A8F
S1131CE0653A202032204B420A0000005352414DF5
S1131CF02053697A653A202034204B420A000000C0
S1131D005352414D2053697A653A202038204B4282
S1131D100A0000005352414D2053697A653A20204D
S1131D203136204B420A00005352414D2053697A08
S1131D30653A20203332204B420A00005352414D71
S1131D402053697A653A20203634204B420A000039
S1131D5053696C69636F6E207265762025640A206E
S1131D6000000000535254435F49535220656E747F
S1131D70657265640D0A000010B504002100C9B243
S1131D800148FFF748FC10BD00B006404D444D2DFE
S1131D9041502052657365740A000000536F6674E5
S1131DA0776172652052657365740A00506F7765B8
S1131DB0722D6F6E2052657365740A00564C4C5335
S1131DC0302065786974200A00000000564C4C539A
S1131DD0312065786974200A00000000564C4C5389
S1131DE0322065786974200A00000000564C4C5378
S1131DF0332065786974200A000000003830706967
S1131E006E2020202020202000000000383170693E
S1131E106E2020202020202000000000313030706F
S1131E20696E202020202020000000003132317013
S1131E30696E2020202020200000000031343470FE
S1131E40696E202020202020000000004C4C5320EC
S1131E5065786974200A0000C046C046C046C04682
S1071E60FFF7FAFE8C
S9031E5985
