S3150000000000300020250400003504000035040000FF
S3150000001035040000350400003504000035040000F6
S3150000002035040000350400003504000035040000E6
S3150000003035040000350400003504000035040000D6
S3150000004035040000350400003504000035040000C6
S3150000005035040000350400003504000035040000B6
S3150000006035040000350400003504000035040000A6
S315000000703504000035040000350400003504000096
S315000000803504000035040000350400003504000086
S31500000090350400003504000019090000350400008D
S315000000A03504000035040000350400003504000066
S315000000B03504000035040000350400003504000056
S315000004100348854600F094FB004800476109000048
S31500000420003000200148804701480047370400009B
S3150000043011040000704762486249886000206249E2
S3150000044008606248806B0B21490208435F49886354
S315000004505F485E49403148605C48406801210904B4
S3150000046008435A4948605B48006803218904884369
S315000004705849086055484068012149068843491093
S3150000048008435249486054488068544908405249D4
S3150000049088600846C068514908404F49C8608920AD
S315000004A04F49087024204F4948709A200870084622
S315000004B0C078C006C00EC87000BF4A4880791021B7
S315000004C00842FAD100BF474880790C210840082825
S315000004D0F9D18920424908709A204249087024209F
S315000004E04870012008714020487100BF3D4880795E
S315000004F00C2108400828F9D100BF3A4880794021EC
S315000005000842FAD08920364908701A203549087001
S3150000051024204870012008714020487100BF3148EE
S3150000052080790C2108400C28F9D170472E48407973
S31500000530E02108402C49487108460079F821084016
S315000005402949087129480078DC21084050210843D0
S315000005502649087008464078DC21084040210843B7
S315000005602249487008468078E62108401F4988706D
S3150000057000201F490870154840680121C9068843B4
S3150000058049100843114948601348006901210906CA
S3150000059088430721090208430F49086115480321CA
S315000005A0090240184068FF210904884311490322C3
S315000005B012028918486000BF62B600BF704700008B
S315000005C00000000000ED00E00081044000800440CF
S315000005D0000001100070044040900440FFF8FFFE48
S315000005E0005006400040064000F0074000D007409B
S315000005F000E0074000E100E0014641484160414A11
S31500000600D26B01231B061A433E4BDA6300223E4B94
S315000006101A605A60DA6000233B4A5361D361536221
S31500000620D3625363394A384B9A602C23364A536156
S3150000063000239361364A5268364B1A4001239B02C7
S315000006401A43334B5A600822026001222E4B1A606D
S31500000650314A5060704701462B4A126898239A43E4
S31500000660294B1A6000222C4B5A60704701460A46F5
S31500000670254800689823984313681843224B18604E
S3150000068000207047014620480068982290431E4A81
S3150000069010600020704701461B484068704730B51F
S315000006A00346002901D0822030BD1C48405C00284A
S315000006B001D00920F8E794B213480C30184D6D5C50
S315000006C0ED00401944601148824201D99820EBE7B9
S315000006D00020E9E710B50346002901D0822010BDAD
S315000006E00E48405C002801D00920F8E706480C3087
S315000006F00B4C645CE4000019406810600020EEE7D3
S31500000700000000200080044000800340FFFF00003E
S3150000071000C00440FFFCFFFE28000020830B000001
S31500000720820B0000014646484160464AD26B0123CF
S315000007309B061A43434BDA630022434B1A605A6006
S31500000740DA600023404A5361404A3F4B9A602C22AC
S31500000750DA6000233C4A13612C2353610023936122
S315000007603B4A92683B4B1A4003231B021A43384B01
S315000007709A601A46D268374B1A4003231B021A4363
S31500000780334BDA600822026001222F4B1A60324A8C
S315000007901060704701462C4A126898239A432A4BE8
S315000007A01A6000222C4B1A60704701460A462648FA
S315000007B000689823984313681843234B1860002059
S315000007C07047014620480068982290431E4A1060F0
S315000007D00020704701461C484068704730B5034604
S315000007E0012901D9822030BD1C48405C002801D077
S315000007F00920F8E794B214480C30194D6D5CED00F1
S31500000800401944601148824201D99820EBE7002044
S31500000810E9E710B50346012901D9822010BD0F482A
S31500000820405C002801D00920F8E707480C300C4C42
S31500000830645CE4000019406810600020EEE70000E8
S31500000840080000200080044000A00340FFFF0000D5
S3150000085040A00440FFFBFFFE28000020860B00009E
S31500000860840B000010B5014631480160314A106022
S31500000870314AD26B0123DB051A432F4BDA63002280
S315000008802E4B1A6000232E4A93600123D3602D4A13
S315000008902B4B1A602C4A03231B02D2185269BF2322
S315000008A01B049A4301239B051A43274B0324240266
S315000008B01B195A61244A126801239B051A43224BCD
S315000008C01A6002231E4A9360204A906010BD0146BA
S315000008D01B4A926852085200194B9A60174A1268CE
S315000008E002239A43921C154B1A600022174B9A60FA
S315000008F0704701461248806840084000401C104A74
S3150000090090600020704701460D488068400840000E
S315000009100B4A90600020704710B506480468012114
S315000009200748C1600068206800F013F810BD000099
S3150000093010000020140000200080044000700340D6
S3150000094000710340BF27090000E100E028000020F5
S3150000095070470121014A11707047000018000020FD
S31500000960002600270024FFF7E1FD0020FFF7DAFE4E
S315000009706D4908600020FFF73FFE6C4908600020C3
S31500000980FFF770FF6A490860324600216648006832
S31500000990FFF724FF3246012163480068FFF71EFF78
S315000009A03246002160480068FFF779FE5E4800681D
S315000009B0FFF7FBFE0546002D00D0FFBE5B48006832
S315000009C0FFF754FE0546002D00D0FFBE58480068CC
S315000009D0FFF78FFF0546002D00D0FFBEA2E0554869
S315000009E000780028FAD00020524908707F1C52482F
S315000009F00078002802D05148361801E04F48361AD0
S31500000A00002C12D13246002147480068FFF7E6FE67
S31500000A100022012144480068FFF7E0FE002211464B
S31500000A2041480068FFF73BFE67E0012C12D1002227
S31500000A3011463D480068FFF7D1FE324601213A488B
S31500000A400068FFF7CBFE0022114637480068FFF723
S31500000A5026FE52E0022C12D10022114632480068CE
S31500000A60FFF7BCFE002201212F480068FFF7B6FE03
S31500000A70324600212C480068FFF711FE3DE0032CAA
S31500000A8012D13246002128480068FFF7A7FE3246F9
S31500000A90012125480068FFF7A1FE002211462248E1
S31500000AA00068FFF7FCFD28E0042C12D10022114655
S31500000AB01D480068FFF792FE324601211A48006879
S31500000AC0FFF78CFE3246002117480068FFF7E7FD66
S31500000AD013E0052C11D13246002113480068FFF7B8
S31500000AE07DFE0022012110480068FFF777FE32469E
S31500000AF000210D480068FFF7D2FD282F12D10027EC
S31500000B000D480078002801D1012000E000200A49A4
S31500000B10087008460078002804D0601CC4B2062C71
S31500000B2000D100245BE700001C000020200000200C
S31500000B302400002018000020190000208F02000069
S31500000B40064C0125064E05E02046E36807C82B4300
S31500000B5098471034B442F7D3FFF75EFC880B0000C9
S31500000B60A80B000002E008C8121F08C1002AFAD12B
S31500000B7070477047002001E001C1121F002AFBD117
S31500000B807047010000010000A80B000000000020D3
S31500000B9028000000640B0000D00B00002800002095
S31500000BA00C000000740B00000000000000000000B4
S31500000BB0000000000000000000000000000000002F
S31500000BC0000100000000000000000000000000001E
S70500000411E5
