S01B0000756172745F73747265616D5F66726565646F6D2E7372656321
S1130000F82F00201104000075160000751600007A
S113001075160000751600007516000075160000B0
S113002075160000751600007516000075160000A0
S11300307516000075160000751600007516000090
S11300407516000075160000751600007516000080
S11300507516000075160000751600007516000070
S11300607516000075160000751600007516000060
S11300707516000075160000751600007516000050
S11300807516000075160000751600007516000040
S11300907516000075160000751600007516000030
S11300A07516000075160000751600007516000020
S11300B07516000075160000751600007516000010
S11300C07516000075160000751600007516000000
S11300D075160000751600007516000075160000F0
S11300E075160000751600007516000075160000E0
S11300F075160000751600007516000075160000D0
S113010075160000751600007516000075160000BF
S113011075160000751600007516000075160000AF
S1130120751600007516000075160000751600009F
S1130130751600007516000075160000751600008F
S113014075160000751600009B1600007516000059
S1130150751600007516000075160000751600006F
S1130160751600007516000075160000751600005F
S1130170751600007516000075160000751600004F
S1130180751600007516000075160000751600003F
S11301907516000075160000751600008316000021
S11301A0751600007516000075160000751600001F
S11301B0751600007516000075160000751600000F
S11301C075160000751600007516000075160000FF
S11301D075160000751600007516000075160000EF
S1130400FFFFFFFFFFFFFFFFFFFFFFFFFEFFFFFFF9
S113041000200021002200230024002500260027BC
S113042062B600F0AFFAFEE710B50C0011680129BE
S113043002D0022904D009E0C0B25168884705E01F
S1130440916808709068401C9060FFE72068401C29
S1130450206010BDF0B51C000026050000202870A7
S11304606D1C002A1CD00F68002F09D13020287081
S1130470761C3000F0BD30320F002A706D1C761CE3
S1130480002FF6D03800210000F02CFA01000800FB
S113049060433A1A002AEED5D04302003132EBE72A
S11304A00F68002F08D130202870761CE1E737311F
S11304B0070029706D1C761C002FDAD0380021004B
S11304C000F024FA01006143791A0A29EFD230318D
S11304D0EEE7F8B50F0015001E00040005E0320039
S11304E029003020FFF7A0FF641CBC42F7DBF1BDFC
S11304F0F8B50F0015001E00040005E032002900C5
S11305002020FFF791FF641CBC42F7DBF1BDF1B57D
S113051090B01700002000900E0005E0109A694684
S11305201800FFF781FF761C3378002B00D1C4E15B
S1130530252B12D00A2B05D0109A69461800FFF714
S113054073FF09E0109A69460D20FFF76DFF109ABA
S113055069460A20FFF768FFE5E70025002102E06D
S113056028000125054300291FD1761C3078202856
S11305700CD0232812D02B2804D02D28F0D03028DA
S113058008D00FE0280002250543ECE728000425E5
S11305900543E8E7280008250543E4E7280010257B
S11305A00543E0E7761E0121DDE7002002900021EB
S11305B005E002980A225043C018303802900029FE
S11305C008D1761C3378180030380928F1D9761E02
S11305D00121F4E7761C30782E280BD10021FFE7A7
S11305E0002908D1761C307830380928F8D9761ECD
S11305F00121F5E7761E761C30784C2806D0682851
S113060002D06C2801D002E002E001E000E0761E96
S1130610761C33781800582871D0622800D1CAE0BB
S1130620632800D113E1642813D0692811D06E28FF
S113063000D13DE16F2800D1B2E0702800D1C5E0BF
S1130640732800D10BE1752800D1CAE0782856D070
S113065064E7386806903F1D0A23012206A907A80B
S1130660FFF7F8FE040007A8001905900698002873
S113067003D52D200190641C0DE0A80703D52B2081
S11306800190641C07E0680703D520200190641CD6
S113069001E00020019000200490280711D5019862
S11306A0002804D0109A69460198FFF7BDFE012086
S11306B00490109B6A4602992000FFF70AFF029CEF
S11306C011E0E8070FD4109B6A4602992000FFF757
S11306D00FFF0198002804D0109A69460198FFF78B
S11306E0A3FE012004900498002807D10198002853
S11306F004D0109A69460198FFF796FE9AE038688C
S113070003903F1D1023002203A907A8FFF7A2FEB0
S1130710040007A80019059000200490280715D5A7
S1130720E8060BD5109A69463020FFF77DFE109A33
S113073069467820FFF778FE01200490109B6A46F2
S113074002992000FFF7C5FE029C18E0E80716D4C2
S1130750E80600D5A41C109B6A4602992000FFF706
S1130760C7FEE8060BD5109A69463020FFF75CFEF9
S1130770109A69467820FFF757FE01200490E80696
S11307800DD5049800280AD1109A69463020FFF745
S11307904BFE109A69467820FFF746FEA41C49E0F8
S11307A0386803903F1D0823002203A907A8FFF718
S11307B051FE04001FE0386803903F1D022300220D
S11307C003A907A8FFF746FE040014E03868039065
S11307D03F1D1023002203A907A8FFF73BFE0400D6
S11307E009E0386803903F1D0A23002203A907A8E3
S11307F0FFF730FE040007A800190590280707D565
S1130800109B6A4602992000FFF763FE029C11E0E8
S1130810E8070FD4109B6A4602992000FFF768FE90
S113082008E0109A694605980078FFF7FDFD0598E1
S1130830401E0590059800780028F2D1E80705D5F8
S1130840109B6A4602992000FFF752FE6BE6386857
S1130850C0B23F1D109A6946FFF7E6FD63E63868AB
S113086001903F1D0198002821D0019800F065F8FF
S11308700400E8070FD4109B6A4602992000FFF792
S113088037FE08E0109A694601980078FFF7CCFD1E
S11308900198401C0190019800780028F2D1E807E3
S11308A005D5109B6A4602992000FFF721FE3AE61F
S11308B038683F1D0099016035E6009811B0F0BD1D
S11308C00EB400B584B0012100910549019105AA37
S11308D001006846FFF71BFE049908B008470000B2
S11308E09D140000CA0F00D0494203105A400DD095
S11308F004B500D3404200F009F8009AD20701D3AE
S11309004942124200D5404204BD0000094210D0C1
S113091088420BD30122002300185B418B4200D391
S11309205B1A5241F8D319001000704701000020EF
S1130930704708B500F010F808BD00B501000020AC
S1130940002902D1002006E0401C0A001100491CC5
S11309501278002AF8D100BD704738B40121002272
S11309600368001D002B0BD00468001D0C4202D04C
S11309704D466D1E64192260241D1B1FF0D0FAE73A
S113098032BC704777480021016000F09DF900F007
S1130990EDF975A0FFF794FF00F094FA00F003F866
S11309A000F06CFBFEE780B570480068000F40075C
S11309B0400F002806D002280CD007D3042811D0F9
S11309C00CD313E06AA0FFF77BFF12E069A0FFF7E6
S11309D077FF0EE068A0FFF773FF0AE067A0FFF758
S11309E06FFF06E066A0FFF76BFF02E06548FFF7C4
S11309F067FF5E480068000E4007400F042802D0DD
S1130A00052804D007E060A0FFF75AFF06E086A09F
S1130A10FFF756FF02E08548FFF752FF534800688E
S1130A200007000F062807D01AD308280CD007D3D4
S1130A300A2811D00CD313E07D48FFF741FF12E0E0
S1130A407C48FFF73DFF0EE07B48FFF739FF0AE0E3
S1130A507A48FFF735FF06E07948FFF731FF02E0F7
S1130A607848FFF72DFF41480068000D4007400F0C
S1130A70012803D17448FFF723FF02E07348FFF70E
S1130A801FFF3A480068000C4007400F00280BD0B5
S1130A90022811D00CD3042816D011D306281BD059
S1130AA016D307281CD01FE06948FFF709FF1EE092
S1130AB06848FFF705FF1AE06748FFF701FF16E0F3
S1130AC06648FFF7FDFE12E06548FFF7F9FE0EE009
S1130AD06448FFF7F5FE0AE06348FFF7F1FE06E01D
S1130AE06248FFF7EDFE02E06148FFF7E9FE0F21DF
S1130AF089B26048FFF7E4FE00F048F85E480068F9
S1130B00000E0007000F00280CD001280ED0032887
S1130B1010D0052812D0072814D0092816D00F2881
S1130B2018D01BE05548FFF7CBFE1AE05448FFF7F6
S1130B30C7FE16E05348FFF7C3FE12E05248FFF722
S1130B40BFFE0EE05148FFF7BBFE0AE05048FFF736
S1130B50B7FE06E04D48FFF7B3FE02E04D48FFF74D
S1130B60AFFE01BD008104400A0A00002480044055
S1130B700A4B30000A4B31000A4B32000A4B330057
S1130B800A4B3400681A00003400000080B5424863
S1130B900321017041480021017041480021017086
S1130BA04048002101704048012101703F488021E4
S1130BB001703E4800780006FBD53D480078C0B27D
S1130BC000903C480378DBB23B480278D2B23B4801
S1130BD00178C9B23A48FFF773FE2F480321017028
S1130BE02E48002101702E48002101702D48042157
S1130BF001702D48012101702C48802101702B487F
S1130C0000780006FBD52A480078C0B20090294835
S1130C100378DBB228480278D2B228480178C9B2F6
S1130C202848FFF74DFE01BD350000003C190000C7
S1130C300C1E00001C1E00002C1E00003C1E0000A8
S1130C404C1E000068190000041B000094190000E9
S1130C50D41C0000E81C0000FC1C0000101D000057
S1130C60241D0000381D00004C1D0000601D000004
S1130C70141C0000741D00004C8004404017000048
S1130C807C170000B8170000F417000030180000AB
S1130C906C180000301C00000700024006000240EF
S1130CA005000240040002400F0002400000024020
S1130CB008000240090002400A0002400B00024002
S1130CC0901A0000A01B000010B51E481E4988425F
S1130CD00ED0002008E0042141431A4A0423434370
S1130CE0194CE3585350401C8221C9008842F2D366
S1130CF0144800F0F9F91549154A1648801A03E01A
S1130D0013780B70521C491C0300581E002BF7D19A
S1130D1011491248401A02E000220A70491C0200DC
S1130D20501E002AF8D10E490E4A0F48801A03E0DB
S1130D3013780B70521C491C0300581E002BF7D16A
S1130D4010BD00BF00F0FF1F000000000000000005
S1130D50000000000000000010F4FF1F24F4FF1F37
S1130D6024F4FF1F000000000000000000B583B061
S1130D7045480068F821890101434348016043481C
S1130D800078000705D541480078082101433F4811
S1130D90017000F06EF83E48802149020160012094
S1130DA0019018200090042301220021394800F00A
S1130DB0C5F93949086038480068FF2800DCFEE7B7
S1130DC036480068802149020143344801603248B2
S1130DD000680221FFF786FDFA218900FFF782FDF2
S1130DE02F4908602C480068FA218900FFF77AFD32
S1130DF02C4908602B48006825490968090F491CDB
S1130E00FFF784FD284908602748006820490968DD
S1130E10090C4907490F491CFFF778FD234908606D
S1130E2000F017F8224880218900016021488021C0
S1130E3089000160194800688021C90401431748EA
S1130E400160E1225202164801681B4800F0EEFAE4
S1130E5007BD80B519488021490001601748006822
S1130E60902109030143154801601E2000F03FF959
S1130E7001BD1348A021C900016008480068402151
S1130E8001430648016070473880044002D007409F
S1130E904480044000127A0010F4FF1F04800440D0
S1130EA020F4FF1F14F4FF1F18F4FF1F1CF4FF1F8E
S1130EB0049004400890044000A0064010900440B0
S1130EC00CB0044080B557480078800602D55648D7
S1130ED0FFF7F6FC53480078000702D55348FFF7A4
S1130EE0EFFC50480078400702D55148FFF7E8FC72
S1130EF04C480078800702D54E48FFF7E1FC4E4885
S1130F000078000602D54D48FFF7DAFC4A4800781D
S1130F10400602D54A48FFF7D3FC474800788006CC
S1130F2002D54848FFF7CCFC43480078400702D577
S1130F304548FFF7C5FC40480078000702D5434800
S1130F40FFF7BEFC3C480078800702D54048FFF715
S1130F50B7FC39480078C0074DD53E48FFF7B0FCD0
S1130F603D480078C0B24007400F032802D13B48F7
S1130F70FFF7A6FC38480078C0B24007400F0428A9
S1130F8006D137480078400702D13648FFF798FC6D
S1130F9031480078C0B24007400F042809D13048D6
S1130FA00078C0B24007400F012802D12E48FFF755
S1130FB087FC29480078C0B24007400F042809D1B3
S1130FC027480078C0B24007400F022802D12748C2
S1130FD0FFF776FC20480078C0B24007400F042891
S1130FE009D11F480078C0B24007400F032802D13E
S1130FF01F48FFF765FC10480078C0B2002810D1E4
S113100008480078C0B200280BD10B480178C9B257
S11310101848FFF755FC03480178C9B21648FFF792
S11310204FFC01BD01F00740E01A00009C1D0000C8
S1131030AC1D0000C01B000000F00740BC1D0000F8
S1131040C01C00004C1C0000801B0000DC1B0000C6
S1131050F81B00001019000001E007405C1E0000AE
S113106002E00740CC1D0000DC1D0000EC1D000068
S1131070FC1D0000181A0000401A00001448006803
S11310808021C900014312480160124880214900AF
S11310900160114800688021C90201430E480160C3
S11310A00E4800688021C90201430C4801600CE02D
S11310B00B48005D00F0F2F9641CE120400084421A
S11310C0F6D308488021C90201600024F5E700BF77
S11310D03880044048A0044044F00F4054F00F40CE
S11310E0B01400004CF00F4010490860704770B510
S11310F00400312C03DB0E48FFF7E2FB15E00D483A
S11311000568012620002021FFF7ECFB8E402E43CA
S11311100848066008480568012620002021FFF7DA
S1131120E1FB8E402E430448066070BD08ED00E0EC
S1131130A818000080E200E000E100E0F4B504003B
S11311400D001E00A6480078C0B280088007800FFA
S1131150002807D1A2480078C00603D5A04800782B
S1131160800601D5012039E19E48844201DB21201B
S113117034E168460078002806D09B48201A9B4931
S1131180884201D3222029E1EDB2012D00D30125AB
S11311903000401EC0B2192801D341201EE1694627
S11311A018200F5638001838C0B21B2801D342202B
S11311B014E1200076B23100FFF794FB8C49401A09
S11311C08C49884201D3432008E1200076B23100E3
S11311D0FFF788FB7FB278438749401A87498842E2
S11311E001D34520FAE0864800780100C320084076
S11311F084498C420ADA0100EDB2E8006A461278AA
S11312009200024310201043084309E00100EDB2AC
S1131210E8006A46127892000243202010430843F3
S1131220774908707848844201DA002114E077484D
S1131230844201DA01210FE07548844201DA022177
S11312400AE07448844201DA032105E072488442CA
S113125001DA042100E00521704800788007800F3E
S11312600200C800382101408020084310436B4924
S1131270087068460078002810D0002000E0401C68
S1131280674900B2884203DA554909788907F6D5D7
S113129053480078800701D423209FE0002000E019
S11312A0401CFA21C90000B2884203DA4C4909788B
S11312B0C906F5D44A480078C00601D511208DE04E
S11312C0002000E0401CFA21C90000B2884207DA7D
S11312D043490978C9B289088907890F0229F1D1DC
S11312E03F480078C0B280088007800F022801D0F0
S11312F01A2073E04B4800782021014349480170CB
S1131300494800780100E02008400100701EC00632
S1131310C00E084344490870424800780100E020A8
S113132008400200183FF906C90E40200843104344
S11313303C490870002000E0401CFA21C90000B2BA
S1131340884203DA264909788906F5D524480078C5
S1131350800601D4162041E0002000E0401CFA2160
S1131360090100B2884203DA1D4909784906F5D516
S11313701B480078400601D444202FE02A48007816
S1131380C106C90E491C27480078C506ED0E18355C
S1131390224800788006800E204A1070002000E069
S11313A0401CFA22D20000B2904207DA0C4A1278AA
S11313B0D2B292089207920F032AF1D1084800781A
S11313C0C0B280088007800F032801D01B2005E0ED
S11313D02000C9B2FFF786FAEDB26843F2BD0000FF
S11313E00640064081F0FA02C0C62D004181BA01D0
S11313F080841E0081841E00006CDC0201751903C8
S11314000140064001127A00D1121300A1252600E2
S1131410414B4C0081969800012D3101004006405B
S1131420204E0000054006400440064010B504006C
S113143008001100144A12688023DB001343124A87
S11314401360E278F3231340E3700022A2700F4A82
S11314501278D206D20E521CFA239B005843D2B201
S11314605143FFF73FFA2178E0220A40010089B294
S1131470090AC906C90E114321706070E0780C2175
S11314800143E17010BD0000348004400AA006400E
S113149000B502791206FCD5C17100BD80B501000A
S11314A0C9B20248FFF7F4FF01BD000000A00640E6
S11314B00A4C6F72656D20697073756D20646F6C72
S11314C06F722073697420616D65742C20636F6E74
S11314D07365637465747572206164697069736996
S11314E063696E6720656C69742C2073656420647D
S11314F06F20656975736D6F642074656D706F72AC
S113150020696E6369646964756E74207574206CF7
S113151061626F726520657420646F6C6F72652000
S11315206D61676E6120616C697175612E205574FF
S113153020656E696D206164206D696E696D207629
S1131540656E69616D2C2071756973206E6F73749B
S113155072756420657865726369746174696F6E0D
S113156020756C6C616D636F206C61626F7269735E
S1131570206E69736920757420616C697175697076
S113158020657820656120636F6D6D6F646F2063E3
S11315906F6E7365717561742E2044756973206173
S11315A075746520697275726520646F6C6F722042
S11315B0696E20726570726568656E6465726974BF
S11315C020696E20766F6C75707461746520766521
S11315D06C697420657373652063696C6C756D2028
S11315E0646F6C6F726520657520667567696174D8
S11315F0206E756C6C612070617269617475722EF5
S1131600204578636570746575722073696E742003
S11316106F63636165636174206375706964617489
S11316206174206E6F6E2070726F6964656E742CC5
S11316302073756E7420696E2063756C70612071FF
S11316407569206F66666963696120646573657294
S1131650756E74206D6F6C6C697420616E696D2099
S1131660696420657374206C61626F72756D2E0AF3
S11316700A00000080B5264801682648FFF720F9D3
S113168001BD80B5244800688021490401432248F3
S113169001602248FFF714F901BD80B52048FFF727
S11316A00FF92048006800901E480068C0070CD558
S11316B01D48FFF705F91B4800684007400F19490A
S11316C008601A480521016021E016480068800777
S11316D00FD51748FFF7F4F8124800684007400F89
S11316E0104908601148052101600E48102101606D
S11316F00DE00C480068400706D50E48FFF7E0F8F7
S11317000D480021016002E00C48FFF7D9F801BD43
S113171004ED00E0E018000010900440281B0000D5
S1131720881D000014D00340C019000000D00340FD
S1131730EC1900004C1B000008D00340641C00009E
S1131740466C6173682073697A653A202038204BAF
S1131750422070726F6772616D20666C6173682CD1
S113176020302E3235204B422070726F74656374C2
S1131770696F6E20726567696F6E0000466C6173F5
S1131780682073697A653A20203136204B422070F4
S1131790726F6772616D20666C6173682C20302EE5
S11317A035204B422070726F74656374696F6E20CC
S11317B0726567696F6E0900466C617368207369AE
S11317C07A653A20203332204B422070726F677260
S11317D0616D20666C6173682C2031204B4220704F
S11317E0726F74656374696F6E20726567696F6E7A
S11317F009000000466C6173682073697A653A20B9
S1131800203634204B422070726F6772616D2066FF
S11318106C6173682C2032204B422070726F7465A7
S11318206374696F6E20726567696F6E09000000EA
S1131830466C6173682073697A653A2020313238C6
S1131840204B422070726F6772616D20666C617309
S1131850682C2034204B422070726F746563746965
S11318606F6E20726567696F6E090000466C617364
S1131870682073697A653A2020323536204B42203D
S113188070726F6772616D20666C6173682C2034AE
S1131890204B422070726F74656374696F6E20729E
S11318A06567696F6E0900000A4552522120496E2E
S11318B076616C6964204952512076616C756520AB
S11318C070617373656420746F20656E61626C650A
S11318D0206972712066756E6374696F6E210A00E7
S11318E00A2A2A2A2A64656661756C745F697372B0
S11318F020656E7465726564206F6E20766563740E
S11319006F722025642A2A2A2A2A0D0A0A00000056
S11319105B6F75745352535D57616B6575702062CC
S11319206974207365742066726F6D206C6F772004
S1131930706F776572206D6F646520000A556E7252
S113194065636F676E697A6564204B696E65746957
S113195073207375622D66616D696C792064657698
S11319606963652E0A0000000A556E7265636F672D
S11319706E697A6564204B696E6574697320706161
S1131980636B61676520636F64652E2020202020CF
S1131990200000000A556E7265636F676E697A6590
S11319A064204B696E657469732066616D696C7936
S11319B0206174747269627574652E0A00000000F7
S11319C0535254432074696D6520696E76616C6965
S11319D06420696E7465727275707420656E7465C6
S11319E07265642E2E2E0D0A0000000053525443DB
S11319F02074696D65206F766572666C6F772069F7
S1131A006E7465727275707420656E746572656447
S1131A102E2E2E0D0A0000005B6F75745352535D19
S1131A2052434D5F53525330206973205A45524FED
S1131A302020203D202523303258200D0A000000AC
S1131A405B6F75745352535D52434D5F5352533120
S1131A50206973205A45524F2020203D20252330F1
S1131A603258200D0A0000000A556E7265636F67D4
S1131A706E697A6564204B696E657469732066616A
S1131A806D696C79206465766963652E0A000000CF
S1131A90466C61736820706172616D657465722053
S1131AA076657273696F6E2025642E25642E256415
S1131AB02E25640A0000000010B507497944183146
S1131AC0064C7C44163404E0081D0A6889188847CB
S1131AD00100A142F8D110BD98000000A40000004C
S1131AE053746F70204D6F64652041636B6E6F7724
S1131AF06C65646765204572726F72205265736508
S1131B00740A0000204C6F7720506F776572204C68
S1131B10696E65207769746820436F7274657820F4
S1131B204D302B0A0A0000000A2A2A2A2A41626F31
S1131B30727420627574746F6E20696E746572724B
S1131B407570742A2A2A2A0A0A0000005352544340
S1131B5020616C61726D20696E7465727275707447
S1131B6020656E74657265642E2E2E0D0A000000C9
S1131B70EBEDFFFF1400000010F4FF1F0000000055
S1131B804C6F7373206F662045787465726E616C58
S1131B9020436C6F636B2052657365740A00000008
S1131BA0466C6173682076657273696F6E20494470
S1131BB02025642E25642E25642E25640A00000049
S1131BC0436F7265204C6F636B7570204576656E4C
S1131BD0742052657365740A000000004C6F7373BF
S1131BE0206F66204C6F636B20696E20504C4C2034
S1131BF052657365740A00004C6F772D766F6C74B0
S1131C006167652044657465637420526573657407
S1131C100A0000000A556E7265636F676E697A6523
S1131C2064205352414D2053697A652E0A00000006
S1131C30455252212120556E646566696E656420A3
S1131C40666C6173682073697A650A00576174630E
S1131C5068646F6728434F50292052657365740A7E
S1131C60000000004E6F2076616C696420466C6150
S1131C70672077617320736574210A0000F009F806
S1131C80002801D0FFF718FF0020FFF7F7F900F054
S1131C9002F80120704780B500F002F801BD000091
S1131CA00746384600F002F8FBE70000C046C0468D
S1131CB0024A11001820ABBEFBE700BF2600020059
S1131CC045787465726E616C2050696E205265733C
S1131CD065740A005352414D2053697A653A2030A5
S1131CE02E35204B420A00005352414D2053697A4D
S1131CF0653A202031204B420A0000005352414DE6
S1131D002053697A653A202032204B420A000000B1
S1131D105352414D2053697A653A202034204B4276
S1131D200A0000005352414D2053697A653A20203D
S1131D3038204B420A0000005352414D2053697A27
S1131D40653A20203136204B420A00005352414D5F
S1131D502053697A653A20203332204B420A00002E
S1131D605352414D2053697A653A20203634204B32
S1131D70420A000053696C69636F6E2072657620B5
S1131D8025640A2000000000535254435F49535213
S1131D9020656E74657265640D0A00004D444D2D16
S1131DA041502052657365740A000000536F6674D5
S1131DB0776172652052657365740A00506F7765A8
S1131DC0722D6F6E2052657365740A00564C4C5325
S1131DD0302065786974200A00000000564C4C538A
S1131DE0312065786974200A00000000564C4C5379
S1131DF0322065786974200A00000000564C4C5368
S1131E00332065786974200A000000003830706956
S1131E106E2020202020202000000000383170692E
S1131E206E2020202020202000000000313030705F
S1131E30696E202020202020000000003132317003
S1131E40696E2020202020200000000031343470EE
S1131E50696E202020202020000000004C4C5320DC
S1131E6065786974200A0000C046C046C046C04672
S1071E70FFF704FF71
S9031E6975
