S00F00004B4C32355A2D50452E68657863
S113000000300020B1400000F54100000142000032
S113001001420000014200000142000001420000D0
S113002001420000014200000142000001420000C0
S113003001420000014200000142000001420000B0
S113004001420000014200000142000001420000A0
S11300500142000001420000014200000142000090
S11300600142000001420000014200000142000080
S11300700142000001420000014200000142000070
S11300800142000001420000014200000142000060
S11300900142000001420000BD4100000142000095
S11300A00142000001420000C13D00000142000085
S11300B00142000001420000014200000142000030
S1130410F0B5C34B061C8000C5588BB02B781B0964
S1130420181C04380393C0B2012383428041404224
S1130430984000D008E29A4200D005E268787F2311
S1130440984300D144E20B88002B00D1A2E1B549C6
S11304508A5D171C002E04D0701EC0B20F5CD71B1F
S1130460FFB2D21BD2B20024012101E00134E4B274
S1130470181C20410842F9D0002102910691201C49
S1130480211C944607936346CA18A74BD2B29B5CBF
S1130490069A0493934203D8029A934205D807E03C
S11304A0049B201C06930C1C02E0049A081C029274
S11304B00B1C079A019000E00B1C0131C9B20E2BF2
S11304C004D9079201980F2907D909E0131C0B419D
S11304D001200342F0D001980792079B0B41D2D12F
S11304E0031B6246DBB2844201D9201AC3B2012B3A
S11304F00DD9781E2979834205D1039B052B02D19E
S11305004023994301E040231943297103E02B79E7
S113051040218B432B71297940230B4000218B42CE
S113052000D066E18C4207D10398052815D1791EC5
S11305300123C9B2079312E0791E8C4207D10398B4
S1130540B91E0793052806D0CBB2079303E0631CBA
S1130550DBB20793611EC9B201E00121079107983C
S11305608018C3B288180293C3B29C466E48029B9B
S1130570C05C6D4B049060461B5C029104996A4810
S1130580994201D9079B029302998B18DBB2C05C94
S1130590664907900868844661460220002904D011
S11305A0A218D2B2301C0121E047039A052A0FD1C8
S11305B0002C03D102997B1E994206D0029A002A8C
S11305C006D17B1E9C4203D101E03C1C00E0029753
S11305D00021022800D00CE1039B052B0AD1391C11
S11305E0534802F0F3F880B20490E879391C0138DA
S11305F0C0B20DE00491012F0ED0013FB9B24C48B6
S113060002F0E4F880B20490E879F9B20138C0B29B
S113061002F0DCF8C0B2059004990798069A029B90
S113062048435100A34205D902F0D0F804994C4341
S1130630041904E0049A544302F0C8F8241A3D4B08
S1130640A4B21B68002B04D0221C301C0121984743
S1130650041CEB792409A4B25C43374B6A461B683B
S11306602732240A1470002B06D00121301C98472D
S11306700021022800D0BCE02B790021DA098A424B
S113068009D1012119401C0705D5AA792B4B002A51
S113069000D16A799A55039CEB78052C1FD1E8792F
S11306A0059C471E3F1B6C462734BB420BDD22785A
S11306B09446059A944506D264460219013AD21A20
S11306C0D2B2012015E02478BC4208DD059A934299
S11306D005D21A18013A121BD2B2022009E06A4666
S11306E0273212789A4201D29A1A00E0D21AD2B270
S11306F000206C4627342478EC70002A40D02F79EF
S1130700FF093DD0A3423FD001281AD0022817D0B8
S11307101A1BD2B2A34213D2E21AD2B2012010E0C1
S11307204050000044500000B8000020A4500000D5
S1130730FF0F00009050000098500000EC000020D3
S11307400020012318408301A8784024A0433F27B8
S113075018433A40B84380235B4202431A43AA70C9
S1130760AA795C4B002A03D16A79002A00D1FF22BE
S11307709A552B790224234206D02143C9B203E0BF
S1130780AB783F229343AB702A7980235B421343B7
S11307902B712EE0498800292BD04F4A1468002C75
S11307A003D0301C191C1A1CA0474C4B1B68002B8F
S11307B003D00021301C0A1C9847494B1B68002BAE
S11307C003D00021301C0A1C984769788B0604D595
S11307D0C906C90E301C01F013FBAA7829797F23BE
S11307E019401340AB703B4B29710022C906C90F55
S11307F09A553848835D002B1AD1AC787F22271C88
S113080097432B79002F0CD022400424AA70234252
S113081001D02143C9B21C070AD56A792D4B9A55D8
S113082006E0934304D06B79082421438355C9B26D
S1130830081E4DD068784023184049D0294BB60093
S11308402878F358984736E0022A02D12879C0095B
S11308503EE0032A03D16878C006C00E38E0042ABB
S11308602BD14022EA711C4A002314686B70AB70D0
S1130870EB702B716B71AB719C4203D0301C191C53
S11308801A1CA047154B1B68002B03D00021301CF9
S11308900A1C9847124B1B68002B03D00021301C04
S11308A00A1C98476B782020184011D0D906C90E2D
S11308B0301C01F0A5FA00200AE0052A05D1687869
S11308C07F23984304D0042002E0062A00D1101CA0
S11308D00BB0F0BDEC000020A450000098500000C4
S11308E0905000003850000038B5124B8000C558B5
S11308F0114BC3581C68012916D12388101C002BE6
S113090010D09A1AE97912B2CD00AA420AD26942E9
S11309108A4207D9094A11784B430131C01801F0C2
S1130920A3FF80B2208003E00020814200D1228016
S113093038BDC046405000003C5000008C500000C0
S1130940F8B51B4B8000C358171C5C68DE6801298E
S113095028D1184B20781D78291C01F07BFFC9B2DF
S113096071180B783A780A703B7022786B00013B5F
S11309709A4210DA6B1E9A4209D17319013B197815
S1130980002302E0F1540133DBB29342FADB237813
S11309900133237000E025702078A842AD416842FD
S11309A0023003E00020814200D12070F8BDC0462F
S11309B03C5000009450000008B5084B185C5B5C88
S11309C06421C018064B40081B785BB2584380B2C0
S11309D001F0FCFE0230C0B208BDC0469000002009
S11309E09D500000F7B5304C8000005984680769B9
S11309F0012948D12D498E5CC95C01916578281E76
S1130A003CD00221019861566DB2091AAD1B4919F7
S1130A1089B208B27E2802DC7E3002DB02E07F214C
S1130A2000E0234920783954224821780078814213
S1130A3001D2013100E00021217000210D1C9C46EF
S1130A4003E07B5601315D19ADB2CBB28342F8D3DA
S1130A5019490F68002F04D0101C6146B847C3B26F
S1130A6001E0164B1B785BB22DB20320AB4205DBD1
S1130A705B42E917DA0F9D425141401A6A461279E6
S1130A806670A2700FE0002081420CD1094B1A78E5
S1130A900B1C01E07B540131CDB200209542F9D307
S1130AA020706070A070FEBD3C500000B8000020B3
S1130AB081FF00009C500000A05000009D500000E9
S1130AC070B50607394B360F141CB200D558F02305
S1130AD01840031C503B5A425341402802D0362050
S1130AE0002B62D0332000295FD0012919D1E306FD
S1130AF001D120239C432021214002D1301C01F04C
S1130B007FF940231C4205D0294AB600B258002A76
S1130B1000D19C432B79002B01D17F231C406C70A6
S1130B2042E0022941D003293FD004291DD11F23CB
S1130B301C40221C08231A4006D00C4202D06A79B9
S1130B40002A0CD19C4304E01A4B995DFF2900D084
S1130B509A55002C03D16A787F2313406B702B794C
S1130B603F2293431C432C711EE005290CD1002C19
S1130B7008D12B79082293432B710E4B9A5DFF2ADF
S1130B8000D09C556C710FE0062901D1AC710BE0CB
S1130B903220072909D13520002B02D0022C04D998
S1130BA001E0012C01D9EC71002070BD405000001F
S1130BB038500000EC00002000B50007034B800E05
S1130BC0C3583220072900D8585C00BD40500000AB
S1130BD010B50B88C01A04B27F3401DA7F2040427A
S1130BE004B27F2C00DD7F2004B2944201DD013386
S1130BF004E052420020944202DA013B0B800620BA
S1130C0010BD10B50B785CB2001B04B27F3401DA5E
S1130C107F20404204B27F2C00DD7F2004B2944246
S1130C2001DD013304E052420020944202DA013B28
S1130C300B70062010BD10B5124A031C515C7F22B4
S1130C400A407F2A1CD01049C978CC0708D50F491F
S1130C50895C022904D10E4B9B5CC01A80B20FE060
S1130C600C490D485200515A125A914201D98A1A1C
S1130C7000E0521A92B20020934201D99B1A98B212
S1130C8010BDC0464001002098000020280100202B
S1130C9090000020C400002038010020024B4000D6
S1130CA01A88024BC25270474A010020C400002037
S1130CB010B5034C011C208803F054F9208010BDAA
S1130CC04A01002010B5034C011C2088FFF7B3FF34
S1130CD0208010BD4A01002010B5044C044A23882A
S1130CE0115C181C01F0C0FD208010BD4A010020D9
S1130CF0B400002010B5074B1C5C0748211C01F010
S1130D00B3FD064B1A88824200DD18801A885443CA
S1130D101C8010BDA8000020FFFF00004A01002035
S1130D2000B57F23984204DC021C81237F3200DB60
S1130D30C3B258B200BD70B51C4B041C1B68002B19
S1130D4003D01B4B4200D3569BB21A4A1268002AA6
S1130D5008D006216143184A8A5619B2914200DA32
S1130D60131C9BB2154D18B229576600144A8142D0
S1130D7004DC2B5536196423935510E03319D65CE3
S1130D80002E02D0013ED65409E00B1C4B43013126
S1130D90C01801F069FD00B2FFF7C2FF2855074BE8
S1130DA01A57032A01DC04221A5570BDCC500000E6
S1130DB0B0000020D05000001401002010010020D9
S1130DC020010020F8B50D1C041C00F02DFD012DA0
S1130DD00AD1664B1B78002B00D1BFE0644B1A5735
S1130DE0824200DBBAE091E0022D0DD1614B1A572B
S1130DF0824200DA1855201CFFF79DFF63001C197E
S1130E005D4B0022E254A9E0032D00D080E0201CB9
S1130E10FFF791FF574B594A195D002926D0155702
S1130E2049B26D18E90F4D196D10EDB21555002238
S1130E301A554F4B6DB218574000FFF771FF4E4ED5
S1130E4085420EDB2D1AEB0F5D196D10281800B2C8
S1130E50FFF766FF63001B19F618FF237070B37069
S1130E6018E063001B19F618707013E04248630021
S1130E701B19C318115D01255D5748B2854209DA73
S1130E809878002802D00138987003E00139115590
S1130E90FF229A70394D364A2B571057400083422F
S1130EA003DA00B2FFF73CFF2855354B03261B78C5
S1130EB0002B0BD0201C00F06DFA324B8200D3586B
S1130EC0002B03D0002106229847061C284B311C16
S1130ED01F5D2A4B7DB21857401B01F0C5FC401919
S1130EE000B2FFF71DFFA84201DC0137F8B2264B20
S1130EF042B21B5D9A4208DA5900CB18D318D817AE
S1130F00800FC3189810FFF70BFF1F4B185525E0EF
S1130F10042D23D1154B164E1B78002B00D13555CB
S1130F20194D2B5D002B04D130574000FFF7F8FE1C
S1130F302855154B185D3357C01A4000C018FFF7E9
S1130F40EFFE0E4B0B4A18550023135561000A4A55
S1130F500C1911197F2048708B70A3540B4B1B681C
S1130F60002B01D0012098470020F8BDD550000087
S1130F7010010020AC00002020010020940000207B
S1130F8059500000485000009000002070500000AC
S1130F90F0B58BB0041C0691062A11D1554A4400C1
S1130FA01419554B554A1B781078637058435449AB
S1130FB00023812201E0CA5401338342FBDB95E024
S1130FC0052A00D092E04B4A43004B49D3185A7883
S1130FD00F78BA4200D387E0484B1D784543A8B246
S1130FE00490049946488A1892B283567F3362D09B
S1130FF07E08AB190022C018111C0190131CA446D2
S113100009E03F484419E4560198A218C45692B224
S1131010611889B20133B342F3DBBB087F20079325
S1131020384B891A02900020019303900BB210B23E
S11310306446089309902FE0079A0599089B881A3B
S11310405843311C01F010FC09994018311C01F07F
S11310500BFC2B4A059953195B566946C01A80B29A
S113106002B20431944600228A5E031C944501DADC
S11310706A46938869469BB2083101930023CB5E8C
S113108002B29A4202DD6A460823985A039B80B250
S113109001339BB20290039368460C21085E0590CD
S11310A0B842C9DB0299019D681A00B2FFF738FE05
S11310B0104B6200D0540F4B6100069D5918104A22
S11310C049787F3506D0049D68466918182589B289
S11310D0285C03E0049D8220691889B2640050549E
S11310E01B195A78013200E000225A7000200BB01C
S11310F0F0BDC046B0000020D6500000585000009B
S1131100E800002081FF0000F7B50C1C062A08D176
S113111050431B4B8CB21A18548094800022C25442
S11311202BE0052A29D106264643154F154BBD1938
S11311306888154A01901B78002151560422A85E44
S11311405BB25843009068460422805E009A48438C
S1131150C91810182018013101F086FB83B26846C3
S113116080886B801BB2A880181BA34200DCE01AA5
S1131170400000B2FFF7D4FDF0550020FEBDC0468C
S113118014010020D8500000D750000000B5084AD0
S1131190084BD178880607D51978002901D19279AE
S11311A01A701A78013A00E092791A7000BDC046AC
S11311B0980000204D01002010B5072404400123AD
S11311C0A340084ADCB2C308011CD05C204207D00B
S11311D0A043D054044B1B68002B01D00420984733
S11311E010BDC046080100205050000000B5022385
S11311F0062808D00823052805D00423072802D090
S1131200431E58424341181C00BD044A0023135492
S1131210034A1354034A13547047C0460401002080
S1131220F40000204801002010B5041CFFF7EDFF76
S1131230034B00221A55034B04221A5510BDC04615
S1131240000100202801002010B50D4A00234400AD
S1131250A352191C0B4A0C4B14781B780B4A1C190B
S113126014540B4A052414540A4A1268002A06D05E
S1131270094A1154002B02D0084B04221A5410BD01
S113128038010020D4500000D55000000401002093
S113129028010020C8500000AC00002010010020EC
S11312A0F8B5041C03250727031C3B4001229A4080
S11312B0131C1B49C208D2B28A5C1A420AD0194BC9
S11312C01B5C043B012B02D8022D02D102E0022553
S11312D000E00425144E83009B5904219847A04242
S11312E0E2D10127042D13D1A3009B59201C032113
S11312F09847071C02280BD1251C281CFFF7A4FFC4
S1131300AB00281C9B5904219847051CA042F4D12A
S1131310064B1B68002B01D002209847381CF8BDEF
S11313203001002028010020EC4F00007C50000018
S113133008B5FFF7B5FF431E5A1E93415B421840A0
S113134008BDF8B5002407260127231C33403A1CA6
S11313509A40131C0C49E208D2B28A5C1A420CD09F
S1131360201CFFF79DFF094D00E0041CA3005B59FE
S1131370201C04219847A042F7D8054B01341B7860
S1131380E4B2A342E1D1F8BD30010020EC4F0000EB
S11313905850000030B5084B08491C78002305E07C
S11313A001335D18013D2D78854202D8DAB2A2429C
S11313B0F6D3101C30BDC046595000004450000004
S11313C000B5031E05D0044AD318013B1B78C91A83
S11313D0C9B2081C00BDC0464450000070B5061CCC
S11313E00C1CFFF7D7FF051C012C16D1002E03D0CF
S11313F0134B1B5CB34210D107222A4001239340B4
S11314001A1C1049EB08DBB2CB5C1A400E4B03D01C
S11314105A5D002A01D0013A5A550C4BAA00D35800
S11314201024002B0AD0281C0021052298470428E8
S113143004D1054B5C5D002C00D01024201C70BD31
S113144044500000BC0000200C0100204850000063
S113145008B5074B1B68002B00D09847012001F00A
S113146065FA044A00231370034A137008BDC0468A
S1131470885000004D0100204C01002010B5074B9E
S11314800749187800231A1C5C1801332270DCB257
S11314908442F9D3034B01221A7010BD5A50000044
S11314A0F80000200000002000B5044B002901DDF5
S11314B0195401E000221A5400BDC046B8000020AF
S11314C0024B40001A88024BC25270474A01002066
S11314D0FC00002030B50E4AD378DC0617D50D4C3D
S11314E0235C0133DBB22354127A9A420FD10725CD
S11314F0094A05400124C308AC40251CD45C4000C3
S1131500AC43D454054BC9B2C25A8918C15230BD38
S1131510980000208C0000200801002038010020E1
S1131520014B00221A5470478C000020F0B5061CB1
S113153087B00720331C0291034001219940CBB2AC
S11315400593F408694B04949D5D694B9F5D694B59
S11315509B5D0093684B9B5D0193042D03D06B420C
S11315606B41002B0DD0029952B20324914200DA50
S113157089E00024019401240094271C251C0524DF
S113158081E051084C080394012D33D1029C0137AA
S113159052B2FFB2944206DB009A01930132D2B2F6
S11315A00092062413E0019B06240133DBB201936D
S11315B0022B0CD169460C22029C5356E50FDA1714
S11315C0301CA3425541FFF720FEAD0003244B4BD2
S11315D0DB79BB4257D87A08BB08009CD318022594
S11315E09C423CDC029C039904258C4200DD0025CE
S11315F003243BE0022D09D1029A01248A4242DCF1
S11316000194271C00930325041C3CE0032D31D1D5
S1131610029C0137FFB28C4206DC019A009301322E
S1131620D2B2019208240BE0009B08240133DBB200
S11316300093022B04D1301CFFF7E7FD009D012429
S11316402E4BDB79BB421ED87A08BB08019CD31809
S11316509C4206DD029C03998C4205DC04252C1C6B
S113166004E00225012401E000250424301CFFF7D6
S1131670CCFD08E0029C03998C4202DC04252C1C5E
S113168001E01D1C04241E4B1B68002B04D0012CFC
S113169002D1301C029998471A4B1B68002B03D0C7
S11316A0022C01D1301C9847631E012B05D80499E4
S11316B0154B5A5C05990A4307E0E31E012B06D833
S11316C00499114B5A5C05998A4304995A54074B5F
S11316D06A469D55064B12789F55064B69469A55A6
S11316E00979054B201C995507B0F0BD280100204D
S11316F004010020F400002048010020980000208C
S1131700B0500000B45000000801002070B5041C63
S1131710081C0D1CFFF73EFE291C061CFFF750FE9B
S11317200123834098B27600631EF6B2012B04D8DD
S11317300B4B7200D15A014306E0E31E012B04D87F
S1131740074B7200D15A8143D152042C01D0022C90
S113175005D1034B01367600F25A1043F05270BDA6
S11317603C01002010B5041C0B1E01DA4B42DBB215
S1131770194A105D01301055184AD8B2125D184B41
S1131780904207D3002905DA164A115D013111553B
S1131790002201E01A5D01321A55114B1B5D022B28
S11317A002D1201CFFF740FD0B4B0F4A1B5DD27981
S11317B0520893420ED30B4A5908125D9B08CB186A
S11317C09A4204DD094B62001988094BD152201C4E
S11317D0FFF72AFD10BDC046040100209000002040
S11317E0F400002048010020980000204A01002055
S11317F03801002010B5002904DD094B4200D45AF9
S1131800013405E0002904D0054B4200D45A013CC0
S1131810D452044B1B68002B00D0984710BDC0461F
S113182038010020B850000000B50C4B4000C25AEB
S11318300B4B1B88934203D99A1A92B2012302E0FC
S1131840D21A92B2FF23181C5043C0B27F2A02D985
S1131850D801C31AD8B240B200BDC0463801002036
S11318604A01002038B5794B041C1B68002B00D0BA
S11318709847774B1B68002B01D0201C9847754B69
S11318801B5D052B4CD1744B9B785A0700D5DBE0CC
S1131890724B1A5D724B1B789A420ED3714B6200E5
S11318A0D15A7148002901D1018804E000884D0013
S11318B0691841188910D15206E06C4B1B68002B43
S11318C002D0201C01219847644B1A5D002A02D0E3
S11318D0013A1A55B8E0664B1B68002B01D0201C56
S11318E09847201CFFF7A0FC201CFFF765FC5F4B0A
S11318F01B68002B02D0201C042198475D4B1B68F9
S1131900002B03D0201C0021062298475A4B1B6849
S1131910002B00D198E0201C00210622984793E078
S1131920564B1B68002B01D0201C9847504B1B685A
S1131930002B01D0201C9847514B1B68002B01D071
S1131940201C9847201CFFF76FFF4E4B051C1B689B
S1131950002B02D0201C291C98474B4B1B68002BE2
S113196001D0201C9847434B1B68002B03D0201C3C
S1131970291C05229847404B1B68002B03D0201CD0
S1131980291C05229847394B1B68002B09D0314A82
S1131990201C125D042A02D00221002A00D1032156
S11319A098472D4B9A78D2090CD0DA7A201C291C3E
S11319B0FFF7BCFD022811D1344B1B68002B0DD05E
S11319C098470BE0324B201C1A5D291CFFF7AEFD33
S11319D0304B1B68002B01D0211C9847284B1B68F7
S11319E0002B04D02C4B1B5D7F3B5A1E93412B4A8A
S11319F01278002A0BD1002B09D1174BDB789A06F9
S1131A0005D5144B1B5D042B05D0002B03D0124BC2
S1131A109B78DA0718D5224B201C1B78002B10D09A
S1131A20FFF7B8FC1F4B8200D358002B0CD00A4A96
S1131A3091787F22914307D102229847012803D04D
S1131A40201C291CFFF7D6FE38BDC046C450000038
S1131A50C05000002801002098000020040100204C
S1131A60D5500000380100204A010020C850000071
S1131A7064500000CC500000D05000005C500000C6
S1131A8060500000685000006C500000A850000036
S1131A909000002050500000400100204D01002023
S1131AA05950000048500000F8B55E4B1B78002BDD
S1131AB01CD15D4D5D4C2B705D4B1B78012B0DD102
S1131AC0FFF764FB2368002B0FD00220984768704F
S1131AD008280BD12B781843287007E02368002BC3
S1131AE003D001209847687000E06B704D4B0726C7
S1131AF0187801220640131CB340DEB24D4BC508D2
S1131B001B68002B04D04A4A11789847424242414C
S1131B10494B595D0123314206D04849495D314062
S1131B20484241410A40534045493E4A8878C009E9
S1131B3004D010788B7A98425CD101E0002B59D103
S1131B401078404B8200D358002B53D0364F7A780C
S1131B50002A05D1364A11789847041C012804D17B
S1131B603B78012213433B7044E0344B5A5D3243CB
S1131B705A55334B7F229B7893435A4253415B42DD
S1131B801C40E31EDBB2012B07D82F4B1B68002B34
S1131B9005D0244A10789847041C002C04D1214B0A
S1131BA01878FFF75FFE25E0A31FDBB2012B1AD8DC
S1131BB0214B05215A5DB2435A551A4D214B2878C1
S1131BC08200D3589847204B1B68002B01D02878FB
S1131BD098472878FFF7F0FA201CFFF707FB2978CD
S1131BE000F07EFA06E0201CFFF700FB0E4D2E7875
S1131BF006432E700B4B15491A7809780132D2B27C
S1131C001A70012491420BD800221A70064B1C78DA
S1131C10E30703D5064B02221A7001E0FFF72EFCFE
S1131C20201CF8BD4C0100200C0000207C5000005A
S1131C30000000205450000030010020F800002073
S1131C4098000020EC4F0000BC50000058500000E9
S1131C50F0B5002085B0604E0090071C041C002CD9
S1131C6016D15E490B78012B0CD1FFF78FFA33683C
S1131C70002B0DD0022098470090082808D1074374
S1131C80FFB205E03368002B02D001209847009092
S1131C90072301222340101C9840C3B20293504BE7
S1131CA0E1081B680191002B05D04C4A201C1178D7
S1131CB09847424242414B4B19784B4B002902D181
S1131CC0D978880604D499780123194202D102E014
S1131CD0012200E01A1C454B0198195C029801236B
S1131CE0014208D001984249095C029801404842E7
S1131CF041410A4053403C4A9178C90903D0937A40
S1131D00A34257D101E0002B54D13A4BA200D25840
S1131D100392002A4ED00099002906D12F4B201C93
S1131D2019789047051C012802D101231F4341E083
S1131D302F4B019802991A5C0A431A542A4B7F22AA
S1131D409B7893435A4253415B421D40EB1EDBB2E6
S1131D50012B06D8284B1B68002B04D0201C984765
S1131D60051C002D03D1201CFFF77CFD22E0AB1FD6
S1131D70DBB2012B19D81D4B019802991A5C8A43D6
S1131D801A540521201C039A90471B4B1B68002BF7
S1131D9001D0201C9847201CFFF70EFA281CFFF7DF
S1131DA025FA211C00F09CF904E0281CFFF71EFA18
S1131DB00743FFB2114B01341B78E4B2A34200D9AC
S1131DC04DE7FB0703D5054B02221A7001E0FFF72C
S1131DD055FB381C05B0F0BD7C500000000000200D
S1131DE0545000004D0100209800002030010020D4
S1131DF0F8000020EC4F0000BC50000058500000D8
S1131E0030B50724C20804400125074BD2B2A540CF
S1131E10002902D19C5CAC4302E02C1C9D5C2C4349
S1131E209C54024B195430BDBC0000200C0100200E
S1131E3070B50E4B0E4A1D680E4B7F201C78002394
S1131E40191C002D02D0D618317000E0D054013393
S1131E50DEB2A642F5D3084B08491878FF220023C6
S1131E60CA540133DCB28442FAD370BDC8500000B6
S1131E7090000020585000005A500000300100200B
S1131E8070B5224D224E0024201CFFF7CDF92B689B
S1131E90002B01D0201C9847201CFFF7D5F90134F2
S1131EA03378E4B2A342EFD81A4B1B481A780023C4
S1131EB05400191C5D000133DBB22952A342F9D34B
S1131EC00023164D1648FF24191C1E18EC54013328
S1131ED03170DEB29642F8D3124B134918780023BE
S1131EE01A1C5C1801332270DCB28442F9D30F4B04
S1131EF00F49187800231A1C5C1801332270DCB2D5
S1131F008442F9D3FFF7BAFA70BDC046B45000005A
S1131F1058500000595000003C010020EC00002003
S1131F200C0100205B500000BC0000205A5000004F
S1131F300801002070B51A4B08225A7164229A7164
S1131F400422DA710F225A727F22DA72FF220024ED
S1131F505A7301221C705C801C711C729C721A736F
S1131F60FFF78EFFFFF764FF0E4B0F4E1D7809E05D
S1131F70A3009B59002B03D0201C00210422984766
S1131F800134E4B2A542F3D8084B1B68002B01D0FE
S1131F9001209847FFF75CFA830600D5022070BD44
S1131FA09800002059500000485000007050000074
S1131FB038B503283BD000231F491A1C5C18A478A9
S1131FC001331219D2B20C2BF8D11C4B1C491C78CA
S1131FD0002303E0CD5C01335219D2B2DDB2A54235
S1131FE0F8D3184B18491C78002303E0CD5C013367
S1131FF05219D2B2DDB2A542F8D3144B022813D140
S113200019780023914214D00B4B04211A780A4307
S1132010D9781A707F220A40DA700D4B1B68002BA6
S113202007D0FF20984700E01A70002301E0074B17
S11320301B78181C38BDC04698000020585000007A
S1132040900000205A500000300100208E00002033
S113205084500000F8B51C4B00241C4D1F7830E060
S11320600723234001229A40D3B22A88002A04D0AD
S11320701749E208885C98438854164E315D00295C
S11320800BD11348E208825C1A4206D0124BA2001C
S1132090D358201C032298473055104B1A5DFF2A51
S11320A001D0013A1A550C4BA200D358002B03D08F
S11320B0201C291C01229847002301346B80E4B2C0
S11320C00435A742CCD8F8BD595000003C0100208B
S11320D0BC0000200C01002048500000EC0000204F
S11320E010B5031C134A980703D510780124204324
S11320F01070580703D51078022420431070082468
S11321000C4A234206D01378D0781C437F23034023
S11321101470D3701378002B0BD0074B1B68002B63
S113212001D0081C9847054B1B68002B01D00120E7
S1132130984710BD980000208450000070500000A3
S113214000B5124A031C117B03220A400020022A14
S11321501AD1032B05D10E4B1A787E2A14D80132DA
S113216011E0012B05D10A4B187843425841400134
S11321700AE0022B08D1064B01201A7890428041D4
S11321804042C00000221A7000BDC04698000020E2
S11321900E000020F8B51F4B1D68002D01D0022051
S11321A0A8471D4B00275A881C4B1A4080231B024A
S11321B09A4224D1FFF74CFDFE23041C071C18424D
S11321C002D0FF21FFF78CFF01231C4217D1124CD0
S11321D0A2781A4201D09A43A270A378042633420B
S11321E004D0FFF7AEF8A378B343A370002D01D059
S11321F00120A8470A4B1B68002B00D098470120F8
S11322003C1C044005D1074B1868002801D08047C6
S1132210201CF8BD70500000980000204080FFFF93
S11322204C50000074500000F8B51F4B1D68002D81
S113223001D00220A8471D4B00275A881C4B1A4086
S113224080231B029A4224D1FFF72EFCFE23041C98
S1132250071C184202D0FF21FFF742FF01231C4252
S113226017D1124CA2781A4201D09A43A270A378D3
S11322700426334204D0FFF764F8A378B343A37071
S1132280002D01D00120A8470A4B1B68002B00D069
S1132290984701203C1C044005D1074B18680028CE
S11322A001D08047201CF8BD705000009800002029
S11322B04080FFFF4C50000074500000014B800030
S11322C0C150704744010020014B8000C058704742
S11322D044010020014B8000C0587047405000006A
S11322E000B5064B002801D1187805E01A5C0138C6
S11322F0C0B21B5CD01AC0B200BDC046445000003E
S113230000B5002803D00138014BC0B2185C00BDF1
S113231044500000024B185C0138C0B27047C046FC
S11323204450000070B5041C0B2829D1072529400E
S113233004200E1C06401A4B0325002E0ED01B7BD6
S113234000242B40022B14D1052000F0EFFA154B8A
S1132350041C1B68281C984780200BE01C7B4C4005
S11323602C4006D00D401D7300F0E0FA041C301C14
S113237000E0201C0C231C4210D1072318430DE05D
S113238000200C2C0AD1064B0420597300F0CEFA1D
S1132390044063425C4107206442204070BDC04653
S11323A0980000207C50000070B5031C08280BD155
S11323B004200F2955D82B4B0620597200F0B6FA89
S11323C00123034005200FE0092812D1264B0420E5
S11323D01B78013B994244D8224B9972062000F0A5
S11323E0A5FA0223034006205A4253415B42184097
S11323F037E00A2805D10420002932D0194BD972BC
S1132400ECE70020012B2CD1164A40239078450696
S1132410ED0FAD014D401D402E1E07D098431940CD
S113242001439170022000F081FA061C0D4CA37840
S11324309A085B06DB0F1A4206D0082000F076FAF1
S1132440A37804229343A370281E0AD0072000F027
S11324506DFA012306431E4073425E410520764215
S1132460304070BD980000205850000038B5114C21
S1132470C009A378DA0982421AD07F25C0012B4013
S11324800343A370022000F051FA082000F04EFA32
S1132490FFF7F6FCA378AB430AD0074BA07A198860
S11324A0064B4200D152064B1B68002B00D09847C4
S11324B0002038BD980000204A0100203801002087
S11324C06450000070B5CDB20C2800D9BAE0804B3E
S11324D0002815D10F221B7815400122134200D188
S11324E095430222134200D195430422134200D1A2
S11324F095430822134200D19543754B1D70C5E0E6
S1132500012862D198780422104204D10C1C144092
S113251090432043987098780122104204D12C1CD7
S11325201440904320439870694B9879DA780028D6
S113253002D12020824305E08804C00F20244001FA
S1132540A2430243DA70624B187ADA78002802D187
S11325501020824305E0C804C00F10240001A243E8
S11325600243DA705A4B02209E780C1C86430440C6
S1132570301C204301228C0B9870D87840261440DC
S1132580A401B04320437F24CE0B204080249440F8
S1132590F601214030430C1290432043D8704D483B
S11325A00068002804D1002902D0D9789143D97059
S11325B0494B1B68002B01D0281C9847474B052426
S11325C01B680120002B39D16CE0042808D16A1E55
S11325D0041C1F2A66D85D71032000F0A7F955E09A
S11325E0052807D1002D03D1DA7820218A43DA7037
S11325F09D714BE0062805D16A1E04241F2A51D878
S1132600DD7143E0072807D1002D03D1DA781021CA
S11326108A43DA701D7239E0031C083B022B03D88D
S11326202E4B05241B6807E0031C0B3B0024012BE5
S113263038D82B4B07241B68002B33D0291C984710
S1132640041C2FE0274B1B781A1C0D32904208D231
S1132650AB1E04247D2B25D8234B18180D38057088
S113266014E0224A11785A18141C0D34A0420FD2D7
S11326700D225242D31A1E4A1018C554022000F0EB
S113268055F9134B04219A780A439A70002409E0FF
S11326900B1C0D339B180324984203D3C01A431E0A
S11326A09841241A0A4B02219A780A4206D08A4396
S11326B09A70FFF73FFC022800D109240D4B1B68D8
S11326C0220603D4002B01D001209847201C70BDA2
S11326D09800002060500000AC50000080500000C2
S11326E07850000058500000900000205A5000001C
S11326F0300100207050000010B5031E01D12B4B97
S113270031E0012B21D1294AD3785806D909C00FC9
S1132710C903800308439906C90FDB064903DB0F8D
S11327201B03084318439378DA09D201104340226B
S11327301A40104304221A40104302221A40DB07B5
S1132740DB0F1043DBB218432EE00C2B02D8184ADF
S1132750D05C29E0174A11780A1C0D32934204D246
S1132760154AD3180D3B18781EE0144A10780A183D
S1132770141C0D34A34206D20D225242511A104A9F
S1132780D318585C10E0011C0D3189188B4202D219
S11327909B1A0C4AE5E702208B4205D10A4B1B68C1
S11327A0002B01D00320984710BDC046980000209C
S11327B09900002058500000900000205A5000005A
S11327C0300100200801002070500000002934D09E
S11327D00123002210B488422CD301242407A142EF
S11327E004D2814202D209011B01F8E7E400A142AC
S11327F004D2814202D249005B00F8E7884201D347
S1132800401A1A434C08A04202D3001B5C0822431E
S11328108C08A04202D3001B9C082243CC08A0428F
S113282002D3001BDC082243002803D01B0901D07B
S11328300909E3E7101C10BC7047002801D00020F0
S1132840C04307B4024802A14018029003BDC04629
S1132850D90000000029F0D003B5FFF7B9FF0EBC82
S11328604243891A1847C046002941D010B4041CB9
S11328704C40A44601230022002900D549420028E7
S113288000D5404288422CD301242407A14204D21B
S1132890814202D209011B01F8E7E400A14204D2FB
S11328A0814202D249005B00F8E7884201D3401A12
S11328B01A434C08A04202D3001B5C0822438C0834
S11328C0A04202D3001B9C082243CC08A04202D39E
S11328D0001BDC082243002803D01B0901D009098E
S11328E0E3E7101C6446002C00D5404210BC70473E
S11328F0002806D003DB0020C043400801E080200C
S1132900000607B4024802A14018029003BDC04665
S1132910190000000029EBD003B5FFF7A7FF0EBC98
S11329204243891A1847C0467047C04690B587B0DD
S113293000AF021CFB1D1A703B1C173300221A70D7
S11329403B1C163300221A700DE03B1C16331B7817
S11329503A1C0C320021D1543B1C16333A1C16325B
S1132960127801321A703B1C16331B78002BECD002
S11329703B1C163300221A7068E03B1C16331B788C
S1132980DB08DBB23A1C0C32D35C1A1C3B1C16333A
S1132990197807230B40DA40012313404FD13B1C25
S11329A016331A782F4B9200D3581B683B613B694E
S11329B01B683A1C16321178FA1D1278081C111C77
S11329C09847031C191C3B1C17333A1C1732127806
S11329D00A431A703B1C15333A1C163212781A70CB
S11329E028E03B1C15331A781E4B9200D3581A6802
S11329F03B699A4217D13B1C15331B78DB08DBB2C9
S1132A001A1C391C0C31C95C3B1C1533187807237C
S1132A1003400120041C9C40231CDBB20B43D9B2AD
S1132A203B1C0C3399543B1C15333A1C1532127859
S1132A3001321A703B1C15331B78012BD1D93B1C76
S1132A4016333A1C1632127801321A703B1C1633B4
S1132A501B78012B91D93B1C17331B78181CBD46DE
S1132A6007B090BDF44F000080B584B000AF78602B
S1132A703B1C0F3300221A707B6800221A607B68AB
S1132A8000225A607B681B68C02212041A437B68C8
S1132A901A603B1C0F331B78181CBD4604B080BD64
S1132AA080B584B000AF78603B1C0F3300221A70ED
S1132AB07B681B688022191C91430A1C7B681A607E
S1132AC07B681B681A1C0F4B1A407B681A603B1CFE
S1132AD00E330D4A52791A707B681B681A1C3B1C12
S1132AE00E331B78013B1902F8235B010B401A4398
S1132AF07B681A603B1C0F331B78181CBD4604B05E
S1132B0080BDC046FFE0FFFF9800002080B584B080
S1132B1000AF786039603B1C0F3300221A703B68A9
S1132B201B688022191C91430A1C3B681A607B684D
S1132B305B7B012B1FD1174B5B889AB24023134058
S1132B409BB2002B06D03B681B6820221A433B68CB
S1132B501A6007E03B681B682022191C91430A1C79
S1132B603B681A603B1C0F333A1C0F321278012168
S1132B700A431A7007E03B681B682022191C914322
S1132B800A1C3B681A603B1C0F331B78181CBD469B
S1132B9004B080BD9800002080B586B000AFF86016
S1132BA0B9607A603B1C163300221A70874B5B882D
S1132BB09AB2802313409BB2002B07D1834B5B88CE
S1132BC09AB2402313409BB2002B03D0BB6800226F
S1132BD09A805FE03B1C173300221A7055E03B1CBF
S1132BE017331A787A4B9200D3581A68FB689A42C2
S1132BF044D13B1C17331B78DB08DBB2754AD35C2A
S1132C001A1C3B1C1733197807230B40DA400123A5
S1132C10134033D13B1C17331A786D4B9200D258B2
S1132C203B1C1533127A1A70BB689B889BB23A1C02
S1132C30153212780121081C9040021C92B21340F4
S1132C409BB2002B1AD07B681B688022191C91430D
S1132C500A1C7B681A60BB689B889BB29BB23A1CB7
S1132C60153212780121081C9040021C92B2D24302
S1132C7092B213409BB29AB2BB689A803B1C173342
S1132C803A1C1732127801321A703B1C17331B7826
S1132C90012BA4D93B1C173300221A7089E03B1C7A
S1132CA017331A784A4B9200D3581A68FB689A4231
S1132CB000D077E0454B5B889AB2802313409BB2E7
S1132CC0002B07D1414B5B889AB2402313409BB23F
S1132CD0002B21D03D4B9B7ADBB23A1C1732127881
S1132CE09A425FD13B1C17331A78394B9200D25861
S1132CF03B1C1533127A1A70BB689B889AB23B1C32
S1132D0015331B780121081C9840031C9BB2134304
S1132D109AB2BB689A8045E03B1C17331B78DB08EA
S1132D20DBB22C4AD35C1A1C3B1C173319780723DB
S1132D300B40111CD9400B1C1A1C01231340DBB29D
S1132D40002B2FD03B1C17331A78214B9200D258FA
S1132D503B1C1533127A1A70BB689B889BB23A1CD1
S1132D60153212780121081C9040021C92B21340C3
S1132D709BB2002B16D17B681B688022191C9143DF
S1132D800A1C7B681A60BB689B889AB23B1C15338B
S1132D901B780121081C9840031C9BB213439AB270
S1132DA0BB689A803B1C17333A1C173212780132E5
S1132DB01A703B1C17331B78012B00D86FE73B1CA0
S1132DC016331B78181CBD4606B080BD9800002041
S1132DD0F44F00003001002080B58EB000AFF860E1
S1132DE0B9607A603B1C373300221A70FB681B6899
S1132DF01A1CE0231B0213405B0BDAB23B1C10339A
S1132E001A70FB681B681A1CE023DB0213401B0CBE
S1132E10DAB23B1C10335A70B74B5B889AB28023EA
S1132E2013409BB2002B11D03B1C28338022D200CC
S1132E301A803B1C273308221A703B1C26330722B6
S1132E401A703B1C353300221A700FE03B1C2833E8
S1132E5008221A803B1C273308221A703B1C263395
S1132E6007221A703B1C353300221A703B1C1C339A
S1132E70012252425A803B1C1833012252425A808A
S1132E803B1C2B3300221A70FB689C4A9A60FB6837
S1132E901B688022191C91430A1CFB681A60FB689A
S1132EA01B684022191C91430A1CFB681A60FB68CA
S1132EB01B681022191C91430A1CFB681A60FB68EA
S1132EC01B6880221A43FB681A603B1C22337A6811
S1132ED092881A803B1C34333A1C273212785208E9
S1132EE01A703B1C2F3300221A703B1C143301222E
S1132EF052425A803B1C253300221A703B1C2F334C
S1132F003A1C2F32127801321A703B1C33330122DF
S1132F101A703B1C2C3300221A803B1C36330022CF
S1132F201A7092E03B1C22331A883B1C36331B7800
S1132F30111CD9400B1C1A1C01231340DBB2002BBB
S1132F4000D17BE0FB681B681A1C6D4B1A40FB68C0
S1132F501A60FB681B681A1C3B1C35331B785B0327
S1132F601B041B0C1A43FB681A60FB681B681A1CC1
S1132F70644B1A40FB681A60FB681B681A1C3B1CF4
S1132F8034331B781904E023DB020B401A43FB683B
S1132F901A60FB685B681B011A09FB685A60FB68CE
S1132FA05B681A1C3B1C36331978574B8900CB5885
S1132FB01B7A1B071A43FB685A60FB685B68802214
S1132FC0D2031A43FB685A60FB681B681A1C04236B
S1132FD01340F9D0FB681B6804221A43FB681A608B
S1132FE0C046C046FB685B681A1C3B1C30331A8021
S1132FF03A1C30323B1C283312881B889A4203D275
S11330003B1C333300221A703B1C2C331B88002BCF
S113301006D13B1C2C333A1C303212881A800DE046
S11330203B1C2C331B885B0899B23B1C30331B8838
S11330305B089AB23B1C2C338A181A803B1C36332B
S11330403A1C3632127801321A703B1C36331B7824
S11330500F2B00D866E73A1C2C323B1C283312880D
S11330601B889A420AD93B1C3033391C2C313A1C38
S11330702832098812888A1A1A8009E03B1C3033E6
S1133080391C28313A1C2C32098812888A1A1A8071
S11330903B1C33331B78012B38D13A1C2C323B1C9C
S11330A0283312881B889A420CD83B1C25331B7882
S11330B0002B2BD03B1C14335B883A1C3032128813
S11330C09A4223D83B1C14333A1C343212785A7077
S11330D03B1C14333A1C353212781A703B1C1433DF
S11330E03A1C303212885A803B1C25333A1C253254
S11330F0127801321A7028E0980000200000FFFFC7
S1133100FF1FFFFFFFFFF8FFF44F00003B1C1433C9
S11331105B883A1C303212889A4216D83B1C2533FD
S11331201B78002B11D13B1C14333A1C3432127817
S11331305A703B1C14333A1C353212781A703B1CFB
S113314014333A1C303212885A803B1C33331B78B8
S1133150012B14D13B1C27331B785B08DBB21A1CF0
S11331603B1C2F331B78111CD9400B1CD9B23B1CC0
S113317034333A1C343212788A181A7013E03B1C28
S113318027331B785B08DBB21A1C3B1C2F331B78DC
S1133190111CD9400B1CDAB23B1C3433391C3431BA
S11331A009788A1A1A703B1C27331B785B08DBB238
S11331B01A1C3B1C2F331B78111CD9400B1C00D04C
S11331C09CE63B1C1C335A883B1C14335B889A4294
S11331D01ED33B1C25331B78002B19D03B1C143306
S11331E01A783B1C1C331A703B1C14335A783B1C52
S11331F01C335A703B1C14335A883B1C1C335A80B2
S11332003B1C2B333A1C2B32127801321A701EE00D
S11332103B1C18335A883B1C14335B889A4216D3E0
S11332203B1C2B331B78002B11D13B1C14331A7815
S11332303B1C18331A703B1C14335A783B1C18334C
S11332405A703B1C14335A883B1C18335A803B1C5D
S113325035333A1C3532127801321A703B1C35333F
S11332601A783B1C26331B7801339A4200D231E68C
S11332703B1C2B331B78002B05D07B683A1C28326F
S11332801288DA8037E03B1C18331A783B1C1C3355
S11332901A703B1C18335A783B1C1C335A703B1C65
S11332A02F3300221A703B1C18335A883B1C3033CE
S11332B0391C283109888A1A1A8006E03B1C2F33EE
S11332C03A1C2F32127801321A703B1C30331A88A0
S11332D03B1C2F331B78111C19410B1CEED13B1CDA
S11332E02F331B78013BDBB20122111C99400B1CCC
S11332F09AB27B68DA80FB681B688022191C9143B0
S11333000A1CFB681A60FB681B681A1C2A4B1A40CB
S1133310FB681A60FB681B681A1C3B1C1C331B7877
S11333205B031B041B0C1A43FB681A60FB681B68D5
S11333301A1C224B1A40FB681A60FB681B681A1C93
S11333403B1C1C335B781904E023DB020B401A435B
S1133350FB681A601A4B5B889AB2802313409BB2B5
S1133360002B09D03B1C1C335A883B1C28331B8878
S1133370D3189AB2134B1A803B1C10331A783B1C97
S11333801C331B789A4207D13B1C10335A783B1CE0
S11333901C335B789A4207D03B1C37333A1C3732D4
S11333A0127810210A431A703B1C37331B78181CFF
S11333B0BD460EB080BDC046FF1FFFFFFFFFF8FFF4
S11333C0980000204A01002080B584B000AF7860E6
S11333D039603B1C0F3300221A703B681B68802243
S11333E0191C91430A1C3B681A603B681B68402205
S11333F0191C91430A1C3B681A603B68374A9A605F
S11334007B685B7B012B61D13B1C0E33344A927A7F
S11334101A703B1C0E331B78012B57D83B1C0E3300
S11334201A78304B9200D3581A687B689A424DD16F
S11334303B681B681022191C91430A1C3B681A60E4
S11334403B685B681B011A093B685A603B685B6810
S11334501A1C3B1C0E331978224B8900CB581B7A5B
S11334601B071A433B685A603B681B6880221A4357
S11334703B681A603B685B688022D2031A433B684E
S11334805A603B681B681A1C04231340F9D0C046D9
S1133490C0463B685B681A1C3B1C0C331A803B1CFF
S11334A00B330F4AD27A1A703B1C0C331A883B1C1C
S11334B00B331B78D3181A043B689A603B1C0F33F8
S11334C03A1C0F32127802210A431A703B1C0F3344
S11334D01B78181CBD4604B080BDC0460000FFFF29
S11334E098000020F44F000080B588B000AFF86069
S11334F0B9607A603B1C1F3300221A70654BBB61B4
S1133500FB681B688022181C9043021CFB681A602D
S1133510614B1B7BDAB203231340DBB2002B0ED1C9
S1133520FB681B6810221A43FB681A603B1C1F339C
S11335303A1C1F32127808210A431A700FE0FB6804
S11335401B681022191C91430A1CFB681A603B1C5F
S11335501F333A1C1F32127804210A431A70FB6885
S11335601B6840221A43FB681A60FB681B688022B0
S113357052051A43FB681A60BA69C0235B00D3582A
S11335801A1C7B681B7B191C1F230B400121081C80
S11335909840031C111C1943BA69C0235B00D15025
S11335A0BB691B681A1C7B681B7B191C1F230B40FF
S11335B00121081C9840031C1A43BB691A60BB68AC
S11335C000221A70BB6800229A70334B5B889AB24F
S11335D0402313409BB2002B54D07B685B7B012BB0
S11335E050D1FB689B681B0C1A042C4B9A4218D0D0
S11335F0FB685B681B011A09FB685A603B1C1733A4
S1133600254A927A1A70FB685B681A1C3B1C1733B4
S11336101978234B8900CB581B7A1B071A43FB6884
S11336205A60FB681B6810221A43FB681A60FB6827
S11336301B681A1C1B4B1A40FB681A60FB681B684A
S113364040221A43FB681A60FB681B6880221A43F5
S1133650FB681A603B1C1F333A1C1F32127801218D
S11336600A431A703B1C1F333A1C1F321278042180
S11336708A431A703B1C1F333A1C1F3212780821EC
S11336808A431A703B1C1F331B78181CBD4608B0B4
S113369080BDC04600E100E0980000200000FFFF6C
S11336A0F44F0000FFFFFFEF80B588B000AF0A1CA5
S11336B0FB1D011C1970BB1D1A703B1C1F3300221B
S11336C01A70FB1D1A78D04B9200D358BB61BB69AA
S11336D01B687B617B695B683B61BB695B68FB6002
S11336E0BB1D1B78052B1BD1FB689B78DBB2012B20
S11336F000D082E1FB6800221A70FB6802229A70F3
S11337003B695B688022D2031A433B695A603B1CC5
S11337101F333A1C1F32127804210A431A706CE1D9
S1133720BB1D1B78012B6BD13B69181CFFF79CF95F
S1133730031C191C3B1C1F333A1C1F3212780A430A
S11337401A703B69181CFFF7ABF9031C191C3B1CCE
S11337501F333A1C1F3212780A431A707A693B6984
S1133760101C191CFFF7D2F9031C191C3B1C1F3336
S11337703A1C1F3212780A431A707969FA683B6955
S1133780081C111C1A1CFFF707FA031C191C3B1C0C
S11337901F333A1C1F3212780A431A7039697A6946
S11337A0FB68081C111C1A1CFFF716FB031C191CD0
S11337B03B1C1F333A1C1F3212780A431A707A6971
S11337C03B69101C191CFFF7FFFD031C191C3B1C53
S11337D01F333A1C1F3212780A431A703969FA6887
S11337E07B69081C111C1A1CFFF77EFE031C191CA4
S11337F03B1C1F333A1C1F3212780A431A70FCE038
S1133800BB1D1B78032B3ED13B69181CFFF748F9FD
S1133810031C191C3B1C1F333A1C1F3212780A4329
S11338201A7039697A69FB68081C111C1A1CFFF7A5
S1133830D3FA031C191C3B1C1F333A1C1F32127889
S11338400A431A707A693B69101C191CFFF7BCFD06
S1133850031C191C3B1C1F333A1C1F3212780A43E9
S11338601A703969FA687B69081C111C1A1CFFF765
S11338703BFE031C191C3B1C1F333A1C1F321278DD
S11338800A431A70B9E0BB1D1B78062B2FD17A6945
S11338903B69101C191CFFF739F9031C191C3B1C4C
S11338A01F333A1C1F3212780A431A707A693B6933
S11338B0101C191CFFF788FD031C191C3B1C1F332B
S11338C03A1C1F3212780A431A703969FA687B6904
S11338D0081C111C1A1CFFF707FE031C191C3B1CB7
S11338E01F333A1C1F3212780A431A7085E0BB1D3D
S11338F01B78072B20D17A693B69101C191CFFF730
S113390005F9031C191C3B1C1F333A1C1F32127887
S11339100A431A703969FA687B69081C111C1A1C5D
S1133920FFF7E2FD031C191C3B1C1F333A1C1F321A
S113393012780A431A7060E0BB1D1B78082B31D142
S113394039697A69FB68081C111C1A1CFFF744FAD0
S1133950031C191C3B1C1F333A1C1F3212780A43E8
S11339601A707A693B69101C191CFFF72DFD031CA2
S1133970191C3B1C1F333A1C1F3212780A431A705D
S11339803969FA687B69081C111C1A1CFFF7ACFD25
S1133990031C191C3B1C1F333A1C1F3212780A43A8
S11339A01A702AE0BB1D1B78022B11D17969FA68C1
S11339B03B69081C111C1A1CFFF7EEF8031C191CA8
S11339C03B1C1F333A1C1F3212780A431A7014E04E
S11339D0BB1D1B78042B10D13969FA687B69081C5C
S11339E0111C1A1CFFF780FD031C191C3B1C1F3300
S11339F03A1C1F3212780A431A703B1C1F331B787F
S1133A00181CBD4608B080BDF44F000080B584B0DA
S1133A1000AF786039603B689A687B681B7A5B000A
S1133A20D3181A88294B1A80284B1B881A1C284B38
S1133A301B8828494B4328495B185B0C9BB22749D8
S1133A40CB1A9A4204DD3B1C0F3306221A7035E070
S1133A501E4B1B881A1C1E4B1B881E494B431E49B8
S1133A605B181B0C9BB21D49CB1A9A4204DD3B1C0C
S1133A700F3304221A7021E0154B1B88184A534354
S1133A805B0C9AB2114B1B889A4204D93B1C0F332E
S1133A9007221A7012E00E4B1B88114A53431B0C69
S1133AA09AB20A4B1B889A4204D93B1C0F33032257
S1133AB01A7003E03B1C0F3300221A703B1C0F33B7
S1133AC01B78181CBD4604B080BDC0464A010020C6
S1133AD018000020CDCCFFFFCDCC3233FFFF000017
S1133AE03333000080B586B000AFF860B9607A6007
S1133AF01A1CFB1C1A703A4B1B7BDAB203231340CB
S1133B00DBB2012B29D1FB681B78DBB2012B1FD060
S1133B10FB68FA1C12785A707B685B681B011A09EF
S1133B207B685A607B685B681A1CFB1C1B781B074C
S1133B301A437B685A60FB6800221A70FB680222F1
S1133B409A707B685B688022D2031A437B685A6050
S1133B503B1C173301221A703BE0FB68FA1C1278F5
S1133B605A70FB6801229A707B685B681B011A0912
S1133B707B685A607B685B681A1CFB1C1B781B07FC
S1133B801A437B685A60164B1B7BDAB2032313403B
S1133B90DBB2002B19D1FB681B78DBB2022B0CD1F2
S1133BA03B1C173305221A707B681B688022191C82
S1133BB091430A1C7B681A6003E03B1C1733012203
S1133BC01A70FB6800221A7003E03B1C17330122B1
S1133BD01A703B1C17331B78181CBD4606B080BDF9
S1133BE09800002090B589B000AF0A1CFB1D011C91
S1133BF01970BB1D1A70FB1D1A78704B9200D358B4
S1133C00BB61BB691B687B617B695B683B61BB69AA
S1133C105B68FB603B1C0B33BA69127A1A70BB1DDC
S1133C201B78012B22D13B691B681A1C802313408B
S1133C3005D13B691B6880221A433B691A60FB6803
S1133C409B78DBB2002B0CD13C1C1F34F8687969DB
S1133C503A693B1C0B331B78FFF744FF031C2370AA
S1133C60A4E03B1C1F3301221A709FE0BB1D1B788C
S1133C70022B35D13B691B681A1C8023134005D1E4
S1133C803B691B6880221A433B691A60FB689B7876
S1133C90DBB2002B1FD1FB681B78DBB2002B0DD0ED
S1133CA0FB6803221A703C1C1F34BA697B69101C20
S1133CB0191CFFF7ABFE031C237077E03C1C1F3478
S1133CC0F86879693A693B1C0B331B78FFF70AFFE4
S1133CD0031C23706AE03B1C1F3301221A7065E049
S1133CE0BB1D1B78042B26D13B1C1E33FA1D1278F6
S1133CF01A703B1C1E331B78002B07D13B1C1E3350
S1133D003A1C1E32127801321A7003E03B1C1E3337
S1133D1000221A703B1C1E331A78284B9200D35889
S1133D201A687B699A42E4D13B1C1F333A1C1E3249
S1133D3012781A703AE0BB1D1B78032B24D13C1C6B
S1133D401F34FB1D1B78181C0821FFF7ADFC031C56
S1133D5023703B1C1F331A782023134004D03B1CD0
S1133D601F3306221A7021E03B1C1F331A781023DC
S1133D70134004D03B1C1F3302221A7016E03B1C74
S1133D801F3300221A7011E0BB1D1B78052B0DD1C7
S1133D903C1C1F34FB1D1B78181C0221FFF784FCFC
S1133DA0031C23703B1C1F3300221A703B1C1F335F
S1133DB01B78181CBD4609B090BDC046F44F0000E6
S1133DC090B585B000AF634B5B68BB60624B5B88AA
S1133DD09AB2402313409BB2002B25D0BB681B68CA
S1133DE0802212061A43BB681A60BB681B688022D3
S1133DF052051A43BB681A60BB681B684022191C31
S1133E0091430A1CBB681A60BC1D0120FEF774FCB8
S1133E10031C2380BB1D1B88402293439BB20120BB
S1133E20191CFEF74FFB8FE0BB681B6804221A4382
S1133E30BB681A60494B1B78DBB2002B00D080E0D2
S1133E40BB681B681022191C91430A1CBB681A60CA
S1133E50BB685B681A0F3B1C0F331A703D4B9A68A2
S1133E603B1C0F331B785B00D218BB685B689BB2AA
S1133E701380BB1D394A92881A803B1C0E331222D0
S1133E801A703B1C0F331B780E2B07D83B1C0F33C7
S1133E903A1C0F32127801321A7003E03B1C0F33C4
S1133EA000221A703B1C0E333A1C0E321278013A6F
S1133EB01A703B1C0F331B780122111C99400B1CF8
S1133EC09BB2BA1D128813409BB2002B04D13B1C39
S1133ED00E331B78002BD4D1204B5B78DBB23A1C19
S1133EE00F3212789A4214D11C4B01221A701B4BC8
S1133EF000229A70184B1B7BDAB203231340DBB207
S1133F00002B21D1BB681B6810221A43BB681A60BE
S1133F101AE0BB685B681B011A09BB685A60BB687E
S1133F205B681A1C3B1C0F331B781B071A43BB68C6
S1133F305A60BB685B688022D2031A43BB685A602C
S1133F4002E0064B02221A70054B01221A70BD468C
S1133F5005B090BDFC4F0000980000201000002028
S1133F605C00002080B582B000AF0A1CBB1D011CA0
S1133F7019807B1D1A700023181CBD4602B080BD39
S1133F8080B500AFBD4680BD80B582B000AF78601B
S1133F900A4B1B78DBB201225340DAB2074B1A708A
S1133FA0064B1B78DBB2002B04D0054B1B68181C96
S1133FB000F0E6FABD4602B080BDC04624000020F1
S1133FC01C00002080B582B000AF021CFB1D1A70DB
S1133FD0BD4602B080BDC04680B500AF00F01AFBFC
S1133FE0BD4680BD80B582B000AF3B1D1870074B45
S1133FF01A68074BDB7807494B4307495B18101CC9
S1134000191C00F0C9F8BD4602B080BD2000002094
S1134010040000208038010060AE0A0080B500AFC3
S113402000F0AEF900F018FB002000F033FA021C97
S11340300F4B1A60002000F053F8021C0D4B1A605D
S113404000E0C0460C4B1B78DBB2002BF9D1084BC7
S11340501B68181C00F07CFA054B1A68074B101CEF
S113406000211A1C00F09EFAFEF794F8E9E7C04616
S11340701C00002020000020240000201027000045
S113408080B582B000AF7860FEE7C04680B500AF6F
S1134090054A064BD31A054A101C00211A1C00F0CD
S11340A0B3FBBD4680BDC046500100200C0000207B
S11340B000F08CFF00F0AAF8FFF7E8FF00F062FFC1
S11340C000F0FCFE00F090FF044B0020191CFFF7E9
S11340D0A5FF031C181C00F07BFBC0462800002031
S11340E080B584B000AF7860224BFB60FB687A68CF
S11340F01A60214BFA681A60204A2049204BCB5899
S11341008021090419431E4BD1501E4B00221A6012
S11341101C4A84235B000021D1501A4A86235B0089
S11341200121D150174A80235B001749D150174A07
S11341301649C5239B00CB58191C154B0B40C021B5
S113414009041943C5239B00D150104B0F4A126830
S11341508021C9030A431A600A4A84235B000321AD
S1134160D1500C4BFA685A60FB68181CBD4604B069
S113417080BDC0462C0000203000002000700440A8
S11341803C10000000700340FF9E240000E100E0AA
S1134190FFFF00FF3400002080B582B000AF7860DC
S11341A03960054A3B68591E80235B00D1500023C7
S11341B0181CBD4602B080BD0070034080B582B0BB
S11341C000AF0A4B1B687B60094A86235B00012110
S11341D0D150074A80235B00D3587B681B68181CA6
S11341E0FFF7D2FEBD4602B080BDC04630000020BD
S11341F00070034080B500AFFFF7C2FEBD4680BD2E
S113420080B500AFFFBEBD4680BDC04680B500AFDF
S11342104D4A4E494E4BD1504E4A88235B010021F2
S1134220D1504C4A4B494C4BCB58B021490119430E
S1134230494BD150474A494B4949D150454A4549D0
S1134240484BCB58802149021943464BD150414B2E
S1134250404A1268111C444A0A401A603D4A3D49CA
S1134260404BCB58191C414B0B4080214904194346
S11342703C4BD1503E4B3E4A926C111C3D4A0A4085
S11342809A643B4B3A4AD26C111C3A4A0A40DA64AB
S1134290394B80221A70394B24225A70374B9A2298
S11342A01A70364B354AD278D1B21F220A40D2B2A4
S11342B0DA70C046314B9B79DBB21A1C10231340D1
S11342C0F8D1C0462D4B9B79DBB21A1C0C2313404A
S11342D0082BF7D1284B80221A70284B9A221A7087
S11342E0264B24225A70254B01221A71234B40225B
S11342F05A71C046214B9B79DBB21A1C0C23134024
S1134300082BF7D1C0461D4B9B79DBB21A1C402306
S11343101340F8D0184B80221A70184B1A221A70C6
S1134320164B24225A70154B01221A71134B40224A
S11343305A71C046114B9B79DBB21A1C0C231340F3
S11343400C2BF7D1BD4680BD00E000E0000000006A
S1134350080D0000007004403810000044100000F4
S11343600000011004100000FFFFF3FFFFFFFFFC3B
S113437000900440FFF8FFFE005006400040064055
S113438080B500AF384B384A1269111C374A0A40CD
S1134390E021C9000A431A61354B354A5279D2B239
S11343A01F218A43D2B25A71314B314A1279D2B2A7
S11343B007218A43D2B21A712E4B2E4A1278D2B2F6
S11343C0D2B273218A43D2B250210A43D2B2D2B2BA
S11343D01A70284B274A5278D2B2D2B263218A4348
S11343E0D2B240210A43D2B2D2B25A70214B214AEE
S11343F09278D2B219218A43D2B29A701E4B00220B
S11344001A701E4A1D491E4BCB58191C1D4B0B40DC
S11344108021C90419431A4BD1501B4B1A4A126C00
S1134420111C124A0A401A64174B174A526C111C89
S11344300E4A0A405A640C4B0B4A126D111C0B4A6B
S11344400A40E021C9000A431A65104A0F49C123F2
S11344509B00CB58191C0E4B1940C1239B00D15013
S113446062B6BD4680BDC04600900440FFF8FFFE22
S113447000F0074000D0074000E00740007004400F
S113448004100000FFFFFFF300A0044000E100E07F
S1134490FFFF00FF80B584B000AF7860234BFB6062
S11344A0FB687A685A60224A2149224BCB58802102
S11344B0490419431F4BD1501F4B00221A601E4B55
S11344C000225A601C4B0022DA601B4B00225A6106
S11344D0194B0022DA61184B00225A62164B002253
S11344E0DA62154B00225A63134B144A9A60124B3A
S11344F02C225A61104B124A9A61124B114A52688B
S1134500111C114A0A408021C9000A435A60FB6801
S113451008221A60084B09221A600C4BFA681A60C8
S1134520FB68181CBD4604B080BDC0463C0000209A
S1134530007004403C10000000800340FFFF0000B6
S1134540AAAA000000C00440FFF8FFFE34000020C7
S113455080B584B000AF78607B68FB60074B074A86
S113456012689821101C8843011CFA6812680A43D7
S11345701A600023181CBD4604B080BD00800340AF
S113458080B582B000AF7860054B054A1268982167
S11345908A431A600023181CBD4602B080BDC04681
S11345A00080034080B584B000AFF8607A603B1CA3
S11345B00B330A1C1A703B1C0B331B78002B01D0E5
S11345C082231BE03B1C0B331B780E4AD35C002B6D
S11345D001D0092312E00C493B1C0B331B780B4A16
S11345E0D35C7A6892B20133DB00CB189A607A68A4
S11345F0074B9A4201D9982300E00023181CBD46BA
S113460004B080BDE050000000800340DC50000096
S1134610FFFF000080B500AF0C4A0C490C4BCB588F
S11346208021C90019430A4BD150084A0749084B55
S1134630CB5820211943064BD150064B00221A6453
S1134640044B00225A64BD4680BDC046007004403D
S11346503810000000A0044080B582B000AFFB1DFC
S113466000221A70FDF766FC584B1B78181C0421B5
S11346700322FCF725FA031C191CFB1DFA1D1278F2
S11346800A431A70514B1B78181C05210022FCF7B1
S113469017FA031C191CFB1DFA1D12780A431A7021
S11346A04A4B1B78181C06210222FCF709FA031C4A
S11346B0191CFB1DFA1D12780A431A70434B1B7810
S11346C0181C07212022FCF7FBF9031C191CFB1DF5
S11346D0FA1D12780A431A703C4B1B78181C0121EE
S11346E0C022FCF7EDF9031C191CFB1DFA1D1278FE
S11346F00A431A700D202821FDF7E4FE031C191C3F
S1134700FB1DFA1D12780A431A700E202821FDF7AA
S1134710D9FE031C191CFB1DFA1D12780A431A70DA
S11347200F200321FDF7CEFE031C191CFB1DFA1DEF
S113473012780A431A700B200121FDF7C3FE031CF3
S1134740191CFB1DFA1D12780A431A700420082153
S1134750FDF7B8FE031C191CFB1DFA1D12780A4351
S11347601A7005206421FDF7ADFE031C191CFB1D06
S1134770FA1D12780A431A7006200421FDF7A2FEDE
S1134780031C191CFB1DFA1D12780A431A7007201A
S11347900021FDF797FE031C191CFB1DFA1D12785E
S11347A00A431A7080231B020120191CFDF78AFE9C
S11347B0031C191CFB1DFA1D12780A431A70FB1DF9
S11347C01B78181CBD4602B080BDC0460400002002
S11347D038B5051C00F0ECFB00F094FB084C236892
S11347E0002B02D0984700232360064C2368002B3B
S11347F002D0984700232360281CFFF741FC38BDF2
S1134800440000204800002010B5041C00F0EEFA1B
S1134810201C10BDF0B589B01F1C0EAB1B780C1CFE
S113482004930FAB1E78013C00230190039107927F
S113483002902370984217D1119A9A4214D1049B82
S1134840002B01D06F2E32D0692E02D0642E00D0FE
S1134850AAE0022F02D1039C023CA3E0012F00D066
S1134860A2E0039C023C98E0692E0FD004D8582E95
S113487019D0642E21D109E0752E04D0782E12D0DF
S11348806F2E1AD115E0002700971BE0019A002A29
S113489013DA80231B069A4212D05242012301925A
S11348A0029200930EE00027009710250BE0119F61
S11348B000E000270097082505E00021009101E0B1
S11348C0012200920A250023069301E006901C1C95
S11348D00298291CFDF7BEFF02980591291CFDF7DB
S11348E075FF05990290092902D80A1C303205E0A7
S11348F0059A3732782E01D1059A573206980299D3
S1134900631ED2B21A7001300029DFD1082D09D1FB
S11349100499002906D0302A04D00698A31E302218
S11349201A700230079A022A10D10099002901D185
S1134930002F02D0109A013A109210991191102D63
S113494004D1049A002A01D002391191039A002457
S1134950D11A119A8918164A914225DC302202E0B4
S1134960013B1A70013011991C1C8842F8DB102D90
S11349700AD1019A002A07D0049B002B04D0631E9D
S11349801E70023C302323700099002902D0013CA0
S11349902D2308E0012F02D1013C2B2303E0022F39
S11349A002D1013C20232370201C09B0F0BDC04675
S11349B0FD010000F0B5AD4C0027A5441C1CAC4B18
S11349C00B916B4420210A90197009920897EBE12E
S11349D00998252100F059FA0490002810D109986B
S11349E000F062FA089F021C3F18002800D1E4E19D
S11349F00B9809990A9DA847002800D0DDE1DAE167
S1134A00049D09982D1A079507D02A1C0B9809991B
S1134A100A9DA847002800D1CDE1049845782B1CB5
S1134A20252D0AD100260230012309900696321C56
S1134A30311CB446371C0593A6E0049A00210125D5
S1134A4001320F1C05952B2B00D1BDE104DC202B7A
S1134A5008D0232B11D109E02D2B00D1B2E1302B4A
S1134A600BD105E0012F00D0B0E1B3E10121B1E1A8
S1134A70059D002D00D0ABE1ACE12A2B03D000252D
S1134A8006950A2612E0251D24680694002C03DAF4
S1134A906042002306900593501C53782C1C0AE0B6
S1134AA0069B73435D190695537801321D1C303DF6
S1134AB0101C092DF4D96F4A069D954206DD002687
S1134AC001300990FF25321CB4465DE02E2B1CD129
S1134AD043782A2B04D0421C0A20002684460CE08A
S1134AE026680434F343DB0F9C46837802300EE0DF
S1134AF063465E435378761901321D1C303D101C09
S1134B00092DF5D90125AC4601E00026B446682BF1
S1134B1000D162E103226C2B00D15FE10022DDB2FF
S1134B206E2B2FD00ADC632B1BD002DC582B28D130
S1134B3010E0642B0ED0692B23D10BE0732B13D020
S1134B4004DC6F2B06D0702B1BD110E0752B01D029
S1134B50782B16D16346002B0ED0059B022B11D166
S1134B600CE06346002B0CD1002A0AD10AE0782518
S1134B7008260322012105E0012603E00123059311
S1134B8000E0FF25013009900898079BC0180890A1
S1134B906E2D75D010D8632D00D184E006D8252D54
S1134BA000D186E0582D00D089E022E0642D0FD09A
S1134BB0692D00D083E00BE0732D36D003D86F2D20
S1134BC000D07CE015E0752D13D0782D77D110E05E
S1134BD0231D07932068032A06D0022A01D100B2BC
S1134BE002E0012A00D140B2009106990195029198
S1134BF00FE0231D07932068032A06D0022A01D15F
S1134C0080B202E0012A00D1C0B2069A0091019557
S1134C1002928DA9059A3B1C0396FFF7FBFD041E27
S1134C204DD0154F6F443F1B59E0231D2468079353
S1134C30002C00D1114C002907D06046277801349C
S1134C4000284CD0B74249DC49E06246201C002AC7
S1134C5007D0321C00F00CF9371C00283FD0071B8A
S1134C603DE000F021F9071C39E0C046C4FDFFFF18
S1134C7036020000FD01000033020000E450000091
S1134C80251D07952368022A05D0032A08D0002A87
S1134C9000D088E004E068462021085A188082E0A9
S1134CA0089D1D607FE02268201D0DAB07901A70DF
S1134CB002E00DAB1D7007941C1C01270FE0049843
S1134CC000F0F2F8089F041E06D00B980499221CE9
S1134CD00A9DA84700286ED03F196EE0371C05983E
S1134CE03E1C00283FD03023022800D020233D4A18
S1134CF06A44137022782D2A04D02B2A02D00497F8
S1134D00202A0CD10497302B09D10B98211C0122A5
S1134D100A9B984700284ED0781E013404900599C8
S1134D20022911D1412D01D0612D0DD1049D012DF8
S1134D3041DD0B98211C02220A9DA84700283AD085
S1134D40049D0234023D04953E1C08E025490B985D
S1134D50694401220A9DA84700282CD00136069DEB
S1134D60AE42F3DB049F002F06D00B98211C3A1CA3
S1134D700A9DA84700281ED0059D002D10D109E0EA
S1134D8025700B98211C01220A9B9847002812D0F9
S1134D90013602E0144C20256C4406988642EFDB71
S1134DA0089DAD190895079C099D2B78002B00D010
S1134DB00EE6089F01E001277F42381C8F239B00E9
S1134DC09D44F0BD002504E0012703E0022701E033
S1134DD0022505955378013235E6022243780130E5
S1134DE09DE6C046360200003702000030B5C9B265
S1134DF0031C1F2A35D9444203232340041C002BDF
S1134E0007D0D21A1D1C013D21700134002DFAD1A6
S1134E10C418002905D00D06080428430B020143D9
S1134E2019435009231C00280ED0051C013D1960AC
S1134E3059609960D960196159619961D9612033C8
S1134E40002DF3D14301E318D006400F07D0041C12
S1134E501D1C013C02C5002CFBD180001B18032043
S1134E600240002A03D01970013A0133F9E730BD3A
S1134E7010B5C9B2821804E00478431C8C4203D0F4
S1134E80181C9042F8D1002010BD00B5C9B202E050
S1134E908B4208D0101C0378421C002BF8D14B42E3
S1134EA059414942084000BD00B5031C1A1C013396
S1134EB0591E09780029F9D1101A00BD38B50B4CD8
S1134EC00B4D01E008CC9847AC42FBD1094C0A4D8C
S1134ED001E008CC9847AC42FBD1084C084D01E0F6
S1134EE008CC9847AC42FBD138BDC046E85000001E
S1134EF0E8500000E8500000E8500000E8500000CE
S1134F00EC50000038B5084C084D01E008CC984737
S1134F10AC42FBD1064C074D02E0043C23689847A1
S1134F20AC42FAD138BDC046E8500000E850000059
S1134F30EC500000EC50000030B5002A20D088422C
S1134F401ED003240123214207D1204205D19442DB
S1134F5003D220C9043A20C010E0194209D11842F2
S1134F6007D1934205D20D88023A058002310230FE
S1134F7004E00D78013A057001310130002AE2D1D4
S1134F8030BD000010B5094C002C0ED004E0606860
S1134F90A268FFF7D1FF0C3421680029F7D16368B8
S1134FA0002BF4D1A368002BF1D110BDF850000000
S1134FB010B5054B1C6803E0A06863689847246833
S1134FC0002CF9D110BDC04658000020054B181C18
S1134FD0002805D0854681B00020C043009001B070
S1134FE0F746704700300020F7467047E53B000065
S1134FF0E53B00000C50000018500000A9360000EA
S1135000005004406C0000201A000000FC4F000017
S11350101000002009000000FC4F000010000020D8
S11350200A0000003401002000000000F00000200D
S113503000000000C8000020E53F000024500000EC
S113504004000020020000001104000055200000AC
S11350500D170000DD130000020101010000000033
S11350600000000000000000A9140000C1140000AA
S1135070B11F0000000000002523000041210000B2
S113508000000000C53F0000D93F00000F000000F1
S1135090E9080000010000000000000020280000D2
S11350A0B9090000E509000000000000000000004C
S11350B0D51400002115000065170000311300000D
S11350C00000000000000000C50D0000000000000A
S11350D0091100000F640003FF000000010000003C
S10B50E00000000000000000C4
S10750E80D42000071
S10F50EC01000000400000000000000073
S11350F8EC500000000000200C000000F8500000F4
S113510800F0FF1F00000000000000000000000085
S1075118000000008F
S90340B10B
